:020000040800F2
:100000008056002085020008790E0008A50300082C
:10001000750E000855040008E129000800000000E2
:100020000000000000000000000000007112000845
:10003000D507000800000000F30200087D14000846
:100040009F0200089F0200089F0200089F0200080C
:100050009F0200089F0200089F0200089F020008FC
:10006000D90700089F0200089F0200089F020008AD
:100070009F0200089F0200089F0200089F020008DC
:100080009F0200089F0200089F0200089F020008CC
:100090009F0200089F0200089F0200089F020008BC
:1000A0009F0200089F0200089F0200089F020008AC
:1000B0009F0200089F0200089F0200089F0200089C
:1000C0009F0200089F0200089F0200089F0200088C
:1000D0009F020008391600084D160008D5160008C2
:1000E0009F0200089F0200089F0200089F0200086C
:1000F0009F0200089F0200089F0200089F0200085C
:100100009F020008AD1000089F0200089F0200082F
:10011000B51500089F0200089F0200089F02000812
:100120009F0200089F0200089F0200089F0200082B
:100130009F0200089F0200089F0200089F0200081B
:100140009F0200089F0200089F020008090F000894
:100150009F020008DD0400081D050008451700087F
:100160009F0200089F0200089F0200089F020008EB
:100170009F0200089F0200089F0200089F020008DB
:100180009F0200089F02000800F002F800F06AF8E1
:100190000AA090E8000C82448344AAF10107DA45E2
:1001A00001D100F05FF8AFF2090EBAE80F0013F0CA
:1001B000010F18BFFB1A43F001031847CC4D000094
:1001C0000C4E00000A444FF0000C10F8013B13F0F5
:1001D000070408BF10F8014B1D1108BF10F8015BA0
:1001E000641E05D010F8016B641E01F8016BF9D193
:1001F00013F0080F1EBF10F8014BAD1C0C1B09D1EA
:100200006D1E58BF01F801CBFAD505E014F8016B5B
:1002100001F8016B6D1EF9D59142D6D370470000ED
:10022000103A24BF78C878C1FAD8520724BF30C822
:1002300030C144BF04680C607047000000230024F4
:1002400000250026103A28BF78C1FBD8520728BFE6
:1002500030C148BF0B6070471FB504F079FD1FBD6A
:1002600010B510BD00F0BCF81146FFF7F5FF00F027
:10027000EAF800F0DAF803B4FFF7F2FF03BC00F08D
:10028000DBF800000948804709480047FEE7FEE721
:10029000FEE7FEE7FEE7FEE7FEE7FEE7FEE7FEE736
:1002A00004480549054A064B704700004D150008F3
:1002B00089010008805000208056002080520020D4
:1002C00080520020EFF3108072B6704780F31088E0
:1002D0007047394A1368012B04D04FF001031360B3
:1002E000364A1060364A116036484FF0805101603E
:1002F0007047EFF3108272B62F48016821B34FF0B8
:10030000000101602D48016891B1EFF309811EF0F1
:10031000100F08BF21ED108B21E9F00F4FF0000402
:100320001EF0100F08BF012441F8044D0068016061
:1003300023490968096808C9B1E8F00F002B18BF04
:10034000B1EC108B81F3098882F310884EF0100E07
:10035000002B18BF2EF0100E4EF0040E70471849F7
:100360000860EFF3148222F0040282F31488134928
:100370004FF00000086010494FF00100086012487B
:100380004FF47F01D0F8002041EA020101600D48DE
:100390004FF0805101600D480068006880F30888C4
:1003A00062B67047EFF3098000B503F045F95DF8D8
:1003B00004EB4EF0040E70473000001028000010CF
:1003C0002C00001004ED00E020ED00E008ED00E05E
:1003D0007047704770470000004870472050002069
:1003E0007546FFF7F9FFAE4605006946534620F013
:1003F0000700854618B020B5FFF752FFBDE8204042
:100400004FF000064FF000074FF000084FF0000BD0
:1004100021F00701AC46ACE8C009ACE8C009ACE883
:10042000C009ACE8C0098D4670470446AFF30080B0
:100430002046FFF720FF000001491820ABBEFEE771
:1004400026000200704710B5FFF73CFF04F06EFB7A
:10045000002010BD00BFFEE710B50246002006E0F8
:1004600013784340034CE05C521C4B1ED9B2002968
:10047000F6DC10BD7C4E000870B5044605E0164859
:10048000056805F0450000B100E0F8E700BF042072
:1004900000F000FE20B1042000F0F6FD032070BD46
:1004A000012000F0F7FD20B1012000F0EDFD01205A
:1004B000F5E7094824380068A04201D01020EEE793
:1004C00040F2FF5000F0E0FD0348203800680821AA
:1004D0000840C0B2E3E70000342C014010B503F03F
:1004E00059F90B490B4800F015F968B1084909485A
:1004F00000F030F80021074800F046F8012240F2F1
:100500002661054801F07CF903F054F910BD0000A4
:1005100000802020A06402400014014010B50A4968
:100520000A4800F0F7F868B10749084800F012F8E7
:100530000021064800F028F8012240F22661044814
:1005400001F05EF910BD000000800028B864024090
:10055000001001400246094B9A4201D2084801E0CE
:100560000648103801F000531BB1064B0B40C36026
:1005700002E0044B0B4083607047000010640240AF
:10058000006002407D0F7D0F21B1026842F0010240
:10059000026003E0026822F001020260704700007E
:1005A000016821F00101016000210160416081606A
:1005B000C1600161212141614A49884204D13D2144
:1005C000484A103A91608CE046491831884205D17A
:1005D0004FF47461434A103A916082E041493031EE
:1005E000884205D14FF474113E4A103A916078E088
:1005F0003C494831884205D14FF07461394A103A7C
:1006000091606EE037496031884204D13649354AFD
:10061000103AD16065E033497831884204D13349DA
:10062000304A103AD1605CE02E499031884204D1C2
:100630002F492C4A103AD16053E02A49A831884208
:1006400005D14FF03D51274A103AD16049E0294980
:10065000884204D13D21274A083A116041E02549EA
:100660001831884205D14FF47461224A083A11606A
:1006700037E020493031884205D14FF474111D4ACA
:10068000083A11602DE01B494831884205D14FF0EE
:100690007461184A083A116023E0164960318842B3
:1006A00004D11149134A121F11601AE0114978311F
:1006B000884204D10D490F4A121F116011E00D4903
:1006C0009031884204D10A490A4A121F116008E099
:1006D0000849A831884204D14FF03D51054A121F04
:1006E00011607047106002403D000020400F002064
:1006F00000003D2010640240014600200A6802F01C
:1007000001020AB1012000E000207047014648685C
:1007100080B2704770B50246002000240025124EBA
:10072000B24201D2114B01E00F4B103B104E0E4074
:1007300036B11E2606EAD124166806EA040502E050
:10074000566906F0800501F000560EB15C6800E0C5
:100750001C68084E344004EA010616B10DB10120B0
:1007600000E0002070BD0000106402400060024004
:100770003C0F3C0F7D0F7D0F10B500220268134B1C
:100780001A40CC680B6823434C6923438C6923438C
:10079000CC6923430C6A23434C6A23438C6A23436A
:1007A0004C6B23438C6B23431A430260426922F053
:1007B0000702D1E90B3423431A4342610B694360BA
:1007C0004B6883608B68C36010BD00003F801CF0E5
:1007D00041607047704700001CB5002001900090F8
:1007E00002F0D8FF01A9112002F07EF99DF8040063
:1007F00000F00100F8B10021032002F0A3F96946DE
:10080000082002F071F99DF8000000F0840030B17A
:100810000121084602F096F90120514908709DF81F
:10082000000000F0030030B101204E4908704E492D
:10083000002002F02DF99DF8040000F002000028CD
:100840005AD00024002000906946182002F04CF98C
:100850009DF8000000F0840030B10221012002F078
:1008600071F901203E4948709DF8000000F0010038
:1008700000B300203D490860DF2002F0CBF80020E3
:100880003B4908700FE0FF2002F0C4F839490A889C
:100890000988491C374B19803749885434480078F7
:1008A000401C3349087032480078C828EBDB01202F
:1008B0002E4908609DF8000000F00200D8B12E48D3
:1008C0002C4A12888118102002F0E2F80446002019
:1008D000284909882144284A505410460078242881
:1008E00006D10021012002F0B1F801201D49487015
:1008F00000202049088000BF9DF8040000F004009B
:1009000008B3002000906946282002F0EDF89DF819
:10091000000000F0840030B10421012002F012F93F
:1009200001200F4988709DF8000000F0020050B1CE
:1009300001200C4988701149202002F0A9F80021FB
:10094000022002F083F8042000F01CF802F032FFCD
:1009500004484078012802D1094803F02EFA1CBD52
:10096000580000205C000020502F0020B082404240
:100970006200002060000020942C0020022F002044
:10098000942E00200149086070470000143C01408B
:10099000F0B50A4600210023002400BF3DE00125F8
:1009A00005FA01F3156805EA03049C4234D1056891
:1009B0004F000326BE40B543056015794E00B54093
:1009C0000668354305601579012D02D01579022D91
:1009D00016D185684F000326BE40B5438560557922
:1009E0004E00B540866835438560456801268E40D7
:1009F000B5434560456896798E40B6B2354345604B
:100A0000C5684F000326BE40B543C560D5794E008A
:100A1000B540C6683543C560491C1029BFD3F0BD39
:100A2000F0B5002300244D07ED0E02FA05F3CE10B9
:100A300000F1200555F826504E07F70E0F26BE4050
:100A4000B543CF1000F1200646F82750CE1000F134
:100A5000200555F8265045EA0304CE1000F1200584
:100A600045F82640F0BD0183704700001CB5012108
:100A7000402000F055FA4FF4C060009001208DF83E
:100A8000040000208DF806008DF8050001208DF887
:100A9000070069460448FFF77BFF4FF4C061024836
:100AA000FFF7E1FF1CBD0000001802401CB501214A
:100AB000084600F035FA0121202000F031FA01212A
:100AC000080300F04DFAF020009002208DF8040099
:100AD00000208DF8060003208DF8050001208DF818
:100AE000070069461948FFF753FF052204211748FC
:100AF000FFF796FF052211461448FFF791FF0522E4
:100B000006211248FFF78CFF052207210F48FFF747
:100B100087FF0121080300F033FA00214FF48050D1
:100B200000F02EFA0A48008840F038000849088092
:100B30000846008808800121054800F08DFB044824
:100B4000008840F04400024908801CBD00000240BB
:100B50000030014070B50446002507E0681CC0B2B3
:100B60000546C82802DD4FF0FF3070BD0221054860
:100B700000F064FB0028F1D02146024800F06AFB37
:100B80000020F2E70030014010B5002407E0601CAF
:100B9000C0B20446C82802DD4FF0FF3010BD01216D
:100BA000044800F04BFB0028F1D0024800F04FFB56
:100BB00000B2F3E7003001402DE9F04105460E4652
:100BC0000024002700BF15E00020FFF7C3FF401CF2
:100BD00010B90120BDE8F081FFF7D6FF0746781C69
:100BE00008B90120F6E72F55295D04A002F03AFE6E
:100BF000601CC4B2B442E7DB0020EBE725640A00C6
:100C000070B505460E460024052002F033F900BFFA
:100C100011E0285DFFF79EFF401C08B9012070BD60
:100C2000FFF7B2FF401C08B90120F8E7052002F0E9
:100C300021F9601CC4B2B442EBDB0020EFE70000F6
:100C400070B504460025152C74D012DC102C72D01F
:100C500006DC062C70D2DFE804F0A2212D525A6681
:100C6000112C6AD0122C69D0132C68D0142C63D1AB
:100C700080E0312C74D008DC162C7DD0172C60D08D
:100C8000182C66D0302CF2D177E0322C77D0332C70
:100C900076D0342C75D0352CE9D173E0424803F07E
:100CA0006DFF054629464048FFF7AAFF08B101201D
:100CB00070BD75E03DA002F0D5FD0220FFF74AFFB0
:100CC000401C08B90120F3E7FFF75EFF401C08B99C
:100CD0000120EDE70020FFF73DFF401C08B901208F
:100CE000E6E7FFF751FF401C08B90120E0E71C21AF
:100CF0003348FFF761FF08B10120D9E750E0032036
:100D0000FFF728FF401C08B90120D1E748E026483A
:100D100003F07EFF054629462348FFF771FF08B11F
:100D20000120C5E73CE00520FFF714FF401C38B95F
:100D30000120BDE71FE019E031E018E018E018E0FD
:100D40002EE01720FFF706FF401C08B90120AFE78F
:100D500026E01820FFF7FEFE401C30B90120A7E76F
:100D60000CE009E00BE00BE00BE019E000BF00BF76
:100D700000BF00BF00BF00BF00BF00BF00BF00BF7B
:100D800000BF00BF2146084802F0A0F805462946EA
:100D90000548FFF735FF08B1012089E700E000BFF3
:100DA00000BF002084E70000C44F00200A0A0A0A9E
:100DB0000A74657374207374617274210A000000F0
:100DC0000450002010B501202249087026204870E8
:100DD000012088701920C8707B20888001201E495E
:100DE000087026204870012088701920C8707B2068
:100DF00088800120194908702620487001208870D9
:100E00001920C870422088800120154908702620CA
:100E10004870012088701920C87042208880012005
:100E2000104908709FED100A084680ED010A9FEDF9
:100E30000F0A80ED020A01200D4908709FED0B0A90
:100E4000084680ED010A162048801020FFF7F8FEC2
:100E500010BD0000800000208600002094000020CB
:100E60009A0000209C4F002000800D440000C842E2
:100E70008C00002000BFFEE77047000070B5002125
:100E800000230F22C4781CB3174C246804F4E064D8
:100E9000C4F5E064C4F30721C1F10404E3B20A41DC
:100EA00044789C40E1B28478144021430C07210E21
:100EB0000E4C05786155047804F01F050124AC4000
:100EC00005786D11AD0005F1E025C5F8004109E098
:100ED000047804F01F050124AC40054D0678761116
:100EE00045F8264070BD00000CED00E000E400E095
:100EF00080E100E002490143024A116070470000AE
:100F00000000FA050CED00E010B502F043FC0348C8
:100F100000F016FD02F04EFC10BD00005C0A00203F
:100F200029B1064A12680243044B1A6004E0034ADE
:100F300012688243014B1A6070470000303802404B
:100F400029B1064A12680243044B1A6004E0034ABE
:100F500012688243014B1A6070470000403802401B
:100F600029B1064A12680243044B1A6004E0034A9E
:100F700012688243014B1A607047000044380240F7
:100F800029B1064A12680243044B1A6004E0034A7E
:100F900012688243014B1A607047000024380240F7
:100FA000F0B5002100220024022500260223324F42
:100FB0003F6807F00C0121B1042905D0082937D179
:100FC00005E02E4F076036E02D4F076033E02A4FD3
:100FD0003F1F3F68C7F38056274F3F1F3F6807F00A
:100FE0003F036EB1264FB7FBF3F7DFF88CC0ACF1CF
:100FF000040CDCF800C0CCF3881C07FB0CF40CE0FC
:101000001E4FB7FBF3F7DFF870C0ACF1040CDCF84F
:1010100000C0CCF3881C07FB0CF4174F3F1F3F6840
:10102000C7F301477F1C7D00B4FBF5F7076002E0C2
:10103000124F076000BF00BF0F4F3F6807F0F0017D
:101040000909104F7A5C0768D74047600A4F3F682C
:1010500007F4E051890A0B4F7A5C4768D7408760F4
:10106000054F3F6807F46041490B064F7A5C4768BB
:10107000D740C760F0BD0000083802400024F400EB
:1010800000127A0014000010014908607047000047
:10109000382C014001460020034A12680A400AB178
:1010A000012000E000207047342C014010B502F010
:1010B00071FB00F019F802F07DFB10BD0021094B17
:1010C00002681A601A1D11686FF30A01D0E9012342
:1010D0001A43C3681A4303691A431143014A121D94
:1010E00011607047082C014010B54FF48070FFF775
:1010F000D1FF78B34C480078012814D100204B4927
:1011000008600C204860402088600020C8604FF4D0
:10111000806008610846FFF7D1FF0C20FFF7ACF9AB
:101120004349087002E000204149087041480068C6
:1011300040F480703F490860081D00684CF23A3165
:1011400088433C49091D086001203B490870384824
:10115000007810BDFFE70220FFF79CFF78B1022066
:10116000FFF792FF3348001D00684CF23A31884384
:101170003049091D086002202D490870E9E7082060
:10118000FFF788FF78B10820FFF77EFF2948001D90
:1011900000684CF23A3188432649091D0860042052
:1011A00023490870D5E72020FFF774FF78B120208D
:1011B000FFF76AFF1F48001D00684CF23A31884370
:1011C0001C49091D0860062019490870C1E7102054
:1011D000FFF760FF78B11020FFF756FF1548001D9C
:1011E00000684CF23A3188431249091D0860052015
:1011F0000F490870ADE74FF40070FFF74BFF80B167
:101200004FF40070FFF740FF0A48001D00684CF2E1
:101210003A3188430749091D0860072004490870CE
:1012200097E7002095E700004D0000207011002096
:101230004E000020382C01404F00002002460020C4
:1012400013890B400BB1012000E0002070470146DC
:10125000888970478181704721B1828842F01002ED
:10126000828004E082884FF6EF731A4082807047D4
:101270007047000070B50546002440F22441124832
:1012800000F094FAF0B1104800880F48001D008863
:1012900000210E48FFF778F90D490C48FFF75AF97D
:1012A0000A48FFF733FAC0F5007084B222460949B4
:1012B000284602F0EDFB084802F07FFD00F09AF8A6
:1012C000204670BD0020FCE7001401402864024065
:1012D000000800102C1400202C1A002010B540F239
:1012E0002661074800F055FA40B9002240F2266115
:1012F000034800F085FA00200249087010BD000084
:1013000000140140640000200CB500200190009002
:101310003448006840F480303249086000BF3148EA
:10132000006800F4003000900198401C0190009883
:1013300018B90198B0F5A04FF1D12A48006800F41F
:10134000003010B10120009001E0002000900098D2
:10135000012846D123484030006840F080502149A0
:10136000403108602048006840F440401E49086051
:101370001C48083000681B490831086008460068AE
:1013800040F4004008600846006840F4A05008603F
:101390001648091F0860081F006840F08070091F88
:1013A000086000BF0F48006800F000700028F9D006
:1013B00040F205700E4908600A480830006820F0C5
:1013C00003000849083108600846006840F0020040
:1013D000086000BF03480830006800F00C000828CF
:1013E000F8D10CBD0038024000700040085440079E
:1013F000003C024000B58FB001218805FFF790FD49
:101400001B48FFF7CDF800BF1948FFF775F9002812
:10141000FAD14FF0206000901648019016480290D3
:10142000002003904FF400700490002005904FF4CA
:101430008060069000200790089009904FF440309B
:101440000A9000200B9001200C9000200D900E902F
:1014500069460748FFF790F9012240210548001F1F
:1014600000F08EF901210248FFF78EF80FB000BDA1
:1014700028640240041401402C14002010B502F02E
:1014800089F903F065F802F095F910BD70B50020F8
:101490000022022300240221274D2D6805F00C00B4
:1014A00020B1042806D0082834D107E0234D244E6B
:1014B000356033E0234D224E35602FE01E4D2D1F49
:1014C0002D68C5F380541C4D2D1F2D6805F03F017C
:1014D00054B11C4DB5FBF1F5174E361F3668C6F3F7
:1014E000881605FB06F209E0144DB5FBF1F5124E26
:1014F000361F3668C6F3881605FB06F20E4D2D1F03
:101500002D68C5F301456D1C6B00B2FBF3F50C4E65
:10151000356003E0094D0A4E356000BF00BF064D3F
:101520002D68C5F30315084E705D054D2D68C54047
:10153000034E356070BD0000083802400024F400FE
:101540000000001000127A000400001010B51548C9
:10155000006840F47000134908601348006840F0C8
:1015600001001149086000200F49083108600E4849
:1015700000680E4908400C4908600D48091D0860C4
:10158000081F006820F48020091F08600020064919
:101590000C310860FFF7B8FE4FF000600149803958
:1015A000086010BD88ED00E000380240FFFFF6FE45
:1015B0001030002410B502F0EDF840F225511A4821
:1015C00000F0F4F868B31848001D0088C4B217484A
:1015D000008800F4004020BB14480088102808DA76
:1015E000124801880088401C104A1080104844545A
:1015F00017E00F480D49098844540C48008840F40E
:1016000000400A49088008480C30008820F0040097
:1016100005490C3108800120064908700020034963
:10162000088002F0C7F810BD004C004054000020B4
:10163000181400205600002010B502F0ABF801F09D
:1016400095FB01F065FB02F0B5F810BD10B5002464
:1016500002F0A0F840F22441174800F0A7F838B390
:10166000154800881448001D008800211348FEF723
:101670008BFF13491148FEF76DFF1048FFF746F83E
:10168000C0F1100084B222460E490F4802F000FA61
:1016900010210A48FFF79CF801210848FEF774FF63
:1016A0000A2C05DB00200949086001200849087060
:1016B00002F080F810BD0000004400408860024045
:1016C000000800200811002018110020800241426B
:1016D0002400002010B502F05DF840F225511448B6
:1016E00000F064F808B31248001D0088C4B2114825
:1016F000008800F40040C0B90E480088202808DAAD
:101700000C4801880088401C0A4A10800A4844544A
:101710000BE00848008840F400400649088000209B
:101720000649086001200649087002F043F810BD20
:10173000004800402E00002028110020A4824242D0
:101740002C00002010B502F025F8FFF7C7FD044873
:10175000FFF790FD0349088002F02CF810BD00004F
:101760002C1600206600002021B1828942F400522C
:10177000828104E082894DF6FF731A4082817047AE
:101780001AB1838A0B43838202E0838A8B4383826C
:10179000704702460020B1F5007F00D100BF1388DA
:1017A0000B400BB1012000E00020704770B50246ED
:1017B000002400230025002040F66A16B14200D123
:1017C00000BFC1F3421501F01F03012606FA03F31F
:1017D000012D02D19689334006E0022D02D1168AEE
:1017E000334001E0968A33400C12012606FA04F4D5
:1017F0001688344013B10CB1012000E0002070BD08
:10180000F0B50346002400260025002040F66A17A4
:10181000B94200D100BF1846C1F3421401F01F06BF
:10182000012707FA06F5012C01D10C3004E0022C47
:1018300001D1103000E014301AB107682F4307605F
:1018400002E00768AF430760F0BD00002DE9FF47E5
:1018500005460E460024A14600BFA046B08900B14F
:1018600000BF2C8A24F44054F08804432C82AC89B5
:1018700041F20C608443B088318908437189084380
:101880000443AC81AC8A24F44074B0890443AC8234
:101890006846FFF785FB2048854202D01F488542F5
:1018A00002D1DDF80C9001E0DDF80890A88900F481
:1018B000004040B109EBC90000EB09103168490054
:1018C000B0FBF1F707E009EBC90000EB0910316844
:1018D0008900B0FBF1F76420B7FBF0F004012009A8
:1018E000642101FB1078A88900F4004040B1322047
:1018F00000EBC800B0FBF1F000F00700044308E083
:10190000322000EB08106421B0FBF1F000F00F0072
:1019100004432C81BDE8FF87001001400014014002
:10192000C1F308028280704701460122C1F81023EA
:101930000020704701460022C1F8102300207047A4
:1019400038B50546002400200090284600F0DDF858
:10195000002847D0284600F0E2F80090009808B927
:10196000002038BD0098C0F3C00018B1284601F02F
:1019700001F804430098C0F3001018B1284600F0A5
:1019800046FF04430098C0F3401018B1284600F009
:1019900080FD04430098C0F3806018B1284600F031
:1019A0009FFE04430098C0F3406018B1284600F041
:1019B00048F904430098C0F3006018B1284600F0CD
:1019C000FFFD04430098C0F3407018B1284600F0B2
:1019D000FFF804430098C0F3405018B1284600F0C7
:1019E0000DF904432046BCE701460020704770B55E
:1019F0000446002500BF05E04FF47A7001F03AFA82
:101A0000681C85B2A542F7D370BD0146C86840691D
:101A100000F0010070471CB502460020002300932F
:101A2000009B23F0004303F1004300930124009B3B
:101A300064F3DC43009302F1900353F82130009CDF
:101A40001C6102F1900353F821301B680193019B44
:101A500023F0004303F100430193019B23F08043F3
:101A6000019302F1900353F82130019C1C601CBDCE
:101A700010B586B00246002000230393019302F1C3
:101A8000900353F821301B680093009B23F0004320
:101A900003F100430093009B23F0804303F1804354
:101AA0000093009BC3F3814323B1009BC3F38143A5
:101AB000022B0BD1D368DB6A0393039BC3F3074369
:101AC0007BB9009B23F0004300930AE053691B6934
:101AD0000193019BC3F307431BB9009B23F0004311
:101AE000009302F1900353F82130009C1C6006B073
:101AF00010BD08B5426912680092009A61F30102B4
:101B00000092009B4269136008BD00B50246104672
:101B1000FFF77BFF012800D100BD0020FCE7014654
:101B20000020CA685069CA6892691040704708B5B9
:101B30000146D1F8CC0000680090009820F0040025
:101B40000090009820F002000090009820F008001B
:101B50000090009820F020000090009808BD0146F9
:101B6000486940697047F0B503460024D01CC71788
:101B700000EB9777BD10D3F8D06000BF03E030686A
:101B80000860641C091DAC42F9D30846F0BD38B5A5
:101B900004462046FFF7CBFF0090009820F48070A9
:101BA00000F5807000900099D4F8CC0001600A2004
:101BB000FFF71DFF009820F4807000900099D4F882
:101BC000CC0001601420FFF712FF012038BD000097
:101BD00038B5044600200090074800688168204618
:101BE0008847009820F0005000F1005000900098C5
:101BF000E1684861012038BD780000200CB501463D
:101C0000D1F8900000680090009820F0004000F1AA
:101C100000400090009820F0804000F1804000904B
:101C2000009AD1F89000026000200190019820F401
:101C3000001000F5001001900198CA685061012061
:101C40000CBD7CB50546002400262846FFF787FF1B
:101C5000019000BF1BE0019880B20121A140084023
:101C6000A0B105F1900050F82400006800900098A1
:101C7000C0F3C03028B12146284600F00DF80643D5
:101C800004E02146284600F01CFA0643641C28782C
:101C9000A042E0D830467CBD70B586B005460C4603
:101CA00005F1900050F82460B0680590F068049049
:101CB000DDE904100840059005F1900050F824007B
:101CC00000680390002004900598C0F38000D0B114
:101CD00000200190019820F00400001D019001985F
:101CE000B06005F1900050F82400C06801900198A0
:101CF00020F00200801C019005F1900050F82400B3
:101D00000199C16073E00598C0F3401048B100200C
:101D10000190019820F02000203001900198B060DF
:101D200065E00598C0F3C00078B305F1900050F865
:101D30002400C0680190019820F00200801C0190EE
:101D400005F1900050F824000199C160052105F5C6
:101D50006370015500200190019820F010001030B0
:101D600001900198B06000200190019820F00800D7
:101D7000083001900198B060059820F0100005909F
:101D8000E1B22846FFF774FE31E0FFE70598C0F3A3
:101D9000802060B305F1900050F82400C0680190E5
:101DA000019820F00200801C019005F1900050F88D
:101DB00024000199C160E1B22846FFF759FE0020D6
:101DC0000190019820F01000103001900198B0604F
:101DD000082105F56370015500200190019820F459
:101DE000806000F5806001900198B06000BF0598A8
:101DF000C0F34020F8B105F1900050F82400C0680D
:101E00000190019820F00200801C019005F19000E3
:101E100050F824000199C160E1B22846FFF728FE7E
:101E200000200190019820F4007000F500700190EE
:101E30000198B06042E1059800F00100002871D0DF
:101E4000E878012812D105F1900050F824000069CB
:101E5000029005F56B7000EB441000690299C1F324
:101E60001201411A05F5547040F82410012105F5BE
:101E7000637001550021783840F82410002001904B
:101E8000019820F00100401C01900198B060039877
:101E9000C0F3814020B10398C0F3814002282AD1C9
:101EA00005F1900050F82400C0680190019820F0DE
:101EB0000200801C019005F1900050F82400019967
:101EC000C160E1B22846FFF7D3FD002001900198E0
:101ED00020F01000103001900198B06005F56B7093
:101EE00000EB4410007E80F0010105F56B7000EB03
:101EF00044100176E2E00398C0F38140032899D1B1
:101F0000039820F0005000F10050039005F190007C
:101F100050F8240003990160012105F29B3001551E
:101F2000CCE0FFE70598C0F34000002851D005F150
:101F3000900050F82400C0680190019820F0020041
:101F4000019005F1900050F824000199C16005F559
:101F50006370005D012804D1012105F29B30015519
:101F60002DE005F56370005D052804D1042105F21C
:101F70009B30015523E005F56370005D062804D011
:101F800005F56370005D082808D1002105F545704E
:101F900040F8241003218730015510E00398C0F366
:101FA000814003280BD105F56B7000EB4410007ED7
:101FB00080F0010105F56B7000EB44100176002004
:101FC0000190019820F00200801C01900198B060FF
:101FD00074E00598C0F3C01040B305F1900050F8CC
:101FE0002400C0680190019820F00200801C01903C
:101FF00005F1900050F824000199C16005F5457085
:1020000050F82410491C40F824100621783001555E
:10201000E1B22846FFF72CFD00200190019820F046
:102020008000803001900198B06047E00598C0F3CF
:102030000010E8B30398C0F38140032815D105F1DF
:10204000900050F82400C0680190019820F0020030
:10205000801C019005F1900050F824000199C160A6
:10206000E1B22846FFF704FD18E00398C0F3814071
:1020700020B10398C0F3814002280FD1039820F0CB
:10208000004000F100400390039820F0804003904E
:1020900005F1900050F8240003990160032105F533
:1020A0006370015500200190019820F0100000E0BD
:1020B00004E0103001900198B06000BF012006B02C
:1020C00070BD7FB505460C4605F1900050F82460C0
:1020D000B0680390F0680290DDE9021008400390B8
:1020E00005F1900050F82400006801900398C0F3B7
:1020F0008000D0B100200090009820F00400001D66
:1021000000900098B06005F1900050F82400C0687D
:102110000090009820F00200801C009005F19000D3
:1021200050F824000099C160B0E10398C0F340105A
:1021300048B100200090009820F02000203000904E
:102140000098B060A2E10398C0F34020F8B105F117
:10215000900050F82400C0680090009820F0020021
:10216000801C009005F1900050F824000099C16097
:10217000E1B22846FFF77CFC00200090009820F494
:10218000007000F5007000900098B0607EE1039848
:1021900000F0010038B3002105F5457040F8241027
:1021A00005F1900050F82400C0680090009820F0DD
:1021B0000200801C009005F1900050F82400009966
:1021C000C160E1B22846FFF753FC00200090009860
:1021D00020F00100401C00900098B060012105F53E
:1021E0006370015552E10398C0F3C00010B30020A2
:1021F0000090009820F00800083000900098B0602F
:1022000005F1900050F82400C0680090009820F07C
:102210000200801C009005F1900050F82400009905
:10222000C160E1B22846FFF723FC052105F5637084
:1022300001552BE10398C0F3001038B3002105F5D8
:10224000457040F8241005F1900050F82400C06853
:102250000090009820F00200801C009005F1900092
:1022600050F824000099C160E1B22846FFF700FC55
:1022700000200090009820F010001030009000988E
:10228000B060032105F563700155FFE00398C0F3CA
:10229000C01040B305F1900050F82400C0680090D1
:1022A000009820F00200801C009005F1900050F88A
:1022B00024000099C160E1B22846FFF7D9FB05F57B
:1022C000457050F82410491C40F82410062178303D
:1022D000015500200090009820F080008030009090
:1022E0000098B060D2E00398C0F3801038B30021AA
:1022F00005F5457040F8241005F1900050F82400D1
:10230000C0680090009820F00200801C009005F149
:10231000900050F824000099C160E1B22846FFF710
:10232000A7FB00200090009820F040004030009073
:102330000098B060042105F563700155A6E003988C
:10234000C0F3802060B305F1900050F82400C0680D
:102350000090009820F00200801C009005F1900091
:1023600050F824000099C160E1B22846FFF780FBD5
:1023700000200090009820F010001030009000988D
:10238000B060082105F563700155002000900098A9
:1023900020F4806000F5806000900098B06075E0E7
:1023A0000398C0F34000002870D005F1900050F869
:1023B0002400C0680090009820F00200009005F111
:1023C000900050F824000099C16005F56370005D2D
:1023D000012815D1012105F29B3001550198C0F368
:1023E0008140022848D105F56B7000EB4410407E17
:1023F00080F0010105F56B7000EB441041763BE085
:1024000005F56370005D032804D1022105F29B30BD
:10241000015531E005F56370005D04280FD105F525
:102420006B7000EB44100079012803D1E1B228461B
:10243000FFF7F1FA022105F29B3001551CE005F58A
:102440006370005D052804D1042105F29B3001551D
:1024500012E005F56370005D06280DD105F54570A5
:1024600050F82400032807D1032105F29B300155C1
:102470000021873840F8241000200090009820F0B8
:102480000200801C00900098B06000BF012004B0E2
:1024900070BD7FB50446E068C06A00900198C0F343
:1024A000C30104F56B7000EB41100069C01CC0F360
:1024B0008F0673E04FF6FF71009801EA80050198DE
:1024C000C0F3C30104F56B7000EB41100069A84232
:1024D00015D20198C0F3C30104F56B7000EB4110F5
:1024E000008A85B200200390039820F0200020305D
:1024F0000390E068806903998843E16888610198E6
:10250000C0F3C30104F56B7000EB41100069C01CFF
:10251000C0F38F060198C0F3C302C0F3C30304F5F0
:102520006B7000EB43102B46C168204600F038FA70
:102530000198C0F3C30104F56B7000EB4110C06853
:1025400041190198C0F3C30204F56B7000EB42100F
:10255000C1600198C0F3C30104F56B7000EB41103A
:102560000069411B0198C0F3C30204F56B7000EBD6
:10257000421001610198C0F3C30104F56B7000EBD8
:102580004110406941190198C0F3C30204F56B7012
:1025900000EB42104161E068C06A0090009880B290
:1025A000B0420ADD0198C0F3C30104F56B7000EB83
:1025B0004110006900287FF47DAF012004B070BD98
:1025C000FEB50446002600250020009002900190F0
:1025D000D4F8CC0000680290D4F8CC0000680190D8
:1025E000019820F004000190019820F00200019071
:1025F000019820F008000190019820F0200001903F
:102600000298C0F3400058B1019820F00200801CED
:1026100001903248006841682046884745F001052E
:102620000298C0F3C000002842D0019820F00800B2
:10263000083001900298C0F38000002838D0274865
:1026400000684168204688470298C0F3414002284C
:1026500004D00298C0F34140012828D16069006885
:1026600000900298C0F34140022811D141F27071EC
:1026700060694160009800F00300022818D0207AB9
:10268000022803D102212046FFF733FA01260FE08A
:102690004BF6803160694160009800F0030001282A
:1026A00006D001212046FFF724FA012600E001268A
:1026B0000298C0F3401030B1019820F02000203083
:1026C000019045F0010516B12046FFF760FA019927
:1026D000D4F8CC0001602846FEBD00007800002040
:1026E000FEB504466069006900900198C0F3C3011B
:1026F00004F56B7000EB41100069C01CC0F38F063D
:1027000074E04FF6FF71009801EA80050198C0F36C
:10271000C30104F56B7000EB41100069A84216D2AA
:102720000198C0F3C30104F56B7000EB4110008AFF
:1027300085B200200290029820F0806000F1806055
:102740000290E068806902998843E1688861019895
:10275000C0F3C30104F56B7000EB41100069C01CAD
:10276000C0F38F060198C0F3C302C0F3C30304F59E
:102770006B7000EB43102B46C168204600F010F947
:102780000198C0F3C30104F56B7000EB4110C06801
:1027900041190198C0F3C30204F56B7000EB4210BD
:1027A000C1600198C0F3C30104F56B7000EB4110E8
:1027B0000069411B0198C0F3C30204F56B7000EB84
:1027C000421001610198C0F3C30104F56B7000EB86
:1027D0004110406941190198C0F3C30204F56B70C0
:1027E00000EB42104161606900690090009880B27E
:1027F000B0420ADD0198C0F3C30104F56B7000EB31
:102800004110006900287FF47CAF0120FEBD30B587
:1028100085B00446002000900390039820F010003B
:1028200010300390E068806903998843E16888610B
:10283000E068006A0490049800F00F00009004F132
:1028400090009DF8001050F8210000680190049855
:10285000C0F34340022806D0032878D0052877D05B
:10286000072873D175E00498C0F30A10002869DDC9
:1028700004F56B709DF8001000EB4110C068002853
:1028800060D00498C0F30A1204F56B709DF8003014
:1028900000EB4310C1682046FFF765F9049800F08B
:1028A0000F0104F56B7000EB4110C0680499C1F38F
:1028B0000A110144049800F00F0204F56B7000EB5C
:1028C0004210C160049800F00F0104F56B7000EB3A
:1028D000411040690499C1F30A110144049800F0C1
:1028E0000F0204F56B7000EB4210416104F56B7050
:1028F0009DF8001000EB4110456904F554709DF8F7
:10290000001040F8215004F190009DF8001050F89C
:102910002100006902900298C0F3C940002811DD2F
:10292000019820F0004000F100400190019820F053
:102930008040019004F190009DF80020019950F82A
:102940002200016006E002E002E0FFE700BF00BFF6
:1029500000BF00BF00BF039820F0100010300390AC
:10296000E068806903990843E1688861012005B047
:1029700030BD000038B504460020009007480068CC
:10298000016820468847009820F008000830009031
:102990000098E1684861012038BD000078000020FF
:1029A0002DE9F04104460026E078B0B90027002068
:1029B000DD1C4FEAE57805EB98784FEAA80704F1AB
:1029C000D00555F822C000BF04E00D68CCF80050D7
:1029D000401C091DB842F8D300BF3046BDE8F08165
:1029E00000BFFEE7F8B504460D4600200090002623
:1029F00044F006066946304600F076F80120A8400B
:102A00009DF800201043C1B2304600F09BF8002032
:102A1000F8BD000010B5044600BF02210A48FEF7C9
:102A20000DFC0028F9D021460748FEF713FC00BF33
:102A300001210548FEF702FC0028F9D00248FEF704
:102A400006FCC0B210BD00000038004038B5044696
:102A50000D466946002000F047F855B90120A04016
:102A60009DF8002022EA0001002000F06BF8002011
:102A700038BD012D0AD10120A0409DF8002010434F
:102A8000C1B2002000F05EF80020F1E70120EFE77E
:102A9000F8B504460E4600270020009044F00A07CF
:102AA0006946384600F020F844F0CF0700200D4971
:102AB00008603846FFF7AEFF002505E0FF20FFF76E
:102AC000A9FF7055681CC5B29DF800008542F5DB72
:102AD00001200449086000212046FFF783FF9DF88C
:102AE0000000F8BDB08240427CB504460D4612A0FD
:102AF000006801900020009044F040008DF8040030
:102B000000200E4908609DF80400FFF783FF8DF850
:102B100000009DF80500FFF77DFF8DF801009DF88E
:102B20000100287001200649C1F8B002022000F01F
:102B3000A1F900207CBD000000FF0000B0824042EF
:102B40000080404238B504460D46002000908DF8C4
:102B500000408DF801500B4908609DF80000FFF718
:102B600059FF9DF80100FFF755FF022000F082F9A0
:102B700001200549C1F8B002022000F07BF90020D5
:102B800038BD0000B0824042008040420146481EED
:102B9000B0F1807F01D301207047481E4FF0E02242
:102BA0005061FF20044A107000204FF0E022906135
:102BB000072010610020EFE723ED00E0014609B98E
:102BC00000207047C8B220B1C8B20E4A105C401C49
:102BD000F7E701F47F4028B10A48C1F30722805C7F
:102BE0000930EEE701F47F0028B10648C1F307423F
:102BF000805C1130E5E7034800EB11600078193084
:102C0000DFE700005A4D000803490868884201D0F8
:102C1000012070470020FCE7B00000102DE9FC5FA8
:102C200004468B4615461E46DDE90C9ADDE90E7812
:102C300004F114004060006000BF1C346560A660B1
:102C4000C4F80C90A4F810A0228A2321E06800F0B8
:102C50005DFFB4F810C0E36863441A1F0E4BD4E95B
:102C6000010100F06FFD2060A7766776C4F82C8024
:102C7000C4F83080002060612076206660661C3CCD
:102C800000902346054A2146019004F1500001F0CE
:102C9000E1FC0020BDE8FC9F41420008814400089F
:102CA0002DE9F04704460E4617469846DDF8209079
:102CB00084F80990607A20F001006072E661276272
:102CC0000020A062C4F82480002506E004F114016D
:102CD00001EBC50000F0E4FD6D1C012DF6DBBDE845
:102CE000F08710B50246002001460EE002F1140301
:102CF00003EBC100D0E900436360D0E900342360F6
:102D00004060006000BF481C01460129EEDB10BD99
:102D100010B540F225511148FEF748FDE8B10F48C3
:102D20008088C4B20E48008800F40040A8B90C485E
:102D30000088462808DA0A4801880088401C084AAA
:102D400010800848445408E00548008840F40040DA
:102D50000349088001200449087010BD001001409B
:102D600000000020081000200200002010B540F2F2
:102D700026610748FEF70DFD40B9002240F22661AA
:102D80000348FEF73DFD00200249087010BD000019
:102D90000010014003000020054800680549B0FB11
:102DA000F1F00549086002200449086070470000FE
:102DB0000000001040420F00380000203C000020BE
:102DC0002DE9F04104464FF0E02040694FF0E0214A
:102DD0008969471A002500261F48007858B31F4804
:102DE0000068844228D31D480068B4FBF0F085B227
:102DF0001A480068B4FBF0F100FB11441848006861
:102E0000B7FBF0F004EB4401C1EBC41100EBC106C9
:102E10001248006800EB4001C1EBC010B6EBC00FD8
:102E20000FD9681C85B20D48006800EB4001C1EB6A
:102E3000C010A6EBC00604E000254FF47A7004FB36
:102E400000F61DB1284601F0F5F900E000BF30465C
:102E500000F010F8BDE8F081400000203C000020A8
:102E60003800002010B500F021FB10BD10B500F0B7
:102E70002DFB10BD2DE9F047074600264FF0E0205E
:102E8000D0F814901048006807FB00F8FFF7EAFF3D
:102E90004FF0E020856911E04FF0E0208469AC42FA
:102EA0000CD0AC4202D2281B064403E0A9EB04007C
:102EB000284406442546464500D300E0ECE700BF21
:102EC000FFF7D4FFBDE8F0873800002070B5054655
:102ED0000E4600242146641C6E5426222146641CA2
:102EE0006A548A4802782146641C6A544278214612
:102EF000641C6A5482782146641C6A54C278214654
:102F0000641C6A548088C0F307222146641C6A54FA
:102F10007E4802792046611CCCB22A547C48027853
:102F20002046611CCCB22A54794842782046611C64
:102F3000CCB22A54764882782046611CCCB22A54FE
:102F40007348C2782046611CCCB22A5470488088ED
:102F5000C0F307222046611CCCB22A546C48027987
:102F60002046611CCCB22A546A4802782046611C73
:102F7000CCB22A54674890ED010ABCEEC00A10EEAC
:102F8000100AC0F307222046611CCCB22A546148C3
:102F900090ED010ABCEEC00A10EE100AC2B2204643
:102FA000611CCCB22A545B4890ED020ABCEEC00A08
:102FB00010EE100AC0F307222046611CCCB22A543E
:102FC000544890ED020ABCEEC00A10EE100AC2B2DC
:102FD0002046611CCCB22A544F4802782046611C1E
:102FE000CCB22A544C4890ED010ABCEEC00A10EE57
:102FF000100A4FF47A714843020E2046611CCCB28D
:103000002A54454890ED010ABCEEC00A10EE100AA1
:103010004FF47A714843C0F307422046611CCCB29A
:103020002A543D4890ED010ABCEEC00A10EE100A89
:103030004FF47A714843C0F307222046611CCCB29A
:103040002A54354890ED010ABCEEC00A10EE100A71
:10305000E8214843C2B22046611CCCB22A542E4813
:103060004088C0F307222046611CCCB22A542A486B
:1030700082782046611CCCB22A5428480278204627
:10308000611CCCB22A54254842782046611CCCB23F
:103090002A54224882782046611CCCB22A541F4808
:1030A000C2782046611CCCB22A541C4802792046C2
:1030B000611CCCB22A541A4802782046611CCCB25A
:1030C0002A54174842782046611CCCB22A5414482E
:1030D00082782046611CCCB22A541148C27820461E
:1030E000611CCCB22A540E4802792046611CCCB235
:1030F0002A5421462846FDF7AFF92855EE21601CD9
:10310000C0B204462954601CC0B270BD80000020CB
:10311000860000209C4F00208C000020940000209E
:103120009A00002015E000200A49086001200A49A1
:10313000C1F8A4024FF47A70FFF742FE012005495E
:10314000086000200449C1F8A4024FF47A70FFF728
:1031500037FEE8E7A80243420000434208E00024AB
:10316000002540F6B830FFF72BFEFDF72BFE00BF21
:10317000F5E700007FB50024FDF7A4F80546FDF74C
:1031800075FCFDF793FC00201D49086003E04FF437
:103190007A70FFF76FFE2046611C8CB2B0F57A7F23
:1031A000F5DB01201649086016A000F05BFB2846FD
:1031B000FDF78CF8142005214FF48062134BCDE904
:1031C0000032CDE902100023114A12A1134801F088
:1031D000BFF8124801F01AF9142004210A02104B1A
:1031E000CDE90032CDE9021000230E4A0EA11048AD
:1031F00001F0AEF80E4801F009F9002004B070BDEE
:10320000A40243427265736574210A00A80100207C
:10321000253100086C65643000000000A00000202B
:10322000A80500205D3100086C65643100000000D5
:103230002401002010B5044600F02AF9FFF79AFF98
:1032400010BD000030B51A4C436824681919884233
:1032500015D04B889BB9174B1B6899420FD0164B62
:103260001B688B4201D1144B18604B684360104BB4
:103270001B68C31A0E4D4C682D682C44A3600C4C7F
:10328000836824681A19824211D053887BB90A4B8B
:103290001B68834201D1084B1A6043685360044B9A
:1032A0001B68D31A024D44682D682C44A36030BDBE
:1032B000380000103C000010400000102DE9F04FD5
:1032C00085B00D469C46DDE90F740E9B04F0400866
:1032D000B8F1000F02D0DFF8688101E0DFF8648107
:1032E000CDF8008004F01008B8F1000F01D024F0F0
:1032F000010404F00108B8F1000F02D04FF03008CB
:1033000001E04FF02008C246002604F00208B8F1A0
:10331000000F11D0002A02DA2D2652420CE004F0F0
:103320000408B8F1000F01D02B2605E004F00808CE
:10333000B8F1000F00D02026002142B94FF0300B29
:103340008846491C0DF1040909F808B01DE01AE08F
:10335000E146B9F10A0F08D14FF00A0BB2FBFBFEB0
:103360000BFB1E28B2FBFBF202E002F00F08120971
:1033700000BFDDF8009019F808B08846491C0DF12F
:10338000040909F808B0002AE2D1B94200DD0F466D
:10339000DB1B04F01108B8F1000F10D116B1002B9F
:1033A00000DD5B1E06E0A84203D84FF0200880F83D
:1033B0000080401CB3F10008A3F10103F3DC26B147
:1033C000A84201D806705B1E401C04F01008B8F13A
:1033D000000F0AD104E0A84201D880F800A0401CE8
:1033E000B3F10008A3F10103F5DC06E0A84203D81D
:1033F0004FF0300880F80080401CB8467F1E88459A
:10340000F4DC08E0A84205D80DF1040818F80180A2
:1034100080F80080401CB1F10008A1F10101F1DC4D
:1034200006E0A84203D84FF0200880F80080401C36
:10343000B3F10008A3F10103F3DC05B0BDE8F08FA0
:103440006B4E00085A4E00081CB5142000904FF433
:10345000006300220449019004A000F0C3FE04466A
:10346000204600F0D3FF1CBD353200086D61696E47
:103470000000000010B5044C02E020688047241DC5
:1034800002488442F9D310BD7C4F0008804F0008E9
:1034900010B5044C02E020688047241D0248844295
:1034A000F9D310BD804F0008844F000810B5FCF719
:1034B00009FF044604480088401C00B20249088005
:1034C0002046FCF703FF10BDA000001010B5FCF76C
:1034D000F9FE04460B480088401E00B209490880E6
:1034E0000846B0F90000002807DC002008802046CC
:1034F000FCF7ECFE00F09CFB02E02046FCF7E6FE49
:1035000010BD0000A000001070B5054605B970BDE3
:1035100016480068854203D315480068854200D3E9
:10352000F5E7A5F10C044FF0FF31124800F062FC02
:10353000002060804FF4F55020800F4800688442DE
:1035400001D20D480460094960680968611A401A8F
:103550000A490968081A094908602046FFF772FEFF
:10356000044800F02AFC00BFD1E70000380000103A
:103570003C000010D0020010400000104800001075
:1035800000487047902F002000487047904F00205F
:1035900070B5FDF77BFF114800684FF4FA71B0FB7E
:1035A000F1F42046FFF7F2FAFFF7F6FB01200C4991
:1035B00008704FF4A060FDF79DFC4FF4E13001F07E
:1035C00071FBFFF757FFFFF7DFFF0446FFF7D8FF58
:1035D0000546214600F002FD70BD0000000000100D
:1035E0004000002070B50446FCF76CFE054619E06B
:1035F00020780A280AD10D210E48FEF791F900BF64
:1036000080210C48FEF7C5F80028F9D014F8011BFA
:103610000848FEF785F900BF80210648FEF7B9F893
:103620000028F9D020780028E2D12846FCF74EFE89
:1036300070BD0000004C004070B504461948006899
:1036400038B12046174909688847054605B970BD55
:1036500000BF15A0E16900F005F917A0A16900F00D
:1036600001F919A0616900F0FDF81BA0216900F0C3
:10367000F9F81DA0E16800F0F5F81FA0A16800F0BE
:10368000F1F821A0616800F0EDF823A0216800F0B6
:10369000E9F800F093FE0546294623A000F0E2F881
:1036A00000BFFEE7340000107073723A20307825B6
:1036B0003038780A000000002070633A2030782506
:1036C0003038780A00000000206C723A20307825EB
:1036D0003038780A000000007231323A2030782504
:1036E0003038780A000000007230333A20307825F4
:1036F0003038780A000000007230323A20307825E5
:103700003038780A000000007230313A20307825D5
:103710003038780A000000007230303A20307825C6
:103720003038780A000000006861726420666175B4
:103730006C74206F6E207468726561643A20257322
:103740000A000000F0B504460D461646301D20F074
:10375000070044380146002203E00D4F41F8227073
:10376000521C112AF9D34D624FF0000CC1F828C049
:10377000C1F82CC0C1F830C0C1F834C08B63CC6331
:103780004FF0807CC1F840C000270F60F0BD000002
:10379000EFBEADDE10B5FCF795FD04460448007899
:1037A000401C034908702046FCF790FD10BD000046
:1037B0007E00002010B5FCF785FD04460448007823
:1037C000401E034908702046FCF780FD10BD000034
:1037D0007E00002070B504462068A0F1140528463C
:1037E00000F0D0FD002070BD2DE9F04105460C46EB
:1037F0009046204600F029FEB8F1000F03D0B8F142
:10380000010F23D105E004F11401284600F060F80F
:103810001CE02E680FE0A6F1140794F8350097F825
:103820003510884206DA04F1140107F1140000F0A3
:103830004FF802E03668AE42EDD100BFAE4204D18F
:1038400004F11401284600F043F800BF00BF002037
:10385000BDE8F08110B5044604F1140000F01AF838
:10386000002010BD0FB438B505A800907F2108488E
:10387000009B049A00F0C0FF04467F2C00D97F24EF
:103880000348FFF7AFFE0020009038BC5DF814FB42
:103890005002001040600060704740600060704758
:1038A0004060006070470268516002680A60016011
:1038B000486070470268516002680A6001604860B1
:1038C00070470268516002680A6001604860704792
:1038D0004268116042684A60416008607047014672
:1038E0000868884201D1012070470020FCE70146AA
:1038F0000868884201D1012070470020FCE7D0E928
:1039000000215160D0E900121160406000607047F2
:10391000D0E900215160D0E90012116040600060E0
:10392000704700002DE9F041054615B90020BDE8BB
:10393000F081E81C20F003054E480068854201D95B
:103940000020F4E70C2D00D20C254FF0FF314A483F
:1039500000F050FA4948006849490968461A7EE073
:103960004748006884196088002874D106F10C006B
:103970006168081AA8426ED306F10C006168091A42
:1039800005F11800814230D306F10C0000EB050868
:103990003B48006800EB08074FF4F55038800020E2
:1039A000788060687860BE60C4F804800120608020
:1039B0003048796800680C30814205D03049786819
:1039C00009680844C0F808802E48016805F10C0019
:1039D00008442C4908602C4800680968884219D2BC
:1039E000284800682849086014E0012060802449C4
:1039F00060680968611A401A224909680844214927
:103A00000860214800680968884203D21D480068A0
:103A10001D4908604FF4F550208018480068844222
:103A200012D107E015480068406815490968084444
:103A30001249086011480068408828B10F480068A2
:103A4000124909688842EDD10B4800F0B6F904F13B
:103A50000C006CE7FFE70A480068304446680548F8
:103A60000068401BB0423FF67BAF034800F0A5F969
:103A700000205CE744000010D0020010400000105D
:103A800038000010480000104C0000103C000010EE
:103A90002DE9F0410F46164604463D463346102BAD
:103AA00028D305F0030C04F003084CEA080CBCF121
:103AB000000F1FD121462A4610E052F804CB41F8EE
:103AC00004CB52F804CB41F804CB52F804CB41F8B4
:103AD00004CB52F804CB41F804CB103B102BECD2B2
:103AE00004E052F804CB41F804CB1B1F042BF8D29E
:103AF0000C46154603E015F801CB04F801CB5FEA4C
:103B0000030CA3F10103F6D1BDE8F081F0B50C463A
:103B10000546E6B2042A15D300F0030797B901461B
:103B200046EA062343EA034304E008C108C108C18A
:103B300008C1103A102AF8D201E008C1121F042A65
:103B4000FBD20D4601E005F8016B1700A2F101025E
:103B5000F9D1F0BD2DE9F04105460F460F4800EBC5
:103B60000516F068FFF7DEFE044614B90020BDE834
:103B7000F08125720020607208223946204600F04C
:103B800012FAFCF79FFB804604F10C01301DFFF791
:103B90008AFE4046FCF79AFB2046E8E750000010FA
:103BA00070B50446FCF78EFB054604F10C00FFF7E8
:103BB000A6FE2846FCF78AFB2046FFF7A5FC70BD51
:103BC00070B50446FCF77EFB054604F10C00FFF7D8
:103BD00096FE2846FCF77AFB70BD00002DE9F04107
:103BE00004460D4616460C4800EB051745F08000CC
:103BF000207208223146204600F0D5F9FCF762FB1E
:103C0000804604F10C01381DFFF74DFE4046FCF7DD
:103C10005DFBBDE8F0810000500000100146087A0D
:103C200000F0800008B1012070470020FCE7000090
:103C30002DE9F041FCF746FB80461948008850BB4F
:103C400018480068FEF7BAFF471E1749C85DFEF71F
:103C5000B5FF00EBC700461E144850F83600A0F12F
:103C6000140413480068844214D012490E7010489E
:103C7000056804601048007830B904F11C0105F1B2
:103C80001C00FCF726FB05E004F11C0105F11C00FB
:103C9000FCF71FFB00BF4046FCF718FBBDE8F081B6
:103CA000A0000010AC000010D0040010F0020010C2
:103CB000A4000010A80000107E00002070B504468B
:103CC000FCF700FB0546012084F8340094F8352009
:103CD000104B03EBC20004F114014268116042680A
:103CE0004A604160086000BF94F837000A49085CE8
:103CF00094F83810084394F83710074A505407498D
:103D0000E06B09680843054908602846FCF7DEFABD
:103D100070BD0000F0020010D0040010AC000010D4
:103D200070B50446FCF7CEFA054604F11400D0E95C
:103D300000215160D0E9001211604060006000BFB6
:103D400094F83510104A02EBC1000168814201D19C
:103D5000012100E0002199B114F8370F0B49085CEC
:103D6000617888432178094A505414F8370911467C
:103D7000085C28B90648E16B00688843044908607C
:103D80002846FCF7A3FA70BDF0020010D004001022
:103D9000AC0000102DE9F04104460D4616461F46C2
:103DA0002A4601212046FFF719FF2046FFF752FD62
:103DB000A68367720020BDE8F08170B50446002537
:103DC000FCF780FA064604F11400FFF788FD28B9D5
:103DD00004F11400FFF7FEFC012502E0A08B401C5B
:103DE000A0833046FCF772FA012D01D1FFF720FFC6
:103DF000002070BD73B50546FCF764FA0646A88B33
:103E0000002806DDA88B401EA8833046FCF75EFA2A
:103E100028E0019828B93046FCF758FA6FF0010005
:103E20007CBD00F0CBFA0446002020636A7A21466C
:103E300005F11400FFF7D8FC0198002809DD01AA5C
:103E4000002104F1500000F0D9FB04F1500000F013
:103E500027FC3046FCF73AFAFFF7EAFE206B08B180
:103E6000206BDDE70020DBE708B509A0FFF7FAFCCF
:103E70000AA0FFF7F7FC12A0002301220221009004
:103E800012A0FFF7EFFC19A0FFF7ECFC08BD000043
:103E90000A205C207C202F0A000000002D205254B4
:103EA000202D2020202020546872656164204F70EE
:103EB00065726174696E672053797374656D0A0069
:103EC0004F6374203233203230313800202F207C71
:103ED000205C202020202025642E25642E256420AF
:103EE0006275696C642025730A000000203230304E
:103EF00036202D203230313620436F707972696759
:103F000068742062792072742D746872656164200F
:103F10007465616D0A00000070B500F013FB064681
:103F2000FFF7C4FA1A4805682BE0A5F11404A06A4B
:103F3000301A6FF00041884222D22D682046FEF7E9
:103F4000D0FEFFF7C3FAD4E90710884700F0FAFA69
:103F50000646FFF7ABFA607A00F0020058B1607ACB
:103F600000F0010038B1607A20F001006072204654
:103F700000F096FB05E0607A20F00100607200E03E
:103F800002E003488542D0D100BFFFF79FFA70BD21
:103F9000C000001001460A4600E0521C10780028BC
:103FA000FBD1501A704770B50346A2B118460C46B3
:103FB00000BF14F8016B00F8016B3EB902E0002568
:103FC00000F8015B551E2A00F9D102E0551E2A00B7
:103FD000EFD100BF00BF184670BD00002DE9F041D1
:103FE00005460E46E81C20F0030726F00308B8F14A
:103FF000180F09D9A8F11800B84205D3A8EB07009B
:1040000018381E49086006E0324629461CA0FFF712
:1040100029FCBDE8F0812948076004684FF4F55099
:104020002080164800680C3060600020A06060802E
:104030002249606809680844214908604FF4F55036
:104040000968088001201E49096848800B480068FB
:104050000C301B4909684860084800680C30184952
:10406000096888600023012216A11848FFF792FE14
:10407000124800681649086000BFCAE744000010F3
:104080006D656D20696E69742C206572726F722087
:10409000626567696E20616464726573732030784D
:1040A00025782C20616E6420656E642061646472E2
:1040B00065737320307825780A00000038000010FE
:1040C0003C0000106865617000000000D002001024
:1040D0004000001010B500200E490880002405E0C3
:1040E0000D4901EBC400FFF7D8FB641C3C2CF7DB47
:1040F0003B200A4908700020094908600949086006
:10410000202200210848FFF701FD0848FFF7C5FB02
:1041100010BD0000A0000010F0020010A800001068
:10412000A4000010AC000010D0040010B00000107B
:1041300070B50C480068FEF741FD451E0A49485D10
:10414000FEF73CFD00EBC500461E084850F836005F
:10415000A0F114040648046004F11C00FCF7FFF809
:1041600070BD0000AC000010D0040010F002001080
:10417000A400001010B5002405E0044901EBC400C0
:10418000FFF78EFB641C002CF7D010BDB8000010A8
:104190001FB5002405E00D4901EBC400FFF780FBCB
:1041A000641C002CF7D00A2003214FF40072084B46
:1041B000CDE90032CDE902100023064A06A10848E5
:1041C00000F0C6F8064800F021F91FBDC00000103D
:1041D00074050010A144000874696D657200000048
:1041E000F00400102DE9FF5F06460F4690461D467D
:1041F000DDE90EAB31460020FFF7ACFC8146B9F19A
:10420000000F03D1002004B0BDE8F09F2846FFF75F
:1042100089FB044624B94846FFF7C2FC0020F2E7B8
:1042200043463A46314648468DE8300CFEF7F6FCE8
:104230004846E8E710B50446204600F0C5F810BD32
:1042400070B512480468FCF73DF805462046FFF7B4
:1042500067FD042084F8340004F1500000F0EAF90E
:104260002046FFF7DBFC012805D1E06F18B9204696
:10427000FFF7A6FC04E004F114010548FFF71AFB60
:104280002846FCF723F8FFF7D3FC70BDA40000100C
:10429000B000001001E000F001F8FCE770B530E07C
:1042A000FCF710F80546FEF7AFFCE0B118480068CF
:1042B000A0F1140404F11400D0E900215160D0E908
:1042C000001211604060006000BFE06F10B1204636
:1042D000E16F88472046FFF7A1FC012807D1284657
:1042E000FBF7F4FF70BD2846FBF7F0FFFAE728461E
:1042F000FBF7ECFFA06AFFF707F92046FFF750FC39
:1043000000BFFEF781FC0028CAD100BFEAE7000029
:10431000B00000101FB520203B21C200074BCDE9A3
:104320000032CDE902100023054A06A1074800F03B
:104330000FF8064800F06AF81FBD00005001001099
:10434000954200087469646C65000000CC000010A0
:104350002DE9FF5F05460C4616461F46DDE910AB0A
:10436000DDE90E89224600212846FFF737FC3B464F
:104370003246214628468DE8000FFEF74FFC04B078
:10438000BDE8F09F70B5044694F83400022802D0CE
:104390004FF0FF3070BDFBF795FF054604F11400A8
:1043A000FFF7B6FA04F1500000F00EFA2846FBF7CA
:1043B0008DFF2046FFF782FC0020EBE701480068F4
:1043C00070470000A400001031B5FBF77BFF0546E5
:1043D0000D480468204600F038F86A46002104F1D0
:1043E000500000F00BF904F1500000F059F9284694
:1043F000FBF76CFFFFF71CFC206B801C08B900204A
:104400002063002038BD0000A400001010B5044651
:104410003434A07860706078C010E070E1780120DA
:104420008840A060607800F007010120884020717A
:10443000022004F834092046FFF7A4FFFFF7BEFF6F
:1044400008B1FFF7F5FB002010BD70B5044694F8E5
:104450003400012802D04FF0FF3070BDFBF732FF6F
:104460000546022084F834002046FFF759FC04F189
:10447000500000F0A9F92846FBF728FF0020ECE7E0
:1044800070B5044625466FF00100286305F114005D
:10449000FFF73EFA2846FFF711FCFFF7C9FB70BD96
:1044A0001CE00F4800F0EDF80446601C38B9FFF737
:1044B00085FF0546FFF7C9FFFFF7BAFB0CE000F0E8
:1044C00041F80546601B6FF00041884203D2641B2F
:1044D0002046FFF7AFFE00BFFFF71EFDE1E700003B
:1044E000C000001070B5FBF7EDFE054613480468E8
:1044F00094F8340001281CD1D4E90510814218D069
:1045000004F11400FFF704FA94F835200C4B03EB88
:10451000C20004F114014268116042684A604160BF
:10452000086000BF2846FBF7D1FEFFF781FB0020A3
:1045300070BD2846FBF7CAFE0020F9E7A400001072
:10454000F0020010014800687047000024000010CD
:1045500010B50A480068401C08490860FFF72EFFA4
:104560000446E06C401EE064E06C18B9A06CE064A6
:10457000FFF7B8FF00F004F810BD000024000010A1
:1045800070B5FFF7DFFF0546FBF79CFE064628E007
:1045900019480068A0F11404A06A281A6FF00041BD
:1045A00088421DD22046FEF79CFBD4E907108847BD
:1045B000FFF7C8FF0546607A00F0020058B1607A44
:1045C00000F0010038B1607A20F0010060722046EE
:1045D00000F066F805E0607A20F00100607200E00B
:1045E00004E00548FFF783F90028D1D000BF30462A
:1045F000FBF76CFE70BD0000B8000010034649B127
:10460000012904D0022908D0032910D10AE0586AF0
:1046100010600CE01068586209E0587A20F002003F
:10462000587204E0587A40F00200587200BF00BF90
:104630000020704770B50446FBF744FE054620464F
:10464000FEF74FFB2846FBF741FE2046FFF7B8FA7E
:10465000002070BD2DE9F84307460C4615461E465E
:10466000DDE90889224604213846FFF7B7FA4346B8
:10467000324629463846CDF80090FEF711FBBDE8DA
:10468000F88370B504462046FFF731F910B14FF0BA
:10469000FF3070BD2068A0F11405A86AF9E700009A
:1046A0002DE9F8430546FBF70DFE80462846FEF748
:1046B00018FB687A20F0010068724046FBF706FE9E
:1046C000FFF740FF696A0844A862FBF7FBFD8046DC
:1046D000687A00F0040008B1374E00E0374E0096CB
:1046E00000242AE019E05DF824201168142202EB6E
:1046F000C402881A826AAB6AD21A00D108E0826AC0
:10470000AB6AD21A6FF000439A4200D20CE000BFAD
:104710005DF8240000684DF824005DF8240006EBE5
:10472000C40149688842DED100BF2CB15DF8240085
:104730000830611C4DF82100641C002CD2D02048A8
:104740000068401C1E4908600846076805F114010E
:104750000098FFF7B6F8022412E007F0030060B9F2
:10476000C4F1010305F1140202EBC301C4F101021B
:104770005DF82200FFF7A5F800E003E0BF08641C25
:10478000012CEAD900BF687A40F001006872404607
:10479000FBF79CFD687A00F0040048B1094890F8E6
:1047A0003400012804D00748FFF7ECFDFFF740FA7A
:1047B0000020BDE8F8830000C0000010B800001021
:1047C000C8000010F004001070B50446607A00F0D4
:1047D000010010B94FF0FF3070BDFBF773FD0546C7
:1047E0002046FEF77EFA2846FBF770FD607A20F03F
:1047F000010060720020EFE72DE9FF4F89B080468D
:1048000044460A984044461E464504D24FF0FF36BF
:10481000A6EB08000A906FE10B980078252806D0D7
:10482000B44202D80B9800782070641C61E1002526
:1048300026E00B98401C0B900B9800782D2802D195
:1048400045F010051CE00B9800782B2802D145F0AC
:10485000040515E00B980078202802D145F00805E2
:104860000EE00B980078232802D145F0200507E0E0
:104870000B980078302802D145F0010500E000E0F7
:10488000D7E700BF4FF0FF370B98007830380A2881
:1048900004D20BA800F05FF907460EE00B980078F1
:1048A0002A280AD10B98401C0B900C9880C80C90B9
:1048B000002F02DA7F4245F010054FF0FF390B98C8
:1048C00000782E281CD10B98401C0B900B98007878
:1048D00030380A2804D20BA800F03DF981460AE0DE
:1048E0000B9800782A2806D10B98401C0B900C9846
:1048F00050F8049B0C90B9F1000F01DA4FF0000959
:10490000002004900B980078682803D00B9800785A
:104910006C2805D10B98007804900B98401C0B90E4
:104920000A2005900B9800786F2875D00CDC63285E
:1049300013D004DC252870D058286FD18DE064286E
:104940006DD06928F9D18FE070286AD0732825D0FE
:10495000752878D07828F0D182E005F0100040B9B1
:1049600004E0B44201D820202070641C781E071E89
:10497000F7DC0C9810F8041B0C90C8B20790B442F6
:1049800001D807982070641C04E0B44201D82020AC
:104990002070641C781E071EF7DCAAE00C980068E3
:1049A00006900C98001D0C90069808B95AA0069025
:1049B0000698FFF7EFFA8346B9F1000F02DDCB4509
:1049C00000DDCB4605F0100048B904E0B44201D840
:1049D00020202070641C38467F1E5845F6DC0020DD
:1049E00008900BE0B44202D8069800782070641C4E
:1049F0000698401C06900898401C08900898584556
:104A0000F0DB04E0B44201D820202070641C38465A
:104A10007F1E5845F6DC6CE01CE015E028E022E043
:104A2000FFE7781C10B9082745F00105CDE90079AA
:104A300002950C9804C8102331460C902046FEF7CE
:104A40003DFC044655E012E0B44201D82520207018
:104A5000641C4EE0082005901DE045F0400500BFB5
:104A60001020059017E000BF45F0020500BF12E0DE
:104A7000B44201D825202070641C0B98007830B116
:104A8000B44202D80B9800782070641C02E00B98A6
:104A9000401E0B902DE000BF04986C2807D10C98A5
:104AA00050F804AB0C9005F00200B8B116E0049881
:104AB00068280BD10C9830F8041B1FFA81FA0C906F
:104AC00005F0020050B10FFA8AFA07E00C9850F88E
:104AD00004AB0C9005F0020000B100BFCDE90079F5
:104AE0000295524631462046059BFEF7E7FB0446F9
:104AF00000BF0B98401C0B900B98007800287FF4A7
:104B00008BAEB44201D8207001E000203070A4EBDD
:104B100008000DB0BDE8F08F284E554C4C29000020
:104B200000207047002070470020704710B5FBF749
:104B3000C9FBFEF72DFDFFF797F9FFF71BFBFFF70A
:104B4000C9FAFEF781FCFFF723FBFFF7E3FBFFF752
:104B5000EFFA002010BD0146002009E00B685A1C46
:104B60000A601A7800EB800302EB4302A2F13000E6
:104B70000A681278303A0A2AF0D3704770B50546B1
:104B8000002401222146641C6A540D222146641C23
:104B90006A541E48008802122146641C6A541B484D
:104BA00002782146641C6A5482782146641C6A5447
:104BB000C2782146641C6A5402792146641C6A54F6
:104BC00042792046611CCCB22A5410488279204692
:104BD000611CCCB22A540D48008902122046611C87
:104BE000CCB22A540948027A2046611CCCB22A541D
:104BF00021462846FBF730FC2855EE21601CC0B248
:104C000004462954601CC0B270BD0000904F0020C3
:104C100070B50546002404222146641C6A540D2206
:104C20002146641C6A541E48008802122146641CF6
:104C30006A541B4802782146641C6A5482782146D3
:104C4000641C6A54C2782146641C6A540279214665
:104C5000641C6A5442792046611CCCB22A54104824
:104C600082792046611CCCB22A540D480089021278
:104C70002046611CCCB22A540948027A2046611CA5
:104C8000CCB22A5421462846FBF7E6FB2855EE21F4
:104C9000601CC0B204462954601CC0B270BD000044
:104CA000904F002010B588B0044601210846FCF75B
:104CB00037F90121C804FCF743F9032006900220CC
:104CC0008DF81C0000208DF81D008DF81E000120BD
:104CD0008DF81F0006A91C48FBF75AFE0822002188
:104CE0001948FBF79DFE082201211748FBF798FEA3
:104CF00002940020ADF80C00ADF80E00ADF81000E5
:104D0000ADF814000C20ADF8120002A90F48FCF712
:104D10009DFD01210D48FCF727FD34208DF804008E
:104D200002208DF8050003208DF8060001208DF883
:104D3000070001A8FCF7A2F8012240F22551034820
:104D4000FCF75EFD08B010BD00000240004C0040C2
:104D50004FF04070E1EE100A7047000001000200C1
:104D60000100030001000200010004000100020034
:104D70000100030001000200010005000100020023
:104D80000100030001000200010004000100020014
:104D90000100030001000200010006000100020002
:104DA00001000300010002000100040001000200F4
:104DB00001000300010002000100050001000200E3
:104DC00001000300010002000100040001000200D4
:104DD00001000300010002000100070001000200C1
:104DE00001000300010002000100040001000200B4
:104DF00001000300010002000100050001000200A3
:104E00000100030001000200010004000100020093
:104E10000100030001000200010006000100020081
:104E20000100030001000200010004000100020073
:104E30000100030001000200010005000100020062
:104E40000100030001000200010004000100020053
:104E5000010003000100020001003031323334351B
:104E60003637383961626364656600303132333415
:104E7000353637383941424344454600008D971A4C
:104E8000A32E34B9CB465CD168E5FF721B968C012A
:104E9000B8352FA2D05D47CA73FEE46936BBA12C9A
:104EA0009518028FFD706AE75ED3C9442DA0BA370A
:104EB0008E031994E66B71FC45C8D25F6CE1FB76FA
:104EC000CF4258D5A72A30BD0489931E77FAE06DEA
:104ED000D45943CEBC312BA61F9288055AD7CD405A
:104EE000F9746EE3911C068B32BFA52841CCD65BCA
:104EF000E26F75F88A071D9029A4BE33D8554FC2BA
:104F00007BF6EC61139E8409B03D27AAC34E54D9A9
:104F100060EDF77A08859F12AB263CB1EE6379F419
:104F20004DC0DA5725A8B23F860B119CF57862EF89
:104F300056DBC14C3EB3A9249D100A87B43923AE79
:104F4000179A800D7FF2E865DC514BC6AF2238B569
:104F50000C819B1664E9F37EC74A50DD820F1598D9
:104F600021ACB63B49C4DE53EA677DF099140E8349
:104F70003AB7AD2052DFC548F17C66EB254B0008FF
:104F8000214B0008294B0008C84F000800000020F2
:104F9000A000000020020008685000080000001077
:104FA000CC0000002002000868500008A00000208B
:104FB000E05500003C02000834510008CC0000100D
:104FC000A80600003C0200080000000000000000ED
:104FD00000000000000000000000000000000000D1
:104FE00000000000000000000000000000000000C1
:104FF00000000000000000000000000000000000B1
:1050000000000000000000000000000000000000A0
:10501000000000000100000000000000000000008F
:105020000000000000000000000000000000000080
:1050300000000000E91900082919000835190008C6
:105040006C000020000000000000000000000000D4
:105050000000000000000000000000000000000050
:105060000000000000000000007A030A00000000B9
:105070000000000001020304060708090000000008
:1050800001020304010203040607080900000000EE
:105090000000000000000000000000000000000010
:1050A0000000000000000000000000000000000000
:1050B000000000000000000000000000540000108C
:1050C0005400001084000000010000006400001083
:1050D00064000010200000000200000074000010B6
:1050E0007400001020000000030000008400001085
:1050F0008400001030000000040000009400001044
:10510000940000102C0000000000000000000000CF
:10511000000000000000000000000000000000008F
:10512000000000000000000000000000000000007F
:04513000000000007B
:040000050800018965
:00000001FF
