:020000040800F2
:100000003858002085020008090F0008A5030008E1
:10001000050F0008950400082D46000800000000A8
:10002000000000000000000000000000311800087F
:100030001508000800000000F30200087D1A0008FF
:100040009F0200089F0200089F0200089F0200080C
:100050009F0200089F0200089F0200089F020008FC
:10006000190800089F0200089F0200089F0200086C
:100070009F0200089F0200089F0200089F020008DC
:100080009F0200089F0200089F0200089F020008CC
:100090009F0200089F0200089F0200089F020008BC
:1000A0009F0200089F0200089F0200089F020008AC
:1000B0009F0200089F0200089F0200089F0200089C
:1000C0009F0200089F0200089F0200089F0200088C
:1000D0009F0200083D1C0008511C0008D91C0008A4
:1000E0009F0200089F0200089F0200089F0200086C
:1000F0009F0200089F0200089F0200089F0200085C
:100100009F020008311600089F0200089F020008A5
:10011000B91B00089F0200089F0200089F02000808
:100120009F0200089F0200089F0200089F0200082B
:100130009F0200089F0200089F0200089F0200081B
:100140009F0200089F0200089F020008990F000804
:100150009F0200081D0500085D050008491D0008F4
:100160009F0200089F0200089F0200089F020008EB
:100170009F0200089F0200089F0200089F020008DB
:100180009F0200089F02000800F002F800F06AF8E1
:100190000AA090E8000C82448344AAF10107DA45E2
:1001A00001D100F05FF8AFF2090EBAE80F0013F0CA
:1001B000010F18BFFB1A43F001031847C476000073
:1001C000047700000A444FF0000C10F8013B13F0D4
:1001D000070408BF10F8014B1D1108BF10F8015BA0
:1001E000641E05D010F8016B641E01F8016BF9D193
:1001F00013F0080F1EBF10F8014BAD1C0C1B09D1EA
:100200006D1E58BF01F801CBFAD505E014F8016B5B
:1002100001F8016B6D1EF9D59142D6D370470000ED
:10022000103A24BF78C878C1FAD8520724BF30C822
:1002300030C144BF04680C607047000000230024F4
:1002400000250026103A28BF78C1FBD8520728BFE6
:1002500030C148BF0B6070471FB507F0AEF91FBD36
:1002600010B510BD00F0BCF81146FFF7F5FF00F027
:10027000EAF800F0DAF803B4FFF7F2FF03BC00F08D
:10028000DBF800000948804709480047FEE7FEE721
:10029000FEE7FEE7FEE7FEE7FEE7FEE7FEE7FEE736
:1002A00004480549054A064B70470000511B0008E9
:1002B00089010008385200203858002038540020A6
:1002C00038540020EFF3108072B6704780F3108826
:1002D0007047394A1368012B04D04FF001031360B3
:1002E000364A1060364A116036484FF0805101603E
:1002F0007047EFF3108272B62F48016821B34FF0B8
:10030000000101602D48016891B1EFF309811EF0F1
:10031000100F08BF21ED108B21E9F00F4FF0000402
:100320001EF0100F08BF012441F8044D0068016061
:1003300023490968096808C9B1E8F00F002B18BF04
:10034000B1EC108B81F3098882F310884EF0100E07
:10035000002B18BF2EF0100E4EF0040E70471849F7
:100360000860EFF3148222F0040282F31488134928
:100370004FF00000086010494FF00100086012487B
:100380004FF47F01D0F8002041EA020101600D48DE
:100390004FF0805101600D480068006880F30888C4
:1003A00062B67047EFF3098000B505F021F95DF8FA
:1003B00004EB4EF0040E70473000001028000010CF
:1003C0002C00001004ED00E020ED00E008ED00E05E
:1003D000704770477047000000487047D8510020B0
:1003E0007546FFF7F9FFAE4605006946534620F013
:1003F0000700854618B020B5FFF752FFBDE8204042
:100400004FF000064FF000074FF000084FF0000BD0
:1004100021F00701AC46ACE8C009ACE8C009ACE883
:10042000C009ACE8C0098D4670470446AFF30080B0
:100430002046FFF720FF000001491820ABBEFEE771
:1004400026000200704710B5FFF73CFF06F04AFB9C
:10045000002010BD70B504460D46002601200B4952
:1004600008602A462146202004F0E8FA06464FF4A8
:100470007A7004F0D7FC4FF47A7004F0D3FC0020BB
:100480000349C1F8A002304670BD0000A08241427D
:100490000080414200BFFEE710B50246002006E0A2
:1004A00013784340034CE05C521C4B1ED9B2002928
:1004B000F6DC10BD7277000870B5044605E01648FA
:1004C000056805F0450000B100E0F8E700BF042032
:1004D00001F0A2F820B1042001F098F8032070BDCB
:1004E000012001F099F820B1012001F08FF80120DE
:1004F000F5E7094824380068A04201D01020EEE753
:1005000040F2FF5001F082F80348203800680821CB
:100510000840C0B2E3E70000342C014010B505F0FC
:1005200015F90B490B4800F015F968B1084909485D
:1005300000F030F80021074800F046F8012240F2B0
:100540002661054801F05EFC05F010F910BD0000C1
:1005500000802020A06402400014014010B50A4928
:100560000A4800F0F7F868B10749084800F012F8A7
:100570000021064800F028F8012240F226610448D4
:1005800001F040FC10BD000000800028B86402406B
:10059000001001400246094B9A4201D2084801E08E
:1005A0000648103801F000531BB1064B0B40C360E6
:1005B00002E0044B0B40836070470000106402406F
:1005C000006002407D0F7D0F21B1026842F0010200
:1005D000026003E0026822F001020260704700003E
:1005E000016821F00101016000210160416081602A
:1005F000C1600161212141614A49884204D13D2104
:10060000484A103A91608CE046491831884205D139
:100610004FF47461434A103A916082E041493031AD
:10062000884205D14FF474113E4A103A916078E047
:100630003C494831884205D14FF07461394A103A3B
:1006400091606EE037496031884204D13649354ABD
:10065000103AD16065E033497831884204D133499A
:10066000304A103AD1605CE02E499031884204D182
:100670002F492C4A103AD16053E02A49A8318842C8
:1006800005D14FF03D51274A103AD16049E0294940
:10069000884204D13D21274A083A116041E02549AA
:1006A0001831884205D14FF47461224A083A11602A
:1006B00037E020493031884205D14FF474111D4A8A
:1006C000083A11602DE01B494831884205D14FF0AE
:1006D0007461184A083A116023E016496031884273
:1006E00004D11149134A121F11601AE011497831DF
:1006F000884204D10D490F4A121F116011E00D49C3
:100700009031884204D10A490A4A121F116008E058
:100710000849A831884204D14FF03D51054A121FC3
:1007200011607047106002403D000020400F002023
:1007300000003D2010640240014600200A6802F0DB
:1007400001020AB1012000E000207047014648681C
:1007500080B2704770B50246002000240025124E7A
:10076000B24201D2114B01E00F4B103B104E0E4034
:1007700036B11E2606EAD124166806EA040502E010
:10078000566906F0800501F000560EB15C6800E085
:100790001C68084E344004EA010616B10DB1012070
:1007A00000E0002070BD00001064024000600240C4
:1007B0003C0F3C0F7D0F7D0F10B500220268134BDC
:1007C0001A40CC680B6823434C6923438C6923434C
:1007D000CC6923430C6A23434C6A23438C6A23432A
:1007E0004C6B23438C6B23431A430260426922F013
:1007F0000702D1E90B3423431A4342610B6943607A
:100800004B6883608B68C36010BD00003F801CF0A4
:1008100041607047704700001CB5002001900090B7
:1008200004F094FF01A9112004F0DAF89DF8040007
:1008300000F00100F8B10021032004F03FF96946FF
:10084000082004F0CDF89DF8000000F0840030B1DD
:100850000121084604F032F90120514908709DF841
:10086000000000F0030030B101204E4908704E49ED
:10087000002004F089F89DF8040000F00200002830
:100880005AD00024002000906946182004F0A8F8EF
:100890009DF8000000F0840030B10221012004F036
:1008A0000DF901203E4948709DF8000000F001005C
:1008B00000B300203D490860DF2003F0A9FF0020BD
:1008C0003B4908700FE0FF2003F0A2FF39490A8876
:1008D0000988491C374B19803749885434480078B7
:1008E000401C3349087032480078C828EBDB0120EF
:1008F0002E4908609DF8000000F00200D8B12E4893
:100900002C4A12888118102004F03EF8044600207A
:10091000284909882144284A505410460078242840
:1009200006D10021012004F00DF801201D49487076
:1009300000202049088000BF9DF8040000F004005A
:1009400008B3002000906946282004F049F89DF87B
:10095000000000F0840030B10421012004F0AEF862
:1009600001200F4988709DF8000000F0020050B18E
:1009700001200C4988701149202004F005F800215D
:10098000022003F0DFFF042000F01CF804F0EEFE6C
:1009900004484078012802D1094805F0EAF91CBD55
:1009A000580000205C000020502F0020B082404200
:1009B0006200002060000020942C0020022F002004
:1009C000942E00200149086070470000143C01404B
:1009D000002123498279002A3AD00A461268036826
:1009E0009A430B461A600A1D126803689A430B1D4E
:1009F0001A60027911440A6803681A430A60184AA7
:100A00000832126803689A43154B08331A601A1D9E
:100A1000126803689A43124B0C331A604279102A09
:100A20000ED11A1F126803681A430D4B08331A605F
:100A30001A1D126803681A43094B0C331A600DE043
:100A40000749427911440A6803681A430A6005E0BD
:100A5000027911440A6803689A430A6070470000EB
:100A6000003C0140F0B50A4600210023002400BFED
:100A70003DE0012505FA01F3156805EA03049C42EF
:100A800034D105684F000326BE40B5430560157993
:100A90004E00B5400668354305601579012D02D03A
:100AA0001579022D16D185684F000326BE40B54347
:100AB000856055794E00B540866835438560456848
:100AC00001268E40B5434560456896798E40B6B2A2
:100AD00035434560C5684F000326BE40B543C56039
:100AE000D5794E00B540C6683543C560491C10290C
:100AF000BFD3F0BDF0B5002300244D07ED0E02FA80
:100B000005F3CE1000F1200555F826504E07F70EDC
:100B10000F26BE40B543CF1000F1200646F82750FF
:100B2000CE1000F1200555F8265045EA0304CE10FA
:100B300000F1200545F82640F0BD01837047000014
:100B40001CB50121402000F039FA4FF4C06000903C
:100B500001208DF8040000208DF806008DF80500B6
:100B600001208DF8070069460448FFF77BFF4FF42A
:100B7000C0610248FFF7E1FF1CBD00000018024001
:100B800000B587B00121084600F018FA01212020A5
:100B900000F014FA0121080300F040FAE02005906B
:100BA00002208DF8180000208DF81A0003208DF81F
:100BB000190001208DF81B0005A92048FFF752FFFE
:100BC000052211461D48FFF795FF052206211B4807
:100BD000FFF790FF052207211848FFF78BFF01213F
:100BE000080300F02BFA00214FF4805000F026FAA1
:100BF0000020ADF800004FF48270ADF80200002034
:100C0000ADF80400ADF80600ADF808004FF4007030
:100C1000ADF80A003820ADF80C000020ADF80E0049
:100C20000720ADF810006946054800F0E3FD0121FA
:100C3000034800F0C5FD07B000BD00000000024001
:100C40000030014070B50446002506E0681CC0B2C3
:100C50000546C82801DD012070BD0221054800F0CD
:100C6000BBFD0028F2D02146024800F0C1FD002063
:100C7000F2E70000003001403EB541F6FF7401216B
:100C8000080700F0ABF9012000F092F9002000F015
:100C90007FFB45F25001884233D0012000F072FA08
:100CA00005E0601C84B242F2107004F0BBF84120F1
:100CB00000F048FA08B9002CF3D10CB901203EBD70
:100CC0004FF4807000F07AFA012000F071FA7F2072
:100CD0000190FF20029000200090684600F026FB63
:100CE00000231A461946184600F040FC01231A4614
:100CF0001946122000F028FC45F25001002000F0B7
:100D000077FC0020DBE7000010B5002406E0601C43
:100D1000C0B20446C82801DD012010BD01210548EC
:100D200000F05AFD0028F2D0024800F05EFDC0B28B
:100D3000F3E700000030014070B505460E46002480
:100D400000BF0BE00020FFF77DFFFFF7DDFF285518
:100D5000295D04A004F062FD601CC4B2B442F1DB62
:100D6000002070BD25640A0070B505460E460024BB
:100D700000BF0CE0285DFFF765FF08B1012070BDE2
:100D8000FFF7C2FF08B10120F9E7601CC4B2B4420A
:100D9000F0DB0020F3E7000070B504460025152CB9
:100DA0006FD012DC102C6DD006DC062C6BD2DFE885
:100DB00004F097212D4E5561112C79D0122C78D04A
:100DC000132C77D0142C5ED175E0312C77D008DC51
:100DD000162C72D0172C57D0182C5CD0302C7FD109
:100DE0006CE0322C6CD0332C6BD0342C6AD0352C88
:100DF00076D168E03C4805F075FF054629463A483B
:100E0000FFF7B2FF08B1012070BD6AE037A004F01F
:100E100005FD0220FFF716FF08B10120F4E7FFF7F8
:100E200073FF08B10120EFE70020FFF70BFF08B1C7
:100E30000120E9E7FFF768FF08B10120E4E71C2182
:100E40002F48FFF779FF08B10120DDE749E00320D3
:100E5000FFF7F8FE08B10120D6E742E0224805F08E
:100E60008BFF054629462048FFF77EFF08B1012089
:100E7000CAE736E00520FFF7E5FE08B10120C3E729
:100E80002FE019E013E02BE01720FFF7DBFE08B19D
:100E90000120B9E725E01820FFF7D4FE30B101208A
:100EA000B2E705E005E005E009E006E019E000BF73
:100EB00000BF00BF00BF00BF00BF00BF00BF00BF3A
:100EC00000BF00BF00BF2146074803F0D7FF05461B
:100ED00029460548FFF748FF08B1012094E700E0E4
:100EE00000BF00BF00208FE7C44F00200A0A0A0A93
:100EF0000A74657374207374617274210A000000AF
:100F00000450002000BFFEE77047000070B50021CC
:100F100000230F22C4781CB3174C246804F4E06447
:100F2000C4F5E064C4F30721C1F10404E3B20A414B
:100F300044789C40E1B28478144021430C07210E90
:100F40000E4C05786155047804F01F050124AC406F
:100F500005786D11AD0005F1E025C5F8004109E007
:100F6000047804F01F050124AC40054D0678761185
:100F700045F8264070BD00000CED00E000E400E004
:100F800080E100E002490143024A1160704700001D
:100F90000000FA050CED00E010B504F0D7FB0348A3
:100FA00000F0D0FF04F0E2FB10BD00005C0A00205E
:100FB000014908627047000000000E4229B1064A4C
:100FC00012680243044B1A6004E0034A1268824329
:100FD000014B1A60704700003038024029B1064AC0
:100FE00012680243044B1A6004E0034A1268824309
:100FF000014B1A60704700004038024029B1064A90
:1010000012680243044B1A6004E0034A12688243E8
:10101000014B1A60704700002038024029B1064A8F
:1010200012680243044B1A6004E0034A12688243C8
:10103000014B1A60704700004438024029B1064A4B
:1010400012680243044B1A6004E0034A12688243A8
:10105000014B1A607047000024380240F0B50021AF
:1010600000220024022500260223324F3F6807F0A9
:101070000C0121B1042905D0082937D105E02E4FF4
:10108000076036E02D4F076033E02A4F3F1F3F686F
:10109000C7F38056274F3F1F3F6807F03F036EB1ED
:1010A000264FB7FBF3F7DFF88CC0ACF1040CDCF88B
:1010B00000C0CCF3881C07FB0CF40CE01E4FB7FB00
:1010C000F3F7DFF870C0ACF1040CDCF800C0CCF32F
:1010D000881C07FB0CF4174F3F1F3F68C7F30147FD
:1010E0007F1C7D00B4FBF5F7076002E0124F07603C
:1010F00000BF00BF0F4F3F6807F0F0010909104F14
:101100007A5C0768D74047600A4F3F6807F4E051B0
:10111000890A0B4F7A5C4768D7408760054F3F6864
:1011200007F46041490B064F7A5C4768D740C760B7
:10113000F0BD0000083802400024F40000127A00DC
:101140001400001010B501460022002300204A11AF
:10115000012A02D10A4C236808E0022A03D1084C74
:101160007034236802E0064C7434236801F01F02D7
:10117000012494401C400CB1012000E0002010BD6F
:10118000003802400021094A11701170012802D074
:10119000042808D103E00121044A117004E005216C
:1011A000024A117000E000BF00BF70477038024073
:1011B00001490860704700003C0E4742002100F4DE
:1011C0004072B2F5407F08D1094A116821F4F81144
:1011D000084A02401143064A1160054A6832126803
:1011E000C0F30B031A43024B68331A6070470000C8
:1011F00008380240FFFCFF0F1FB54FF41650019056
:1012000000208DF80B008DF80A00ADF80800C8200A
:101210008DF80D008DF80E0002208DF80C0001A94C
:10122000002003F011FB6946102003F0D9FB9DF864
:10123000000040F00101102003F040FC1FBD70B51C
:1012400004460D4600262A462146002003F0F6FB00
:1012500006464FF47A7003F0E5FD4FF47A7003F020
:10126000E1FD304670BD00000EB58021684605F0F6
:1012700061FC06480078012806D10021044803F0EB
:1012800019F90020014908700EBD00005C00002023
:10129000502F0020014600BF080900EB80004200EB
:1012A00001F00F001044C0B270470146002204E074
:1012B000501CC2B2A1F10A00C1B20A29F8DA100723
:1012C00041EA10607047000008B50022009200203B
:1012D0000021104A126802F04002CAB9421E0D4BAA
:1012E0001A6000BF0B4A126802F04001009A521CBB
:1012F0000092009AB2F5803F01D00029F2D0054A51
:10130000126802F040020AB1012002E0002000E071
:10131000012008BD0C2800400348006820F0800030
:1013200001490860704700000C28004030B50446B1
:101330000025CA201549086053200860FFF7C4FF44
:1013400000B91DE011481C38006820F040000F492A
:101350001C39086008460068216808430B491C399D
:1013600008600A491439A068086008460068A18826
:1013700040EA0140054914390860FFF7CDFF012517
:10138000FF2002490860284630BD000024280040A4
:1013900008B501460020009004480090009800EB3A
:1013A000810000900098006808BD000050280040AF
:1013B0002DE9F04105460C46002600274DB960781E
:1013C00000F01000102804D1607820F010000A30DE
:1013D000607005B908E06078FFF75CFF0646A0780A
:1013E000FFF758FF064600BF55B1E078000461786A
:1013F00040EA0120A1780843217840EA413611E013
:10140000E078FFF752FF4FEA00486078FFF74DFFA2
:1014100048EA0028A078FFF748FF48EA000820784B
:1014200048EA4036CA201249086053200860FFF796
:101430004BFF08B9002714E00E4830400C49203912
:101440000860FFF769FF0A481C38006800F02000B8
:1014500030B900F09DF808B9002702E0012700E04C
:101460000127FF20024908603846BDE8F0810000EE
:10147000242800403FFFFF002DE9F04105460C46BF
:10148000002600274DB92E48006800F0400000B14A
:1014900002E00020E07000BF0DE02948006800F085
:1014A000400020B12078FFF7F5FE064602E000205C
:1014B000E07000BF00BF55B120780004617840EAB9
:1014C0000120A1780843E17840EA014611E0207844
:1014D000FFF7EBFE4FEA00486078FFF7E6FE48EAC8
:1014E0000028A078FFF7E1FE48EA0008E07848EA23
:1014F0000046CA2012491C31086053200860FFF7DB
:10150000E3FE08B9002713E00E4830400C490839C3
:101510000860FFF701FF0A48006800F0200030B9BA
:1015200000F036F808B9002702E0012700E00127A3
:10153000FF2003491C3108603846BDE8F0810000F7
:10154000082800407F7F7F00F8B504460D46174607
:101550001E468DF802708DF801508DF800608DF8F0
:10156000034069460020FFF723FFF8BDF8B50446A5
:101570000D4617461E468DF800408DF801508DF837
:1015800002708DF8036069460020FFF775FFF8BD13
:1015900008B50022009200200021CA22134B1A60D5
:1015A00053221A60114A183A126822F0A0020F4B17
:1015B000183B1A6000BF0D4A183A126802F0200169
:1015C000009A521C0092009AB2F5003F01D0002907
:1015D000F1D0064A183A126802F020020AB101203E
:1015E00000E00020FF22014B1A6008BD24280040C3
:1015F00008B500220092044A0092009A02EB800291
:101600000092009A116008BD50280040014908600E
:1016100070470000382C014001460020034A126840
:101620000A400AB1012000E000207047342C01403C
:1016300010B504F08BF800F019F804F097F810BD1D
:101640000021094B02681A601A1D11686FF30A0124
:10165000D0E901231A43C3681A4303691A431143AB
:10166000014A121D11607047082C014010B54FF45B
:101670008070FFF7D1FF78B34C480078012814D16F
:1016800000204B4908600C20486040208860002002
:10169000C8604FF4806008610846FFF7D1FF0C2056
:1016A000FEF70AFF4349087002E000204149087034
:1016B0004148006840F480703F490860081D006898
:1016C0004CF23A3188433C49091D086001203B49EE
:1016D00008703848007810BDFFE70220FFF79CFF34
:1016E00078B10220FFF792FF3348001D00684CF2EA
:1016F0003A3188433049091D086002202D4908709D
:10170000E9E70820FFF788FF78B10820FFF77EFFA0
:101710002948001D00684CF23A3188432649091DCA
:101720000860042023490870D5E72020FFF774FFE4
:1017300078B12020FFF76AFF1F48001D00684CF2B7
:101740003A3188431C49091D086006201949087070
:10175000C1E71020FFF760FF78B11020FFF756FFB8
:101760001548001D00684CF23A3188431249091DA2
:10177000086005200F490870ADE74FF40070FFF7CF
:101780004BFF80B14FF40070FFF740FF0A48001D87
:1017900000684CF23A3188430749091D0860072068
:1017A0000449087097E7002095E700004D000020ED
:1017B000701100204E000020382C01404F00002006
:1017C00021B1028842F04002028004E002884FF614
:1017D000BF731A40028070470246002013890B40F5
:1017E0000BB1012000E00020704701468889704756
:1017F0008181704710B50022028802F441520B88A3
:101800004C8823438C882343CC8823430C8923436F
:101810004C8923438C892343CC8923431A43028078
:10182000838B4FF2FF74234083830B8A038210BDA6
:101830007047000030B500228B071C0F0F2303FAFE
:1018400004F20B4B8C1053F824309343084C8D104A
:1018500044F8253023468C1053F824308C07240F8D
:1018600000FA04F42343024C8D1044F8253030BDB7
:101870000838014070B50546002440F22441124862
:1018800000F096FAF0B1104800880F48001D00885B
:1018900000210E48FEF798FE0D490C48FEF77AFE2F
:1018A0000A48FEF753FFC0F5007084B2224609498A
:1018B000284604F0C9F8084804F05BFA00F09AF8EA
:1018C000204670BD0020FCE700140140286402405F
:1018D000000800102C1400202C1A002010B540F233
:1018E0002661074800F057FA40B9002240F226610D
:1018F000034800F087FA00200249087010BD00007C
:1019000000140140640000200CB5002001900090FC
:101910003448006840F480303249086000BF3148E4
:10192000006800F4003000900198401C019000987D
:1019300018B90198B0F5A04FF1D12A48006800F419
:10194000003010B10120009001E0002000900098CC
:10195000012846D123484030006840F0805021499A
:10196000403108602048006840F440401E4908604B
:101970001C48083000681B490831086008460068A8
:1019800040F4004008600846006840F4A050086039
:101990001648091F0860081F006840F08070091F82
:1019A000086000BF0F48006800F000700028F9D000
:1019B00040F205700E4908600A480830006820F0BF
:1019C00003000849083108600846006840F002003A
:1019D000086000BF03480830006800F00C000828C9
:1019E000F8D10CBD00380240007000400854400798
:1019F000003C024000B58FB001218805FFF7DEFAF8
:101A00001B48FEF7EDFD00BF1948FEF795FE0028C4
:101A1000FAD14FF0206000901648019016480290CD
:101A2000002003904FF400700490002005904FF4C4
:101A30008060069000200790089009904FF4403095
:101A40000A9000200B9001200C9000200D900E9029
:101A500069460748FEF7B0FE012240210548001FF5
:101A600000F090F901210248FEF7AEFD0FB000BD75
:101A700028640240041401402C14002010B503F027
:101A800065FE04F041FD03F071FE10BD70470000DB
:101A900070B500200022022300240221274D2D686A
:101AA00005F00C0020B1042806D0082834D107E046
:101AB000234D244E356033E0234D224E35602FE018
:101AC0001E4D2D1F2D68C5F380541C4D2D1F2D68F4
:101AD00005F03F0154B11C4DB5FBF1F5174E361F13
:101AE0003668C6F3881605FB06F209E0144DB5FB0F
:101AF000F1F5124E361F3668C6F3881605FB06F25E
:101B00000E4D2D1F2D68C5F301456D1C6B00B2FBFA
:101B1000F3F50C4E356003E0094D0A4E356000BF09
:101B200000BF064D2D68C5F30315084E705D054DC9
:101B30002D68C540034E356070BD00000838024076
:101B40000024F4000000001000127A0004000010CD
:101B500010B51548006840F4700013490860134838
:101B6000006840F001001149086000200F49083169
:101B700008600E4800680E4908400C4908600D488E
:101B8000091D0860081F006820F48020091F0860F4
:101B9000002006490C310860FFF7B6FE4FF00060E8
:101BA00001498039086010BD88ED00E0003802402E
:101BB000FFFFF6FE1030002410B503F0C7FD40F221
:101BC00025511A4800F0F4F868B31848001D008841
:101BD000C4B21748008800F4004020BB14480088B5
:101BE000102808DA124801880088401C104A10802A
:101BF0001048445417E00F480D49098844540C48D4
:101C0000008840F400400A49088008480C300088E9
:101C100020F0040005490C310880012006490870B5
:101C200000200349088003F0A1FD10BD004C0040D6
:101C300054000020181400205600002010B503F0B6
:101C400085FD03F06BF803F03BF803F08FFD10BD4A
:101C500010B5002403F07AFD40F22441174800F04B
:101C6000A7F838B3154800881448001D00880021E3
:101C70001348FEF7A9FC13491148FEF78BFC1048E6
:101C8000FEF764FDC0F1100084B222460E490F48F1
:101C900003F0DAFE10210A48FEF7BAFD01210848D8
:101CA000FEF792FC0A2C05DB0020094908600120A0
:101CB0000849087003F05AFD10BD000000440040C0
:101CC0008860024000080020081100201811002040
:101CD000800241422400002010B503F037FD40F29D
:101CE0002551144800F064F808B31248001D00881C
:101CF000C4B21148008800F40040C0B90E48008802
:101D0000202808DA0C4801880088401C0A4A108004
:101D10000A4844540BE00848008840F40040064953
:101D2000088000200649086001200649087003F079
:101D30001DFD10BD004800402E000020281100208D
:101D4000A48242422C00002010B503F0FFFCFFF7F4
:101D5000C5FD0448FFF78EFD0349088003F006FD2A
:101D600010BD00002C1600206600002021B18289E1
:101D700042F40052828104E082894DF6FF731A40DA
:101D8000828170471AB1838A0B43838202E0838A7F
:101D90008B438382704702460020B1F5007F00D15B
:101DA00000BF13880B400BB1012000E000207047FA
:101DB00070B50246002400230025002040F66A1674
:101DC000B14200D100BFC1F3421501F01F0301264B
:101DD00006FA03F3012D02D19689334006E0022D65
:101DE00002D1168A334001E0968A33400C12012654
:101DF00006FA04F41688344013B10CB1012000E057
:101E0000002070BDF0B50346002400260025002008
:101E100040F66A17B94200D100BF1846C1F3421418
:101E200001F01F06012707FA06F5012C01D10C303D
:101E300004E0022C01D1103000E014301AB1076820
:101E40002F43076002E00768AF430760F0BD000062
:101E50002DE9FF4705460E460024A14600BFA046D7
:101E6000B08900B100BF2C8A24F44054F0880443A8
:101E70002C82AC8941F20C608443B08831890843DC
:101E8000718908430443AC81AC8A24F44074B0895E
:101E90000443AC826846FFF7E1F82048854202D04F
:101EA0001F48854202D1DDF80C9001E0DDF8089072
:101EB000A88900F4004040B109EBC90000EB09100B
:101EC00031684900B0FBF1F707E009EBC90000EB0E
:101ED000091031688900B0FBF1F76420B7FBF0F01E
:101EE00004012009642101FB1078A88900F4004056
:101EF00040B1322000EBC800B0FBF1F000F0070069
:101F0000044308E0322000EB08106421B0FBF1F03C
:101F100000F00F0004432C81BDE8FF870010014052
:101F200000140140C1F3080282807047014601227B
:101F3000C1F810230020704701460022C1F8102389
:101F40000020704738B50546002400200090284640
:101F500000F0DDF8002847D0284600F0E2F80090B5
:101F6000009808B9002038BD0098C0F3C00018B12F
:101F7000284601F001F804430098C0F3001018B19E
:101F8000284600F046FF04430098C0F3401018B103
:101F9000284600F080FD04430098C0F3806018B12B
:101FA000284600F09FFE04430098C0F3406018B13B
:101FB000284600F048F904430098C0F3006018B1C7
:101FC000284600F0FFFD04430098C0F3407018B1AC
:101FD000284600F0FFF804430098C0F3405018B1C1
:101FE000284600F00DF904432046BCE701460020D6
:101FF000704770B50446002500BF05E04FF47A70C5
:1020000002F010FF681C85B2A542F7D370BD0146EF
:10201000C868406900F0010070471CB50246002006
:1020200000230093009B23F0004303F1004300933F
:102030000124009B64F3DC43009302F1900353F806
:102040002130009C1C6102F1900353F821301B6881
:102050000193019B23F0004303F100430193019B93
:1020600023F08043019302F1900353F82130019C47
:102070001C601CBD10B586B00246002000230393EF
:10208000019302F1900353F821301B680093009BE9
:1020900023F0004303F100430093009B23F08043AF
:1020A00003F180430093009BC3F3814323B1009B62
:1020B000C3F38143022B0BD1D368DB6A0393039BE9
:1020C000C3F307437BB9009B23F0004300930AE06E
:1020D00053691B690193019BC3F307431BB9009B21
:1020E00023F00043009302F1900353F82130009C49
:1020F0001C6006B010BD08B5426912680092009AD3
:1021000061F301020092009B4269136008BD00B5B3
:1021100002461046FFF77BFF012800D100BD0020DA
:10212000FCE701460020CA685069CA6892691040FD
:10213000704708B50146D1F8CC00006800900098BF
:1021400020F004000090009820F002000090009819
:1021500020F008000090009820F0200000900098E7
:1021600008BD0146486940697047F0B50346002440
:10217000D01CC71700EB9777BD10D3F8D06000BF15
:1021800003E030680860641C091DAC42F9D30846BE
:10219000F0BD38B504462046FFF7CBFF009000980D
:1021A00020F4807000F5807000900099D4F8CC0085
:1021B00001600A20FFF71DFF009820F48070009056
:1021C0000099D4F8CC0001601420FFF712FF012021
:1021D00038BD000038B5044600200090074800686C
:1021E000816820468847009820F0005000F1005098
:1021F00000900098E1684861012038BD7800002017
:102200000CB50146D1F8900000680090009820F0CD
:10221000004000F100400090009820F0804000F164
:1022200080400090009AD1F8900002600020019058
:10223000019820F4001000F5001001900198CA6880
:10224000506101200CBD7CB50546002400262846BF
:10225000FFF787FF019000BF1BE0019880B20121CA
:10226000A1400840A0B105F1900050F8240000689A
:1022700000900098C0F3C03028B12146284600F0F5
:102280000DF8064304E02146284600F01CFA0643F8
:10229000641C2878A042E0D830467CBD70B586B07A
:1022A00005460C4605F1900050F82460B068059092
:1022B000F0680490DDE904100840059005F19000F5
:1022C00050F8240000680390002004900598C0F3A3
:1022D0008000D0B100200190019820F00400001D82
:1022E00001900198B06005F1900050F82400C0689A
:1022F0000190019820F00200801C019005F19000EF
:1023000050F824000199C16073E00598C0F34010B3
:1023100048B100200190019820F020002030019069
:102320000198B06065E00598C0F3C00078B305F18E
:10233000900050F82400C0680190019820F002003D
:10234000801C019005F1900050F824000199C160B3
:10235000052105F56370015500200190019820F0DA
:102360001000103001900198B06000200190019899
:1023700020F00800083001900198B060059820F026
:1023800010000590E1B22846FFF774FE31E0FFE748
:102390000598C0F3802060B305F1900050F8240048
:1023A000C0680190019820F00200801C019005F1A6
:1023B000900050F824000199C160E1B22846FFF76F
:1023C00059FE00200190019820F01000103001907B
:1023D0000198B060082105F5637001550020019057
:1023E000019820F4806000F5806001900198B06051
:1023F00000BF0598C0F34020F8B105F1900050F8F7
:102400002400C0680190019820F00200801C019017
:1024100005F1900050F824000199C160E1B228460E
:10242000FFF728FE00200190019820F4007000F5CD
:10243000007001900198B06042E1059800F0010041
:10244000002871D0E878012812D105F1900050F8E9
:1024500024000069029005F56B7000EB44100069E0
:102460000299C1F31201411A05F5547040F8241085
:10247000012105F5637001550021783840F82410DA
:1024800000200190019820F00100401C019001986B
:10249000B0600398C0F3814020B10398C0F381403D
:1024A00002282AD105F1900050F82400C06801905C
:1024B000019820F00200801C019005F1900050F876
:1024C00024000199C160E1B22846FFF7D3FD002046
:1024D0000190019820F01000103001900198B06038
:1024E00005F56B7000EB4410007E80F0010105F5EE
:1024F0006B7000EB44100176E2E00398C0F381407A
:10250000032899D1039820F0005000F10050039067
:1025100005F1900050F8240003990160012105F2B3
:102520009B300155CCE0FFE70598C0F34000002840
:1025300051D005F1900050F82400C0680190019836
:1025400020F00200019005F1900050F8240001995C
:10255000C16005F56370005D012804D1012105F219
:102560009B3001552DE005F56370005D052804D111
:10257000042105F29B30015523E005F56370005DF1
:10258000062804D005F56370005D082808D10021F5
:1025900005F5457040F8241003218730015510E0FF
:1025A0000398C0F3814003280BD105F56B7000EB55
:1025B0004410007E80F0010105F56B7000EB4410C3
:1025C000017600200190019820F00200801C01900B
:1025D0000198B06074E00598C0F3C01040B305F1F5
:1025E000900050F82400C0680190019820F002008B
:1025F000801C019005F1900050F824000199C16001
:1026000005F5457050F82410491C40F824100621A7
:1026100078300155E1B22846FFF72CFD00200190EB
:10262000019820F08000803001900198B06047E070
:102630000598C0F30010E8B30398C0F38140032865
:1026400015D105F1900050F82400C0680190019860
:1026500020F00200801C019005F1900050F8240049
:102660000199C160E1B22846FFF704FD18E0039824
:10267000C0F3814020B10398C0F3814002280FD1FC
:10268000039820F0004000F100400390039820F0F0
:102690008040039005F1900050F8240003990160F8
:1026A000032105F56370015500200190019820F089
:1026B000100000E004E0103001900198B06000BF0D
:1026C000012006B070BD7FB505460C4605F19000AF
:1026D00050F82460B0680390F0680290DDE90210C1
:1026E0000840039005F1900050F824000068019024
:1026F0000398C0F38000D0B100200090009820F033
:102700000400001D00900098B06005F1900050F8A2
:102710002400C0680090009820F00200801C009007
:1027200005F1900050F824000099C160B0E10398D1
:10273000C0F3401048B100200090009820F0200025
:10274000203000900098B060A2E10398C0F34020D0
:10275000F8B105F1900050F82400C068009000988E
:1027600020F00200801C009005F1900050F8240039
:102770000099C160E1B22846FFF77CFC0020009080
:10278000009820F4007000F5007000900098B06090
:102790007EE1039800F0010038B3002105F5457093
:1027A00040F8241005F1900050F82400C068009013
:1027B000009820F00200801C009005F1900050F875
:1027C00024000099C160E1B22846FFF753FC0020C5
:1027D0000090009820F00100401C00900098B0602C
:1027E000012105F56370015552E10398C0F3C00063
:1027F00010B300200090009820F0080008300090EE
:102800000098B06005F1900050F82400C068009076
:10281000009820F00200801C009005F1900050F814
:1028200024000099C160E1B22846FFF723FC05218E
:1028300005F5637001552BE10398C0F3001038B320
:10284000002105F5457040F8241005F1900050F87E
:102850002400C0680090009820F00200801C0090C6
:1028600005F1900050F824000099C160E1B22846BB
:10287000FFF700FC00200090009820F010001030BE
:1028800000900098B060032105F563700155FFE0EA
:102890000398C0F3C01040B305F1900050F8240035
:1028A000C0680090009820F00200801C009005F1A4
:1028B000900050F824000099C160E1B22846FFF76B
:1028C000D9FB05F5457050F82410491C40F8241038
:1028D00006217830015500200090009820F08000FB
:1028E000803000900098B060D2E00398C0F3801070
:1028F00038B3002105F5457040F8241005F190002B
:1029000050F82400C0680090009820F00200801C5D
:10291000009005F1900050F824000099C160E1B2E8
:102920002846FFF7A7FB00200090009820F0400009
:10293000403000900098B060042105F563700155A7
:10294000A6E00398C0F3802060B305F1900050F832
:102950002400C0680090009820F00200801C0090C5
:1029600005F1900050F824000099C160E1B22846BA
:10297000FFF780FB00200090009820F0100010303E
:1029800000900098B060082105F5637001550020A3
:102990000090009820F4806000F58060009000981E
:1029A000B06075E00398C0F34000002870D005F1D6
:1029B000900050F82400C0680090009820F00200B9
:1029C000009005F1900050F824000099C16005F5D1
:1029D0006370005D012815D1012105F29B3001557E
:1029E0000198C0F38140022848D105F56B7000EBD7
:1029F0004410407E80F0010105F56B7000EB44103F
:102A000041763BE005F56370005D032804D10221A7
:102A100005F29B30015531E005F56370005D042837
:102A20000FD105F56B7000EB44100079012803D13C
:102A3000E1B22846FFF7F1FA022105F29B30015579
:102A40001CE005F56370005D052804D1042105F242
:102A50009B30015512E005F56370005D06280DD12D
:102A600005F5457050F82400032807D1032105F22D
:102A70009B3001550021873840F824100020009039
:102A8000009820F00200801C00900098B06000BF09
:102A9000012004B070BD7FB50446E068C06A0090B4
:102AA0000198C0F3C30104F56B7000EB411000699D
:102AB000C01CC0F38F0673E04FF6FF71009801EA67
:102AC00080050198C0F3C30104F56B7000EB411061
:102AD0000069A84215D20198C0F3C30104F56B70D8
:102AE00000EB4110008A85B200200390039820F08B
:102AF000200020300390E068806903998843E168F2
:102B000088610198C0F3C30104F56B7000EB4110BC
:102B10000069C01CC0F38F060198C0F3C302C0F364
:102B2000C30304F56B7000EB43102B46C1682046CD
:102B300000F038FA0198C0F3C30104F56B7000EBA4
:102B40004110C06841190198C0F3C30204F56B70CD
:102B500000EB4210C1600198C0F3C30104F56B7033
:102B600000EB41100069411B0198C0F3C30204F55A
:102B70006B7000EB421001610198C0F3C30104F5D2
:102B80006B7000EB4110406941190198C0F3C3021A
:102B900004F56B7000EB42104161E068C06A009080
:102BA000009880B2B0420ADD0198C0F3C30104F579
:102BB0006B7000EB4110006900287FF47DAF0120AD
:102BC00004B070BDFEB5044600260025002000902C
:102BD00002900190D4F8CC0000680290D4F8CC00A8
:102BE00000680190019820F004000190019820F005
:102BF00002000190019820F008000190019820F057
:102C0000200001900298C0F3400058B1019820F0D4
:102C10000200801C019032480068416820468847C5
:102C200045F001050298C0F3C000002842D0019889
:102C300020F00800083001900298C0F380000028BE
:102C400038D0274800684168204688470298C0F37A
:102C50004140022804D00298C0F34140012828D105
:102C60006069006800900298C0F34140022811D1C9
:102C700041F2707160694160009800F00300022821
:102C800018D0207A022803D102212046FFF733FA18
:102C900001260FE04BF6803160694160009800F03A
:102CA0000300012806D001212046FFF724FA01265F
:102CB00000E001260298C0F3401030B1019820F0E6
:102CC00020002030019045F0010516B12046FFF7A5
:102CD00060FA0199D4F8CC0001602846FEBD0000DE
:102CE00078000020FEB504466069006900900198F4
:102CF000C0F3C30104F56B7000EB41100069C01C08
:102D0000C0F38F0674E04FF6FF71009801EA80056A
:102D10000198C0F3C30104F56B7000EB411000692A
:102D2000A84216D20198C0F3C30104F56B7000EB02
:102D30004110008A85B200200290029820F0806045
:102D400000F180600290E068806902998843E16840
:102D500088610198C0F3C30104F56B7000EB41106A
:102D60000069C01CC0F38F060198C0F3C302C0F312
:102D7000C30304F56B7000EB43102B46C16820467B
:102D800000F010F90198C0F3C30104F56B7000EB7B
:102D90004110C06841190198C0F3C30204F56B707B
:102DA00000EB4210C1600198C0F3C30104F56B70E1
:102DB00000EB41100069411B0198C0F3C30204F508
:102DC0006B7000EB421001610198C0F3C30104F580
:102DD0006B7000EB4110406941190198C0F3C302C8
:102DE00004F56B7000EB421041616069006900906E
:102DF000009880B2B0420ADD0198C0F3C30104F527
:102E00006B7000EB4110006900287FF47CAF01205B
:102E1000FEBD30B585B004460020009003900398B5
:102E200020F0100010300390E06880690399884317
:102E3000E1688861E068006A0490049800F00F007F
:102E4000009004F190009DF8001050F821000068F7
:102E500001900498C0F34340022806D0032878D09C
:102E6000052877D0072873D175E00498C0F30A10BD
:102E7000002869DD04F56B709DF8001000EB41102F
:102E8000C068002860D00498C0F30A1204F56B7083
:102E90009DF8003000EB4310C1682046FFF765F94C
:102EA000049800F00F0104F56B7000EB4110C0684E
:102EB0000499C1F30A110144049800F00F0204F5CB
:102EC0006B7000EB4210C160049800F00F0104F534
:102ED0006B7000EB411040690499C1F30A11014481
:102EE000049800F00F0204F56B7000EB4210416192
:102EF00004F56B709DF8001000EB4110456904F576
:102F000054709DF8001040F8215004F190009DF895
:102F1000001050F82100006902900298C0F3C940E7
:102F2000002811DD019820F0004000F100400190E0
:102F3000019820F08040019004F190009DF800205D
:102F4000019950F82200016006E002E002E0FFE78C
:102F500000BF00BF00BF00BF00BF039820F01000FB
:102F600010300390E068806903990843E168886144
:102F7000012005B030BD000038B5044600200090A7
:102F800007480068016820468847009820F008003C
:102F9000083000900098E1684861012038BD0000C9
:102FA000780000202DE9F04104460026E078B0B911
:102FB00000270020DD1C4FEAE57805EB98784FEA02
:102FC000A80704F1D00555F822C000BF04E00D6841
:102FD000CCF80050401C091DB842F8D300BF304661
:102FE000BDE8F08100BF00BF7047000003B58DB0A1
:102FF00000200B900A900D9816287CD012DC122825
:103000007AD008DC012820D002281FD0102820D038
:10301000112872D159E0132870D014286FD01528C8
:10302000F7D150E132286BD008DC202869D0212864
:1030300068D0302867D03128EBD1FDE333287CD02D
:1030400034287BD03528E4D1F7E300BFFEF71EFD1E
:10305000F4E30E98C07900F00300F94908710E9866
:10306000C07981100E98007A00F0030041EA8011C7
:103070000E98007A801001EB0020039004F003F911
:103080009FEDF00B53EC102BCDE904019DED040BEB
:1030900051EC100B04F022F99FEDEC0B53EC102BCC
:1030A000CDE906019DED060B51EC100B03F036FF48
:1030B000CDE908019DED080B51EC100B03F0FCFE6F
:1030C000DF498860FFF78EFFC2E70E98C07900F0F5
:1030D0000300DB4908730E98C07981100E98007ABE
:1030E00000F0030041EA80110E98007A801001EB95
:1030F0000020039008E075E130E0FCE36AE0A6E020
:10310000FAE363E2C0E133E304F0BDF89FEDCD0BD9
:1031100053EC102BCDE904019DED040B51EC100B89
:1031200004F0DCF89FEDC90B53EC102BCDE9060140
:103130009DED060B51EC100B01E0FDE3FDE303F008
:10314000EDFECDE908019DED080B51EC100B03F0ED
:10315000B3FEBB490861FFF745FF79E70E98C079D8
:1031600000F00300B64908770E98C07981100E98D8
:10317000007A00F0030041EA80110E98007A801076
:1031800001EB0020039004F07EF89FEDB20B53ECAE
:10319000102BCDE904019DED040B51EC100B04F054
:1031A0009DF89FEDAA0B53EC102BCDE906019DED88
:1031B000060B51EC100B03F0B1FECDE908019DEDBB
:1031C000080B51EC100B03F077FE9D490862FFF7E6
:1031D00009FF3DE70E98C07900F00300984981F897
:1031E00024000E98C07981100E98007A00F0030038
:1031F00041EA80110E98007A801001EB00200390C4
:1032000004F041F89FED930B53EC102BCDE9040132
:103210009DED040B51EC100B04F060F89FED8B0B4F
:1032200053EC102BCDE906019DED060B51EC100B74
:1032300003F074FECDE908019DED080B51EC100B75
:1032400003F03AFE7E498862FFF7CCFE00E70E9855
:10325000C07900F003007A4908750E98C079811092
:103260000E98007A00F0030041EA80110E98007A6F
:10327000801001EB0020039004F005F89FED710B26
:1032800053EC102BCDE904019DED040B51EC100B18
:1032900004F024F89FED6D0B53EC102BCDE90601E3
:1032A0009DED060B51EC100B03F038FECDE9080143
:1032B0009DED080B51EC100B03F0FEFD6049886199
:1032C000FFF790FEC4E60E98C179007A01EB00206A
:1032D000039003F0D8FF9FED610B53EC102BCDE969
:1032E00004019DED040B51EC100B03F0F7FF9FED73
:1032F0005D0B53EC102BCDE906019DED060B51EC57
:10330000100B03F00BFECDE908019DED080B51EC0D
:10331000100B03F0D1FD4A49C8620E98417A807AB9
:1033200001EB002000EE100AF8EEC00A9FED4F1AE4
:1033300080EE810A8DED050A059804F0CDF89FED29
:103340004C0B53EC102BCDE906019DED060B51EC17
:10335000100B03F0C3FFCDE908019DED080B51EC04
:10336000100B03F0A9FD364908630E98C07A00F0EF
:103370000301334880F834100E98C07A81100E98FB
:10338000007B00F0030041EA80110E98007B801062
:1033900001EB0020039003F076FF9FED370B53EC19
:1033A000102BCDE904019DED040B51EC100B03F043
:1033B00095FF9FED260B53EC102BCDE906019DEDFB
:1033C000060B51EC100B03F0A9FDCDE908019DEDB2
:1033D000080B51EC100B03F06FFD19498863FFF7E0
:1033E00001FE35E60E98C179007A01EB00200390CA
:1033F00003F049FF9FED220B53EC102BCDE90401A4
:103400009DED040B51EC100B03F068FF9FED150BC5
:1034100053EC102BCDE906019DED060B51EC100B82
:1034200003F07CFDCDE908019DED080B51EC100B7C
:1034300003F042FD0249C863FFF7D4FD08E600002F
:103440002C50002000000000000069400000000037
:1034500080FFCF40000000000080664000000000B8
:1034600000408F4000000000E0FFEF4000FF7F477A
:1034700000000000006AF840000000000080564094
:1034800000000000000034400A22FE49FE4802F01D
:10349000DBFA0E98407BC011FB49143908710E9875
:1034A000C07901040E98007A01EB00210E98407A51
:1034B0000844039003F0FEFE1FED1A0B53EC102B93
:1034C000CDE904019DED040B51EC100B03F006FF58
:1034D0009FEDEE0B53EC102BCDE906019DED060B95
:1034E00051EC100B03F01AFDCDE908019DED080B1E
:1034F00051EC100B03F0E0FCE349143988600E989E
:10350000407BC0F38011E048143841710E98807AF6
:1035100001040E98C07A01EB00210E98007B08444C
:10352000039003F0C7FE1FED2C0B53EC102BCDE9DD
:1035300004019DED040B51EC100B03F0CFFE9FED49
:10354000D30B53EC102BCDE906019DED060B51EC8E
:10355000100B03F0E3FCCDE908019DED080B51ECE5
:10356000100B03F0A9FCC8491439C8600E98817B80
:10357000407B00F03F0001EB0020039003F09AFE37
:103580001FED4A0B53EC102BCDE904019DED040B0C
:1035900051EC100B03F0A2FE9FEDBE0B53EC102B71
:1035A000CDE906019DED060B51EC100B03F0B6FCC6
:1035B000CDE908019DED080B51EC100B03F07CFCEC
:1035C000B149143908610120087041E50E98C079AD
:1035D00000EB80004000B149A1F8400000200B90B2
:1035E000C1E00B98C0000830C0B20A900A98801D54
:1035F0000E99085CC211A94844300B9900EB0110E8
:1036000002700A990E98405C02040A98401C0E99B8
:10361000085C02EB00220A98801C085C10440390AE
:1036200003F048FE1FED750B53EC102BCDE90401A0
:103630009DED040B51EC100B03F050FE9FED930B2E
:1036400053EC102BCDE906019DED060B51EC100B50
:1036500003F064FCCDE908019DED080B51EC100B63
:1036600003F02AFC8D4944310B9A01EB02114860AA
:103670000A98801D0E99085CC0F380128748443078
:103680000B9900EB011042700A98C01C0E99085C5F
:1036900002040A98001D085C02EB00220A98401DF3
:1036A000085C1044039003F005FE1FED8D0B53ECF6
:1036B000102BCDE904019DED040B51EC100B03F030
:1036C0000DFE9FED720B53EC102BCDE906019DED25
:1036D000060B51EC100B03F021FCCDE908019DED28
:1036E000080B51EC100B03F0E7FB6C4944310B9ACB
:1036F00001EB021188600A98C01D0E990A5C0A98B5
:10370000801D085C00F03F0002EB0020039003F0F6
:10371000D1FD1FEDAE0B53EC102BCDE904019DED57
:10372000040B51EC100B03F0D9FD9FED5A0B53EC39
:10373000102BCDE906019DED060B51EC100B03F0AB
:10374000EDFBCDE908019DED080B51EC100B03F0EA
:10375000B3FB524944310B9A01EB0211C8600B983C
:10376000401CC0B20B900B980628FFF63AAF6FE4EE
:103770000E98407B00F03F00484981F8A4000E9865
:10378000407B00F0800060B30E98417A807A01EBB4
:103790000020019003F077FD1FEDC90B53EC102BB7
:1037A000CDE902019DED020B51EC100B03F096FDEB
:1037B0001FEDD40B53EC102BCDE904019DED040B50
:1037C00051EC100B03F0AAFB9FED350B53EC102BC3
:1037D000CDE906019DED060B51EC100B03F07EFDCB
:1037E0001FE00E98417A807A01EB0020039003F0ED
:1037F0004AFD1FEDDF0B53EC102BCDE904019DEDCD
:10380000040B51EC100B03F069FD1FEDEA0B53ECB8
:10381000102BCDE906019DED060B51EC100B03F0CA
:103820007DFBCDE908019DED080B51EC100B03F079
:10383000CDFC41B2194802E0EDE01AE218E280F84E
:10384000A5100E98C17A007B01EB0020039003F0D5
:103850001AFD9FED150B53EC102BCDE904019DEDE6
:10386000040B51EC100B03F039FD9FED110B53ECE1
:10387000102BCDE906019DED060B51EC100B03F06A
:103880004DFB19E02050002070510020000000E0A6
:10389000FFFF6F4100000000F8FF0F412C50002097
:1038A000000000000000F0BF000000000000244005
:1038B00000000000E0FFEF40CDE908019DED080B9E
:1038C00051EC100B03F0B2FCC1B2FE4880F8A61018
:1038D0000E98C17A007B01EB0020019003F0D3FC2D
:1038E0001FED0F0B53EC102BCDE902019DED020BE8
:1038F00051EC100B01E0FBE397E203F0EFFC1FED4E
:10390000140B53EC102BCDE904019DED040B51EC8D
:10391000100B03F003FB9FEDEC0B53EC102BCDE9E8
:1039200006019DED060B51EC100B03F0D7FCCDE921
:1039300008019DED080B01E03CE3DAE351EC100BCC
:1039400003F074FC6421B0FBF1F201FB1201DD48CD
:1039500080F8A7100E98407B00F0400060B30E98EE
:10396000C179007A01EB0020019003F08CFC9FEDFF
:10397000D80B53EC102BCDE902019DED020B51EC5D
:10398000100B03F0ABFC1FED360B53EC102BCDE905
:1039900004019DED040B51EC100B03F0BFFA1FED79
:1039A000400B53EC102BCDE906019DED060B51ECBD
:1039B000100B03F093FC1FE00E98C179007A01EB25
:1039C0000020039003F05FFC9FEDC10B53EC102B24
:1039D000CDE904019DED040B51EC100B03F07EFCCE
:1039E0001FED4D0B53EC102BCDE906019DED060BA1
:1039F00051EC100B03F092FACDE908019DED080B94
:103A000051EC100B03F0E2FB01B2AE48A0F8A81095
:103A1000FFF7E8FA2CE10E98407B00F03F00A9493F
:103A200081F8AA000E98407B00F0800060B30E98E9
:103A3000417A807A01EB0020019003F024FC9FED95
:103A4000A60B53EC102BCDE902019DED020B51ECBE
:103A5000100B03F043FC1FED6A0B53EC102BCDE968
:103A600004019DED040B51EC100B03F057FA1FED10
:103A7000740B53EC102BCDE906019DED060B51ECB8
:103A8000100B03F02BFC1FE00E98417A807A01EBBB
:103A90000020039003F0F7FB9FED8F0B53EC102BEE
:103AA000CDE904019DED040B51EC100B03F016FC65
:103AB0001FED810B53EC102BCDE906019DED060B9C
:103AC00051EC100B03F02AFACDE908019DED080B2B
:103AD00051EC100B03F07AFB41B27A4880F8AB103E
:103AE0000E98C17A007B01EB0020039003F0CBFB22
:103AF0001FED930B53EC102BCDE904019DED040B4E
:103B000051EC100B03F0EAFB1FED970B53EC102B5D
:103B1000CDE906019DED060B51EC100B03F0FEF90B
:103B2000CDE908019DED080B51EC100B03F07EFB75
:103B3000C1B2644880F8AC100E98C17A007B01EBEA
:103B40000020019003F0B6FB1FEDA90B53EC102BE6
:103B5000CDE902019DED020B51EC100B03F0BEFB11
:103B60001FEDAD0B53EC102BCDE904019DED040BC3
:103B700051EC100B03F0D2F99FED530B53EC102BCB
:103B8000CDE906019DED060B51EC100B03F0A6FBF1
:103B9000CDE908019DED080B51EC100B03F046FB3D
:103BA0006421B0FBF1F201FB1201464880F8AD1030
:103BB0000E98407B00F0400060B30E98C179007A07
:103BC00001EB0020019003F05EFB9FED410B53ECF5
:103BD000102BCDE902019DED020B51EC100B03F00F
:103BE0007DFB1FEDCD0B53EC102BCDE904019DEDBA
:103BF000040B51EC100B03F091F91FEDD70B53ECB4
:103C0000102BCDE906019DED060B51EC100B03F0D6
:103C100065FB1FE00E98C179007A01EB002003904C
:103C200003F031FB9FED2A0B53EC102BCDE904017F
:103C30009DED040B51EC100B03F050FB1FEDE40B5A
:103C400053EC102BCDE906019DED060B51EC100B4A
:103C500003F064F9CDE908019DED080B51EC100B60
:103C600003F0B4FA01B21748A0F8AE10FFF7BAF9A2
:103C7000DEE20E98C07A00F03F00124981F8B000F1
:103C80000E98C07A00F0400090B30E98C179007A87
:103C900001EB0020019003F0F6FA9FED110B53ECBD
:103CA000102BCDE902019DED020B51EC100B03F03E
:103CB00015FB9FED0D0B53EC102BCDE904019DED91
:103CC000040B16E02C5000200000000000005940BA
:103CD00000000000008066400000000000805640A8
:103CE000000000000000894000000000E0FFEF40FD
:103CF00010E051EC100B03F011F99FEDFE0B53ECAB
:103D0000102BCDE906019DED060B51EC100B03F0D5
:103D1000E5FA1FE00E98C179007A01EB00200390CC
:103D200003F0B1FA1FED120B53EC102BCDE9040197
:103D30009DED040B51EC100B03F0D0FA1FED160BA8
:103D400053EC102BCDE906019DED060B51EC100B49
:103D500003F0E4F8CDE908019DED080B51EC100BE0
:103D600003F0AAF8E549C1F8B4000E98C07A00F053
:103D7000800060B30E98417A807A01EB00200190B8
:103D800003F081FA1FED2A0B53EC102BCDE9020151
:103D90009DED020B51EC100B03F0A0FA1FED2E0B62
:103DA00053EC102BCDE904019DED040B51EC100BED
:103DB00003F0B4F89FEDCF0B53EC102BCDE90601C7
:103DC0009DED060B51EC100B03F088FA1FE00E98E6
:103DD000417A807A01EB0020039003F054FA1FED42
:103DE000400B53EC102BCDE904019DED040B51EC7D
:103DF000100B03F073FA1FED440B53EC102BCDE9BD
:103E000006019DED060B51EC100B03F087F8CDE990
:103E100008019DED080B51EC100B03F04DF8B7496C
:103E2000C1F8B800FFF7DEF832E30E98C07A00F070
:103E30003F00B24981F8BC000E98C07A00F0400003
:103E400060B30E98C179007A01EB0020019003F075
:103E50001AFA9FEDAB0B53EC102BCDE902019DED4F
:103E6000020B51EC100B03F039FA1FED610B53EC10
:103E7000102BCDE904019DED040B51EC100B03F068
:103E80004DF89FED9C0B53EC102BCDE906019DEDF9
:103E9000060B51EC100B03F021FA1FE00E98C179CC
:103EA000007A01EB0020039003F0EDF99FED940BF5
:103EB00053EC102BCDE904019DED040B51EC100BDC
:103EC00003F00CFA1FED780B53EC102BCDE9060133
:103ED0009DED060B51EC100B03F020F8CDE9080125
:103EE0009DED080B51EC100B02F0E6FF8349C1F881
:103EF000C0000E98C07A00F0800060B30E98417A3E
:103F0000807A01EB0020019003F0BDF99FED7C0B5E
:103F100053EC102BCDE902019DED020B51EC100B7F
:103F200003F0DCF91FED900B53EC102BCDE90401ED
:103F30009DED040B51EC100B02F0F0FF9FED6D0BAB
:103F400053EC102BCDE906019DED060B51EC100B47
:103F500003F0C4F91FE00E98417A807A01EB00204B
:103F6000039003F090F99FED660B53EC102BCDE915
:103F700004019DED040B51EC100B03F0AFF91FEDA4
:103F8000A60B53EC102BCDE906019DED060B51EC71
:103F9000100B02F0C3FFCDE908019DED080B51ECB9
:103FA000100B03F013F901B25448A0F8BE10FFF74C
:103FB00019F86DE20E98407B00F03F004F4981F800
:103FC000C4000E98407B00F0800060B30E98417AE8
:103FD000807A01EB0020019003F055F91FEDC20B30
:103FE00053EC102BCDE902019DED020B51EC100BAF
:103FF00003F074F91FEDC40B53EC102BCDE9040151
:104000009DED040B51EC100B02F088FF9FED390B76
:1040100053EC102BCDE906019DED060B51EC100B76
:1040200003F05CF91FE00E98417A807A01EB0020E2
:10403000039003F028F91FEDD80B53EC102BCDE9BA
:1040400004019DED040B51EC100B03F047F91FED3B
:10405000DA0B53EC102BCDE906019DED060B51EC6C
:10406000100B02F05BFFCDE908019DED080B51EC50
:10407000100B03F0ABF841B2204880F8C5100E9841
:10408000C17A007B01EB0020039003F0FCF89FED68
:104090001E0B53EC102BCDE904019DED040B51ECEC
:1040A000100B03F01BF91FEDF00B53EC102BCDE9B7
:1040B00006019DED060B51EC100B02F02FFFCDE930
:1040C00008019DED080B51EC100B03F0AFF8C1B2E5
:1040D0000A4880F8C6100E98C17A007B01EB0020D8
:1040E000019003F0E7F89FED080B53EC102B0FE065
:1040F000CDE19EE0000000000000F0BF2C50002049
:104100000000000000408F4000000000000024403C
:10411000CDE902019DED020B51EC100B03F0DEF82E
:104120009FEDDD0B53EC102BCDE904019DED040B4D
:1041300051EC100B02F0F2FE9FEDD90B53EC102B5B
:10414000CDE906019DED060B51EC100B03F0C6F80E
:10415000CDE908019DED080B51EC100B03F066F85A
:104160006421B0FBF1F201FB1201CF4880F8C710C7
:104170000E98407B00F0400060B30E98C179007A41
:1041800001EB0020019003F07EF89FEDC80B53EC8B
:10419000102BCDE902019DED020B51EC100B03F049
:1041A0009DF89FEDBD0B53EC102BCDE904019DED67
:1041B000040B51EC100B02F0B1FE1FED320B53EC6F
:1041C000102BCDE906019DED060B51EC100B03F011
:1041D00085F81FE00E98C179007A01EB002003906A
:1041E00003F051F89FEDB10B53EC102BCDE9040116
:1041F0009DED040B51EC100B03F070F89FEDA60B36
:1042000053EC102BCDE906019DED060B51EC100B84
:1042100002F084FECDE908019DED080B51EC100B76
:1042200002F0D4FF01B2A048A0F8C810FEF7DAFEF1
:104230002EE10E98407B00F03F009B4981F8CA00B8
:104240000E98407B00F0800060B30E98417A807A2F
:1042500001EB0020019003F016F89FED940B53EC56
:10426000102BCDE902019DED020B51EC100B03F078
:1042700035F89FED890B53EC102BCDE904019DED32
:10428000040B51EC100B02F049FE1FED660B53ECD2
:10429000102BCDE906019DED060B51EC100B03F040
:1042A0001DF81FE00E98417A807A01EB0020039000
:1042B00002F0E9FF9FED7D0B53EC102BCDE90401DB
:1042C0009DED040B51EC100B03F008F89FED720B01
:1042D00053EC102BCDE906019DED060B51EC100BB4
:1042E00002F01CFECDE908019DED080B51EC100B0E
:1042F00002F06CFF41B26C4880F8CB100E98C17A86
:10430000007B01EB0020039002F0BDFF1FED820B4C
:1043100053EC102BCDE904019DED040B51EC100B77
:1043200002F0DCFF9FED5C0B53EC102BCDE9060196
:104330009DED060B51EC100B02F0F0FDCDE90801EC
:104340009DED080B51EC100B02F070FFC1B2564806
:1043500080F8CC100E98C17A007B01EB0020019010
:1043600002F0A8FF1FED980B53EC102BCDE90201D2
:104370009DED020B51EC100B02F0B0FF9FED460BD0
:1043800053EC102BCDE904019DED040B51EC100B07
:1043900002F0C4FD9FED420B53EC102BCDE906015A
:1043A0009DED060B51EC100B02F098FFCDE90801D2
:1043B0009DED080B51EC100B02F038FF6421B0FBAF
:1043C000F1F201FB1201384880F8CD100E98407BC5
:1043D00000F0400060B30E98C179007A01EB002034
:1043E000019002F050FF9FED310B53EC102BCDE903
:1043F00002019DED020B51EC100B02F06FFF9FEDDF
:10440000260B53EC102BCDE904019DED040B51EC70
:10441000100B02F083FD1FEDC90B53EC102BCDE9FF
:1044200006019DED060B51EC100B02F057FF1FE04B
:104430000E98C179007A01EB0020039002F023FF6F
:104440009FED1A0B53EC102BCDE904019DED040BED
:1044500051EC100B02F042FF9FED0F0B53EC102BB1
:10446000CDE906019DED060B51EC100B02F056FD57
:10447000CDE908019DED080B51EC100B02F0A6FEF2
:1044800001B20948A0F8CE10FEF7ACFD00E000BF75
:1044900000BF0FB000BD000000000000E0FFEF40D3
:1044A00000000000000059402C50002000000000D7
:1044B0000080564070B504460D460026207824281A
:1044C00001D0012070BD60785249087052480088C0
:1044D00052490880A078C011E17840EA410000F01C
:1044E0000F004E498870E078C010C870207900F045
:1044F0001F00087120794011617940EAC10000F085
:104500003F00464948716079C010A17940EA4110E6
:1045100000F03F0041498871A079401000EB800015
:1045200040000881607816285DD00DDC6DD2DFE890
:1045300000F06C242845494D6C6C6C6C6C6C6C6C98
:104540006C6C54555657585931284FD00CDC2028E4
:104550004AD004DC172853D0182856D151E021281E
:1045600049D0302851D140E0322840D033283FD0C4
:1045700034283ED0352848D13CE00220FCF70CFC22
:1045800000BF60780021FEF731FD55B900212448B5
:1045900002F0D0FA064632462149284600F074FB64
:1045A0000BE0012D09D100211E4802F0C3FA064696
:1045B00032461C49284600F067FB27E00320FCF741
:1045C000EBFB23E00420FCF7E7FB1FE00520FCF7F2
:1045D000E3FB55201449087018E000BF00BF00BF7E
:1045E00000BF00BF00BF00BF00BF00BF00BF00BFD3
:1045F00000BF00BF00BF60782146FEF7F7FC00BF98
:1046000000BF6078FCF7C8FB00E000BF00BF0020DF
:1046100058E700002C500020904F00202050002030
:1046200088510020B42E00206A00002000BFFEE761
:10463000F8B504460D4600200090002644F006061A
:104640006946304600F0CCF90120A8409DF80020D2
:104650001043C1B2304600F031FA0020F8BD00002E
:1046600000B58BB001210220FCF7A8FC012110202D
:10467000FCF7A4FC01218803FCF7B0FC4FF4604078
:10468000099002208DF8280000208DF82A000320D0
:104690008DF8290001208DF82B0009A94848FCF766
:1046A000E1F905220D214648FCF724FA05220E21E6
:1046B0004348FCF71FFA05220F214148FCF71AFA7C
:1046C00001218803FCF79AFC00214FF48040FCF79D
:1046D00095FC0020ADF810004FF48270ADF8120088
:1046E0000020ADF81400ADF81600ADF818004FF436
:1046F0000070ADF81A001020ADF81C000020ADF8D5
:104700001E000720ADF8200004A92E48FDF772F81E
:1047100001212C48FDF754F8FF2000F079F804201F
:10472000099000208DF8280001208DF829008DF8CF
:104730002B0009A92448FCF795F901218803FCF70F
:104740006DFC02210620FDF775F804200290002080
:104750008DF80C000C208DF80D0001208DF80E0056
:1047600002A8FCF735F908208DF8040001208DF827
:1047700005008DF806008DF8070001A8FCF7C6FBC0
:104780000820099001208DF8280000208DF82900CC
:104790008DF82A0001208DF82B0009A90A48FCF7A2
:1047A00061F94FF48050099009A90548FCF75AF9BE
:1047B00001200649086000F00BF80BB000BD0000B6
:1047C000000402400038004000180240B08240421D
:1047D00010B5002400200D49086000BF05E04FF42B
:1047E0007A7000F01FFB601CC4B20A2CF7DB0120BA
:1047F00006490860002405E04FF47A7000F012FBCF
:10480000601CC4B20A2CF7DB10BD00008C024342CE
:1048100010B5044600BF02210A48FCF7DDFF00285E
:10482000F9D021460748FCF7E3FF00BF0121054806
:10483000FCF7D2FF0028F9D00248FCF7D6FFC0B23F
:1048400010BD0000003800402DE9FC4104460D4633
:104850000027002000900026694600F0C1F82211D0
:1048600001209040C0B29DF8002040EA02010020E3
:1048700000F024F9221101209040C1B2012000F083
:104880001DF9A879297908433843C7B2E87908B1F6
:10489000E879074344F00500394600F00FF944F089
:1048A0000400032100F00AF944F006000C2100F096
:1048B00005F9297A44F0070000F000F9002608E025
:1048C0001F4850F836002968884200D103E0701C68
:1048D000C6B2102EF4DB00BF44F00300012100F04B
:1048E000EDF8174A02EBC602117944F0050000F01A
:1048F000E5F8134A02EBC6029288111244F0040054
:1049000000F0DCF8697A44F0070000F0D7F8A97AE3
:1049100044F0080000F0D2F844F00300002100F059
:10492000CDF844F0040001A900F05AF89DF80420E5
:1049300042F0040144F0040000F0C0F8BDE8FC813E
:10494000D075000838B504460D466946002000F0D1
:1049500047F855B90120A0409DF8002022EA000147
:10496000002000F0ABF8002038BD012D0AD1012055
:10497000A0409DF800201043C1B2002000F09EF836
:104980000020F1E70120EFE7F8B504460E460027C6
:104990000020009044F00A076946384600F020F8ED
:1049A00044F0CF0700200D4908603846FFF730FF7C
:1049B000002505E0FF20FFF72BFF7055681CC5B2EE
:1049C0009DF800008542F5DB0120044908600021C4
:1049D0002046FFF72DFE9DF80000F8BDB082404252
:1049E0007CB504460D4612A000680190002000909E
:1049F00044F040008DF8040000200E4908609DF846
:104A00000400FFF705FF8DF800009DF80500FFF793
:104A1000FFFE8DF801009DF8010028700120064975
:104A2000C1F8B002022000F0FDF900207CBD0000BA
:104A300000FF0000B0824042008040422DE9F04774
:104A40000746884614464FF0000A00250026A9466E
:104A500047F0800A01213846FFF7EAFD0020164999
:104A600008605046FFF7D4FE00BF15E000260EE0B8
:104A700006EB052118F80100FFF7CAFE09F1010055
:104A800080B28146A04200DB03E0701C86B2FF2E9C
:104A9000EEDD00BF681C85B2E11704EB1161B5EBD8
:104AA000212FE3DD012004490860A14501DDBDE8B7
:104AB000F0870020FBE70000B082404238B5044692
:104AC0000D46002000908DF800408DF801500B49F4
:104AD00008609DF80000FFF79BFE9DF80100FFF7BE
:104AE00097FE022000F09EF901200549C1F8B002AE
:104AF000022000F097F9002038BD0000B08240424B
:104B0000008040420146481EB0F1807F01D3012061
:104B10007047481E4FF0E0225061FF20044A107099
:104B200000204FF0E0229061072010610020EFE7A5
:104B300023ED00E0014609B900207047C8B220B15A
:104B4000C8B20E4A105C401CF7E701F47F4028B160
:104B50000A48C1F30722805C0930EEE701F47F00C8
:104B600028B10648C1F30742805C1130E5E70348ED
:104B700000EB116000781930DFE700005076000884
:104B800003490868884201D0012070470020FCE7F3
:104B9000B00000102DE9FC5F04468B4615461E460A
:104BA000DDE90C9ADDE90E7804F114004060006044
:104BB00000BF1C346560A660C4F80C90A4F810A077
:104BC000228A2321E06800F07DFFB4F810C0E3687A
:104BD00063441A1F0E4BD4E9010100F08FFD2060E1
:104BE000A7766776C4F82C80C4F830800020606116
:104BF0002076206660661C3C00902346054A2146CC
:104C0000019004F1500001F001FD0020BDE8FC9F7F
:104C1000F9610008396400082DE9F04704460E46A2
:104C200017469846DDF8209084F80990607A20F0C5
:104C300001006072E66127620020A062C4F824804F
:104C4000002506E004F1140101EBC50000F004FEAC
:104C50006D1C012DF6DBBDE8F08710B50246002083
:104C600001460EE002F1140303EBC100D0E900435A
:104C70006360D0E9003423604060006000BF481CDE
:104C800001460129EEDB10BD2DE9F04104460D4639
:104C90001646002714B1012C0CD105E031462846F8
:104CA000FCF7CDFA074606E031462846FBF7D2FB73
:104CB000074600E000BF00BF3846BDE8F0810000B5
:104CC00010B540F225511148FDF772F8E8B10F48D0
:104CD0008088C4B20E48008800F40040A8B90C488F
:104CE0000088462808DA0A4801880088401C084ADB
:104CF00010800848445408E00548008840F400400B
:104D00000349088001200449087010BD00100140CB
:104D100000000020081000200200002010B540F222
:104D200026610748FDF737F840B9002240F22661B6
:104D30000348FDF767F800200249087010BD000025
:104D40000010014003000020054800680549B0FB41
:104D5000F1F005490860022004490860704700002E
:104D60000000001040420F00380000203C000020EE
:104D70002DE9F04104464FF0E02040694FF0E0217A
:104D80008969471A002500261F48007858B31F4834
:104D90000068844228D31D480068B4FBF0F085B257
:104DA0001A480068B4FBF0F100FB11441848006891
:104DB000B7FBF0F004EB4401C1EBC41100EBC106FA
:104DC0001248006800EB4001C1EBC010B6EBC00F09
:104DD0000FD9681C85B20D48006800EB4001C1EB9B
:104DE000C010A6EBC00604E000254FF47A7004FB67
:104DF00000F61DB1284601F0F9F900E000BF304689
:104E000000F010F8BDE8F081400000203C000020D8
:104E10003800002010B500F025FB10BD10B500F0E3
:104E200031FB10BD2DE9F047074600264FF0E0208A
:104E3000D0F814901048006807FB00F8FFF7EAFF6D
:104E40004FF0E020856911E04FF0E0208469AC422A
:104E50000CD0AC4202D2281B064403E0A9EB0400AC
:104E6000284406442546464500D300E0ECE700BF51
:104E7000FFF7D4FFBDE8F0873800002070B5054685
:104E80000E4600242146641C6E5426222146641CD2
:104E90006A548A4802782146641C6A544278214642
:104EA000641C6A5482782146641C6A54C278214684
:104EB000641C6A548088C0F307222146641C6A542B
:104EC0007E4802792046611CCCB22A547C48027884
:104ED0002046611CCCB22A54794842782046611C95
:104EE000CCB22A54764882782046611CCCB22A542F
:104EF0007348C2782046611CCCB22A54704880881E
:104F0000C0F307222046611CCCB22A546C480279B7
:104F10002046611CCCB22A546A4802782046611CA3
:104F2000CCB22A54674890ED010ABCEEC00A10EEDC
:104F3000100AC0F307222046611CCCB22A546148F3
:104F400090ED010ABCEEC00A10EE100AC2B2204673
:104F5000611CCCB22A545B4890ED020ABCEEC00A38
:104F600010EE100AC0F307222046611CCCB22A546E
:104F7000544890ED020ABCEEC00A10EE100AC2B20C
:104F80002046611CCCB22A544F4802782046611C4E
:104F9000CCB22A544C4890ED010ABCEEC00A10EE87
:104FA000100A4FF47A714843020E2046611CCCB2BD
:104FB0002A54454890ED010ABCEEC00A10EE100AD2
:104FC0004FF47A714843C0F307422046611CCCB2CB
:104FD0002A543D4890ED010ABCEEC00A10EE100ABA
:104FE0004FF47A714843C0F307222046611CCCB2CB
:104FF0002A54354890ED010ABCEEC00A10EE100AA2
:10500000E8214843C2B22046611CCCB22A542E4843
:105010004088C0F307222046611CCCB22A542A489B
:1050200082782046611CCCB22A5428480278204657
:10503000611CCCB22A54254842782046611CCCB26F
:105040002A54224882782046611CCCB22A541F4838
:10505000C2782046611CCCB22A541C4802792046F2
:10506000611CCCB22A541A4802782046611CCCB28A
:105070002A54174842782046611CCCB22A5414485E
:1050800082782046611CCCB22A541148C27820464E
:10509000611CCCB22A540E4802792046611CCCB265
:1050A0002A5421462846FBF7F7F92855EE21601CC3
:1050B000C0B204462954601CC0B270BD80000020FC
:1050C000860000209C4F00208C00002094000020CF
:1050D0009A00002015E000200A49086001200A49D2
:1050E000C1F8A4024FF47A70FFF742FE012005498F
:1050F000086000200449C1F8A4024FF47A70FFF759
:1051000037FEE8E7A80243420000434208E00024DB
:105110000025FCF7A9F84FF47A70FFF729FE00BFCD
:10512000F5E700007FB50024FBF7CCF80546FBF758
:1051300007FDFBF725FDFBF79FFDFFF791FAFCF755
:105140005BF800201C49086003E04FF47A70FFF719
:1051500069FE2046611C8CB2B0F57A7FF5DB012038
:105160001549086015A000F059FB2846FBF7AEF87A
:10517000142005214FF48062124BCDE90032CDE9B5
:1051800002100023104A11A1124801F0BDF81420AA
:1051900004210A02104BCDE90032CDE902100023B0
:1051A0000E4A0FA1104801F0AFF80F4801F00AF9BC
:1051B000002004B070BD0000A40243427265736514
:1051C00074210A00A8010020D55000086C656430E5
:1051D00000000000A0000020A80500200D510008DC
:1051E0006C656431000000002401002010B5044605
:1051F00000F02AF9FFF796FF10BD000030B51A4CF9
:10520000436824681919884215D04B889BB9174BFD
:105210001B6899420FD0164B1B688B4201D1144B6F
:1052200018604B684360104B1B68C31A0E4D4C68E6
:105230002D682C44A3600C4C836824681A198242A0
:1052400011D053887BB90A4B1B68834201D1084BAC
:105250001A6043685360044B1B68D31A024D4468BC
:105260002D682C44A36030BD380000103C000010B5
:10527000400000102DE9F04F85B00D469C46DDE959
:105280000F740E9B04F04008B8F1000F02D0DFF855
:10529000688101E0DFF86481CDF8008004F0100837
:1052A000B8F1000F01D024F0010404F00108B8F1B6
:1052B000000F02D04FF0300801E04FF02008C24646
:1052C000002604F00208B8F1000F11D0002A02DA1B
:1052D0002D2652420CE004F00408B8F1000F01D072
:1052E0002B2605E004F00808B8F1000F00D02026B6
:1052F000002142B94FF0300B8846491C0DF10409DA
:1053000009F808B01DE01AE0E146B9F10A0F08D12A
:105310004FF00A0BB2FBFBFE0BFB1E28B2FBFBF2AD
:1053200002E002F00F08120900BFDDF8009019F842
:1053300008B08846491C0DF1040909F808B0002A94
:10534000E2D1B94200DD0F46DB1B04F01108B8F1D1
:10535000000F10D116B1002B00DD5B1E06E0A84245
:1053600003D84FF0200880F80080401CB3F10008FB
:10537000A3F10103F3DC26B1A84201D806705B1E3D
:10538000401C04F01008B8F1000F0AD104E0A84254
:1053900001D880F800A0401CB3F10008A3F101037C
:1053A000F5DC06E0A84203D84FF0300880F8008012
:1053B000401CB8467F1E8845F4DC08E0A84205D8AA
:1053C0000DF1040818F8018080F80080401CB1F14C
:1053D0000008A1F10101F1DC06E0A84203D84FF07A
:1053E000200880F80080401CB3F10008A3F10103FD
:1053F000F3DC05B0BDE8F08F617700085077000856
:105400001CB5142000904FF4006300220449019061
:1054100004A000F0C3FE0446204600F0D3FF1CBDEC
:10542000ED5100086D61696E0000000010B5044C7C
:1054300002E020688047241D02488442F9D310BD51
:10544000747800087878000810B5044C02E02068F1
:105450008047241D02488442F9D310BD78780008A3
:105460007C78000810B5FAF72DFF04460448008840
:10547000401C00B2024908802046FAF727FF10BD01
:10548000A000001010B5FAF71DFF04460B48008875
:10549000401E00B2094908800846B0F90000002803
:1054A00007DC002008802046FAF710FF00F09CFB84
:1054B00002E02046FAF70AFF10BD0000A00000102D
:1054C00070B5054605B970BD16480068854203D31E
:1054D00015480068854200D3F5E7A5F10C044FF0AC
:1054E000FF31124800F062FC002060804FF4F5505C
:1054F00020800F480068844201D20D4804600949A9
:1055000060680968611A401A0A490968081A094955
:1055100008602046FFF772FE044800F02AFC00BF36
:10552000D1E70000380000103C000010D00200104D
:10553000400000104800001000487047902F0020E5
:1055400000487047904F002070B5FCF7A1FA114851
:1055500000684FF4FA71B0FBF1F42046FFF7D2FA7D
:10556000FFF7F2FB01200C4908704FF4A060FBF735
:1055700009FD4FF4E13001F049FCFFF757FFFFF759
:10558000DFFF0446FFF7D8FF0546214600F002FD85
:1055900070BD0000000000104000002070B50446FF
:1055A000FAF790FE054619E020780A280AD10D2165
:1055B0000E48FCF7B7FC00BF80210C48FCF7EBFB62
:1055C0000028F9D014F8011B0848FCF7ABFC00BF19
:1055D00080210648FCF7DFFB0028F9D0207800285E
:1055E000E2D12846FAF772FE70BD0000004C004080
:1055F00070B504461948006838B120461749096853
:105600008847054605B970BD00BF15A0E16900F0E7
:1056100005F917A0A16900F001F919A0616900F06E
:10562000FDF81BA0216900F0F9F81DA0E16800F069
:10563000F5F81FA0A16800F0F1F821A0616800F062
:10564000EDF823A0216800F0E9F800F093FE05468C
:10565000294623A000F0E2F800BFFEE73400001066
:105660007073723A203078253038780A00000000D4
:105670002070633A203078253038780A0000000026
:10568000206C723A203078253038780A000000000B
:105690007231323A203078253038780A0000000024
:1056A0007230333A203078253038780A0000000014
:1056B0007230323A203078253038780A0000000005
:1056C0007230313A203078253038780A00000000F6
:1056D0007230303A203078253038780A00000000E7
:1056E00068617264206661756C74206F6E207468E6
:1056F000726561643A2025730A000000F0B5044623
:105700000D461646301D20F00700443801460022A1
:1057100003E00D4F41F82270521C112AF9D34D625B
:105720004FF0000CC1F828C0C1F82CC0C1F830C03F
:10573000C1F834C08B63CC634FF0807CC1F840C0AB
:1057400000270F60F0BD0000EFBEADDE10B5FAF728
:10575000B9FD044604480078401C034908702046FF
:10576000FAF7B4FD10BD00007E00002010B5FAF776
:10577000A9FD044604480078401E034908702046ED
:10578000FAF7A4FD10BD00007E00002070B50446AD
:105790002068A0F11405284600F0D0FD002070BD5F
:1057A0002DE9F04105460C469046204600F029FEC2
:1057B000B8F1000F03D0B8F1010F23D105E004F1D7
:1057C0001401284600F060F81CE02E680FE0A6F1F6
:1057D000140794F8350097F83510884206DA04F17A
:1057E000140107F1140000F04FF802E03668AE42F1
:1057F000EDD100BFAE4204D104F11401284600F0FF
:1058000043F800BF00BF0020BDE8F08110B504469A
:1058100004F1140000F01AF8002010BD0FB438B5E0
:1058200005A800907F210848009B049A00F0C0FF63
:1058300004467F2C00D97F240348FFF7AFFE0020E9
:10584000009038BC5DF814FB50020010406000600E
:1058500070474060006070474060006070470268B9
:10586000516002680A6001604860704702685160D8
:1058700002680A600160486070470268516002680F
:105880000A600160486070474268116042684A607F
:1058900041600860704701460868884201D10120D4
:1058A00070470020FCE701460868884201D10120CA
:1058B00070470020FCE7D0E900215160D0E90012D8
:1058C0001160406000607047D0E900215160D0E96C
:1058D0000012116040600060704700002DE9F04147
:1058E000054615B90020BDE8F081E81C20F003054D
:1058F0004E480068854201D90020F4E70C2D00D203
:105900000C254FF0FF314A4800F050FA4948006832
:1059100049490968461A7EE047480068841960884A
:10592000002874D106F10C006168081AA8426ED3F1
:1059300006F10C006168091A05F11800814230D3A4
:1059400006F10C0000EB05083B48006800EB080777
:105950004FF4F55038800020788060687860BE6031
:10596000C4F80480012060803048796800680C30F9
:10597000814205D03049786809680844C0F8088039
:105980002E48016805F10C0008442C4908602C4899
:1059900000680968884219D22848006828490860C8
:1059A00014E001206080244960680968611A401A87
:1059B00022490968084421490860214800680968AB
:1059C000884203D21D4800681D4908604FF4F55015
:1059D000208018480068844212D107E0154800680A
:1059E0004068154909680844124908601148006870
:1059F000408828B10F480068124909688842EDD1F3
:105A00000B4800F0B6F904F10C006CE7FFE70A4818
:105A100000683044466805480068401BB0423FF6C5
:105A20007BAF034800F0A5F900205CE744000010BC
:105A3000D002001040000010380000104800001094
:105A40004C0000103C0000102DE9F0410F461646B6
:105A500004463D463346102B28D305F0030C04F0D2
:105A600003084CEA080CBCF1000F1FD121462A465E
:105A700010E052F804CB41F804CB52F804CB41F8C3
:105A800004CB52F804CB41F804CB52F804CB41F8D4
:105A900004CB103B102BECD204E052F804CB41F8BD
:105AA00004CB1B1F042BF8D20C46154603E015F857
:105AB00001CB04F801CB5FEA030CA3F10103F6D19B
:105AC000BDE8F081F0B50C460546E6B2042A15D3D0
:105AD00000F0030797B9014646EA062343EA034369
