:020000040800F2
:10000000505500208D0200082D110008AD03000896
:1000100029110008BD0A0008AD2F000800000000EB
:100020000000000000000000000000002D15000886
:10003000590E000800000000FB02000839170008F4
:10004000A7020008A7020008A7020008A7020008EC
:10005000A7020008A7020008A7020008A7020008DC
:100060005D0E0008A7020008A7020008A70200080A
:10007000A7020008A7020008A7020008A7020008BC
:10008000A7020008A7020008A7020008A7020008AC
:10009000A7020008A7020008A7020008A70200089C
:1000A000A7020008A7020008A7020008A70200088C
:1000B000A7020008A7020008A7020008A70200087C
:1000C000A7020008A7020008A7020008A70200086C
:1000D000A70200083D1A0008291B0008B11B0008F0
:1000E000A7020008A7020008A7020008A70200084C
:1000F000A7020008A7020008A7020008A70200083C
:10010000A702000881130008A7020008A702000840
:10011000A7020008A7020008A7020008A70200081B
:10012000A7020008A7020008A7020008A70200080B
:10013000A7020008A7020008A7020008A7020008FB
:10014000A7020008A7020008A7020008BD110008C6
:10015000A7020008250B0008650B0008211C0008F9
:10016000A7020008A7020008A7020008A7020008CB
:10017000A7020008A7020008A7020008A7020008BB
:10018000A7020008A702000800F002F800F06FF8CC
:100190000AA090E8000C82448344AAF10107DA45E2
:1001A00001D100F064F8AFF2090EBAE80F0013F0C5
:1001B000010F18BFFB1A43F0010318475C4E000003
:1001C0009C4E00000A444FF0000C10F8013B13F065
:1001D000070408BF10F8014B1D1108BF10F8015BA0
:1001E000641E05D010F8016B641E01F8016BF9D193
:1001F00013F0080F1EBF10F8014BAD1C0C1B09D1EA
:100200006D1E58BF01F801CBFAD505E014F8016B5B
:1002100001F8016B6D1EF9D59142D6D370470000ED
:10022000103A24BF78C878C1FAD8520724BF30C822
:1002300030C144BF04680C607047000000230024F4
:1002400000250026103A28BF78C1FBD8520728BFE6
:1002500030C148BF0B607047642900F0F98000206E
:1002600070471FB504F033FE1FBD10B510BD00F080
:1002700045FA1146FFF7F5FF00F073FA00F063FA54
:1002800003B4FFF7F2FF03BC00F064FA09488047AB
:1002900009480047FEE7FEE7FEE7FEE7FEE7FEE768
:1002A000FEE7FEE7FEE7FEE704480549054A064B80
:1002B000704700000918000889010008504F00200D
:1002C000505500205051002050510020EFF3108075
:1002D00072B6704780F310887047394A1368012B53
:1002E00004D04FF001031360364A1060364A1160A3
:1002F00036484FF0805101607047EFF3108272B6BC
:100300002F48016821B34FF0000101602D480168BA
:1003100091B1EFF309811EF0100F08BF21ED108B92
:1003200021E9F00F4FF000041EF0100F08BF012468
:1003300041F8044D0068016023490968096808C94B
:10034000B1E8F00F002B18BFB1EC108B81F30988D6
:1003500082F310884EF0100E002B18BF2EF0100EF6
:100360004EF0040E704718490860EFF3148222F033
:10037000040282F3148813494FF00000086010490A
:100380004FF00100086012484FF47F01D0F80020C0
:1003900041EA020101600D484FF0805101600D48B3
:1003A0000068006880F3088862B67047EFF3098040
:1003B00000B503F01FFB5DF804EB4EF0040E704730
:1003C00030000010280000102C00001004ED00E0A8
:1003D00020ED00E008ED00E00FB41CB5074B06AAC5
:1003E0007B4469460090059800F06BF9002069464F
:1003F00000F07AF91CBC5DF814FB00000503000056
:1004000070B5044685690068C10601D5302600E054
:100410002026C00707D070BDD4E90121304690479F
:10042000206A401C20626D1EF6D570BD70B5044672
:1004300085690078C00707D170BDD4E9012120206B
:100440009047206A401C20626D1EF6D570BD0000EA
:100450002DE9F0410646002410687529314616A59D
:1004600010D0AFF30080002802DA404213A507E065
:1004700031688A0701D512A502E0490704D511A504
:10048000012401E0AFF3008000210A2206F12407D5
:1004900009E0B0FBF2FCB0FBF2F302FB1C003030D1
:1004A00078541846491C0028F3D123462A46304682
:1004B000BDE8F04100F0A7B8000000002D000000EA
:1004C0002B000000200000002DE9F05F8946044663
:1004D0004FF0000ADFF824B1FB44C0F820A020460A
:1004E000E168884700287DD0252806D0D4E901217D
:1004F0009047206A401C2062F1E700255F462046B5
:10050000E16888472028064607DB312E05D2B81956
:1005100010F8200C08B10543F1E7A80701D525F034
:100520000405C4F81CA00027C4F818A02A2E09D07E
:10053000304602F059FE38B304EB8708303EC8F865
:10054000186019E059F8041B204604EB87029161FA
:10055000E1688847012F064618D1E069002820DAB3
:1005600025F020051DE0D8F8180000EB800006EB10
:1005700040003038C8F818002046E1688847064631
:1005800002F032FE0028EED1012F0AD02E2E08D123
:100590002046E16888477F1C0646022F45F020056B
:1005A000C4DBA069002803DA404245F00105A061E0
:1005B000E80701D025F01005A6B1A6F141001928E1
:1005C00002D8203645F400654A463146204625606B
:1005D0004D46FFF741FE60B1012807D0ED1D25F023
:1005E000070000E007E000F1080978E705F10409D9
:1005F00075E730467AE7206ABDE8F09F1E4B0000A1
:100600007047704770472DE9F0470D46994692466E
:10061000044600F124080168880604D5E06921F049
:100620001001216000E00120A84201DD471B00E02D
:100630000027A1697A1902EB0900081AA061207845
:10064000C00602D42046FFF7DBFE002608E0D4E90E
:1006500001211AF806009047206A401C761C20628F
:100660004E45F4DB2078C0060AD52046FFF7C8FEC9
:1006700006E0D4E9012130209047206A401C206226
:10068000381EA7F10107F4DC07E0D4E9012118F8CE
:1006900005009047206A401C2062281EA5F1010534
:1006A000F3DC2046FFF7C2FE2078000602D50220C8
:1006B000BDE8F0870120FBE701694A1C0261087868
:1006C000704700B58FB0CDE9013100210591054992
:1006D0007944CDE9031011466846FFF7F5FE0FB0E7
:1006E00000BD0000E5FFFFFF0A6802F8010B0A6089
:1006F0007047000000487047EC4E00207546FFF739
:10070000F9FFAE4605006946534620F007008546CE
:1007100018B020B5FFF7C8FDBDE820404FF0000637
:100720004FF000074FF000084FF0000B21F00701D9
:10073000AC46ACE8C009ACE8C009ACE8C009ACE81C
:10074000C0098D4670470446AFF300802046FFF78E
:1007500097FD000001491820ABBEFEE7260002000D
:10076000704710B5FFF7B2FD04F0D0FA002010BDBD
:1007700000B591B00121880500F02CFD214800F062
:1007800033FA00BF1F4800F0DBFA0028FAD14FF01F
:10079000006002901C4803901C4804904020059083
:1007A00030200690002007904FF4806008900020D1
:1007B00009900A900B904FF400300C9000200D909F
:1007C00001200E9000200F90109002A90D4800F01B
:1007D00015FB012210210B4800F0F2FA46208DF89B
:1007E000040002208DF805008DF8060001208DF828
:1007F000070001A800F09CFC0021024800F0E8F985
:1008000011B000BDB864024004100140F80F002090
:1008100010B50446204601F01BF9FFF7A9FF10BDF3
:1008200010B500249948008800F4004000287BD0CF
:1008300097480078752878D1954840786528FAD18E
:100840000E229349091D934803F000FB0E229049A4
:100850001231914803F0FAFA0E228D4920318F4867
:1008600003F0F4FA00BF07E0C4F105008949085C11
:100870008B490855601CC4B2042CF5DB884890ED08
:10088000000ADFED880A20EE200ADFED870A80EEFD
:10089000201AB1EE410A854880ED000A002407E0E5
:1008A000C4F109007B49085C7D490855601CC4B24D
:1008B000042CF5DB7A4890ED000ADFED7A0A20EE91
:1008C000200ADFED790A80EE201AB1EE410A77485E
:1008D00080ED010A002407E0C4F10D006D49085CB9
:1008E0006F490855601CC4B2042CF5DB6C4890EDD0
:1008F000000ADFED6C0A20EE200ADFED6B0A80EEC5
:10090000201A6A4880ED021A002407E0C4F10500AD
:100910006149085C62490855601CC4B2042CF5DBCF
:100920005F4890ED000A01E0A8E0A4E0DFED5D0A79
:1009300020EE200ADFED5C0A80EE201AB2EE040AF7
:1009400021EE400A5A4880ED000A002407E0C4F175
:1009500009005149085C52490855601CC4B2042C76
:10096000F5DB4F4890ED000ADFED4E0A20EE200A3D
:10097000DFED4D0A80EE201AB2EE040A21EE400AA5
:100980004B4880ED010A002407E0C4F10D00424904
:10099000085C43490855601CC4B2042CF5DB404890
:1009A00090ED000ADFED3F0A20EE200ADFED3E0A5F
:1009B00080EE201AB2EE040A21EE000A3C4880EDD7
:1009C000020A002407E0C4F105003449085C3449F8
:1009D0000855601CC4B2042CF5DB314890ED000AC8
:1009E000DFED300A20EE200ADFED2F0A80EE201A1C
:1009F000B2EE040A21EE400A2E4880ED000A0024DF
:100A000007E0C4F109002449085C25490855601C29
:100A1000C4B2042CF5DB224890ED000ADFED210A78
:100A200020EE200ADFED200A80EE201AB2EE040A42
:100A300021EE400A1F4880ED010A002407E0C4F1BE
:100A40000D001549085C16490855601CC4B2042CF9
:100A5000F5DB134890ED000ADFED120A60EE200A84
:100A60009FED111A80EE810AF2EE040A20EE200AB0
:100A7000104880ED020A0020044908800E48808951
:100A800040F004000C49888110BD000006000020E1
:100A9000C80F00202810002036100020441000202D
:100AA0000800002000003443DA0F494054100020B1
:100AB000601000206C1000200010014000BFFEE715
:100AC00070B5044605E01648056805F0450000B11C
:100AD00000E0F8E700BF042000F046FC20B104204D
:100AE00000F03CFC032070BD012000F03DFC20B173
:100AF000012000F033FC0120F5E7094824380068A4
:100B0000A04201D01020EEE740F2FF5000F026FC9A
:100B100003482038006808210840C0B2E3E700001D
:100B2000342C014010B503F013F80B490B4800F0CA
:100B300015F968B10849094800F030F80021074864
:100B400000F046F8012240F22661054801F03FF925
:100B500003F00EF810BD000000802020A0640240C9
:100B60000014014010B50A490A4800F0F7F868B1CE
:100B70000749084800F012F80021064800F028F85C
:100B8000012240F22661044801F021F910BD000065
:100B900000800028B8640240001001400246094B62
:100BA0009A4201D2084801E00648103801F000538B
:100BB0001BB1064B0B40C36002E0044B0B4083604B
:100BC0007047000010640240006002407D0F7D0FFE
:100BD00021B1026842F00102026003E0026822F0E3
:100BE0000102026070470000016821F0010101600C
:100BF0000021016041608160C1600161212141618A
:100C00004A49884204D13D21484A103A91608CE01B
:100C100046491831884205D14FF47461434A103A6D
:100C2000916082E041493031884205D14FF474111E
:100C30003E4A103A916078E03C494831884205D1FB
:100C40004FF07461394A103A91606EE03749603173
:100C5000884204D13649354A103AD16065E03349BB
:100C60007831884204D13349304A103AD1605CE08F
:100C70002E499031884204D12F492C4A103AD16034
:100C800053E02A49A831884205D14FF03D51274A07
:100C9000103AD16049E02949884204D13D21274AD0
:100CA000083A116041E025491831884205D14FF4D6
:100CB0007461224A083A116037E020493031884295
:100CC00005D14FF474111D4A083A11602DE01B49FB
:100CD0004831884205D14FF07461184A083A1160D2
:100CE00023E016496031884204D11149134A121F8A
:100CF00011601AE011497831884204D10D490F4A38
:100D0000121F116011E00D499031884204D10A4947
:100D10000A4A121F116008E00849A831884204D12C
:100D20004FF03D51054A121F11607047106002409C
:100D30003D000020400F002000003D2010640240D4
:100D4000014600200A6802F001020AB1012000E019
:100D5000002070470146486880B2704770B502466F
:100D6000002000240025124EB24201D2114B01E0B6
:100D70000F4B103B104E0E4036B11E2606EAD12412
:100D8000166806EA040502E0566906F0800501F0DF
:100D900000560EB15C6800E01C68084E344004EA5E
:100DA000010616B10DB1012000E0002070BD000069
:100DB00010640240006002403C0F3C0F7D0F7D0F2D
:100DC00010B501F080034BB122B1436943F08003B9
:100DD000436103E0436923F08003436180290BD022
:100DE0002AB1036801F01E042343036004E0036892
:100DF00001F01E04A343036010BD000010B50022E3
:100E00000268134B1A40CC680B6823434C69234398
:100E10008C692343CC6923430C6A23434C6A2343E4
:100E20008C6A23434C6B23438C6B23431A4302602D
:100E3000426922F00702D1E90B3423431A4342618D
:100E40000B6943604B6883608B68C36010BD000012
:100E50003F801CF041607047704700001CB50020C7
:100E60000190009002F074FE01A9112002F022F915
:100E70009DF8040000F00100F8B10021032002F009
:100E800047F96946082002F015F99DF8000000F0C6
:100E9000840030B10121084602F03AF901204F499F
:100EA00008709DF8000000F0030030B101204C49AB
:100EB00008704C49002002F0D1F89DF8040000F0C1
:100EC000020000285AD00024002000906946182013
:100ED00002F0F0F89DF8000000F0840030B102212B
:100EE000012002F015F901203C4948709DF80000EE
:100EF00000F0010000B300203B490860DF2002F051
:100F00006FF80020394908700FE0FF2002F068F800
:100F100037490A880988491C354B19803549885456
:100F200032480078401C3149087030480078FF286A
:100F3000EBDB01202C4908609DF8000000F0020066
:100F4000D8B12C482A4A12888118102002F086F85D
:100F500004460020264909882144264A5054104658
:100F60000078242806D10021084602F055F8012017
:100F70001B49487000201E49088000BF9DF80400EE
:100F800000F00400E8B1002000906946282002F03B
:100F900091F89DF8000000F0840030B10421012098
:100FA00002F0B6F801200D4988709DF8000000F0AD
:100FB000020030B101200A4988700F49202002F058
:100FC0004DF8042000F01CF802F0D2FD04484078EF
:100FD000012802D1094803F0A8F81CBD40000020F8
:100FE00044000020AC2E0020B08240424A00002085
:100FF00048000020F02B00205E2E0020F02D002065
:101000000149086070470000143C0140F0B50A46F1
:1010100000210023002400BF3DE0012505FA01F373
:10102000156805EA03049C4234D105684F00032685
:10103000BE40B543056015794E00B540066835439E
:1010400005601579012D02D01579022D16D185681C
:101050004F000326BE40B543856055794E00B5402C
:10106000866835438560456801268E40B5434560F6
:10107000456896798E40B6B235434560C5684F00E5
:101080000326BE40B543C560D5794E00B540C6685D
:101090003543C560491C1029BFD3F0BDF0B500230E
:1010A00000244D07ED0E02FA05F3CE1000F12005E5
:1010B00055F826504E07F70E0F26BE40B543CF1009
:1010C00000F1200646F82750CE1000F1200555F813
:1010D000265045EA0304CE1000F1200545F82640CD
:1010E000F0BD0183704700001CB50121402000F0D5
:1010F00071F84FF4C060009001208DF804000020CA
:101100008DF806008DF8050001208DF8070069466E
:101110000448FFF77BFF4FF4C0610248FFF7E1FF8F
:101120001CBD00000018024000BFFEE77047000031
:1011300070B5002100230F22C4781CB3174C24681B
:1011400004F4E064C4F5E064C4F30721C1F10404CD
:10115000E3B20A4144789C40E1B2847814402143D0
:101160000C07210E0E4C05786155047804F01F051C
:101170000124AC4005786D11AD0005F1E025C5F8FE
:10118000004109E0047804F01F050124AC40054D3E
:101190000678761145F8264070BD00000CED00E0A1
:1011A00000E400E080E100E002490143024A1160EE
:1011B000704700000000FA050CED00E010B502F0E9
:1011C000C7FC034800F0A2FE02F0D2FC10BD0000F4
:1011D0001C0A002029B1064A12680243044B1A6017
:1011E00004E0034A12688243014B1A607047000012
:1011F0003038024029B1064A12680243044B1A6093
:1012000004E0034A12688243014B1A6070470000F1
:101210004038024029B1064A12680243044B1A6062
:1012200004E0034A12688243014B1A6070470000D1
:101230002038024029B1064A12680243044B1A6062
:1012400004E0034A12688243014B1A6070470000B1
:101250004438024029B1064A12680243044B1A601E
:1012600004E0034A12688243014B1A607047000091
:1012700024380240F0B50021002200240225002677
:101280000223324F3F6807F00C0121B1042905D039
:10129000082937D105E02E4F076036E02D4F076053
:1012A00033E02A4F3F1F3F68C7F38056274F3F1F49
:1012B0003F6807F03F036EB1264FB7FBF3F7DFF847
:1012C0008CC0ACF1040CDCF800C0CCF3881C07FB2C
:1012D0000CF40CE01E4FB7FBF3F7DFF870C0ACF175
:1012E000040CDCF800C0CCF3881C07FB0CF4174F8F
:1012F0003F1F3F68C7F301477F1C7D00B4FBF5F734
:10130000076002E0124F076000BF00BF0F4F3F6849
:1013100007F0F0010909104F7A5C0768D740476071
:101320000A4F3F6807F4E051890A0B4F7A5C47681F
:10133000D7408760054F3F6807F46041490B064F6F
:101340007A5C4768D740C760F0BD000008380240AB
:101350000024F40000127A00140000100149086013
:1013600070470000382C014001460020034A1268F3
:101370000A400AB1012000E000207047342C0140EF
:1013800010B502F0E5FB00F019F802F0F1FB10BD1A
:101390000021094B02681A601A1D11686FF30A01D7
:1013A000D0E901231A43C3681A4303691A4311435E
:1013B000014A121D11607047082C014010B54FF40E
:1013C0008070FFF7D1FF78B34C480078012814D122
:1013D00000204B4908600C204860402088600020B5
:1013E000C8604FF4806008610846FFF7D1FF0C2009
:1013F000FFF766FB4349087002E00020414908708E
:101400004148006840F480703F490860081D00684A
:101410004CF23A3188433C49091D086001203B49A0
:1014200008703848007810BDFFE70220FFF79CFFE6
:1014300078B10220FFF792FF3348001D00684CF29C
:101440003A3188433049091D086002202D4908704F
:10145000E9E70820FFF788FF78B10820FFF77EFF53
:101460002948001D00684CF23A3188432649091D7D
:101470000860042023490870D5E72020FFF774FF97
:1014800078B12020FFF76AFF1F48001D00684CF26A
:101490003A3188431C49091D086006201949087023
:1014A000C1E71020FFF760FF78B11020FFF756FF6B
:1014B0001548001D00684CF23A3188431249091D55
:1014C000086005200F490870ADE74FF40070FFF782
:1014D0004BFF80B14FF40070FFF740FF0A48001D3A
:1014E00000684CF23A3188430749091D086007201B
:1014F0000449087097E7002095E7000039000020B4
:10150000E01000203A000020382C01403B00002071
:101510000246002013890B400BB1012000E000209F
:101520007047014688897047818170477047000085
:1015300070B50546002440F22441124800F01DFC1D
:10154000F0B1104800880F48001D008800210E48A7
:10155000FFF73EFB0D490C48FFF720FB0A48FFF759
:10156000F9FBC0F5007084B222460949284602F012
:101570006DFC084802F0D9FD00F09AF8204670BDD5
:101580000020FCE70014014028640240000800101D
:10159000881300208819002010B540F22661074802
:1015A00000F0DEFB40B9002240F22661034800F063
:1015B0000EFC00200249087010BD0000001401401C
:1015C0004C0000200CB500200190009034480068C9
:1015D00040F480303249086000BF3148006800F4B0
:1015E000003000900198401C0190009818B90198B3
:1015F000B0F5A04FF1D12A48006800F4003010B1D6
:101600000120009001E0002000900098012846D1C0
:1016100023484030006840F0805021494031086044
:101620002048006840F440401E4908601C480830CB
:1016300000681B49083108600846006840F4004013
:1016400008600846006840F4A05008601648091F6A
:101650000860081F006840F08070091F086000BF24
:101660000F48006800F000700028F9D040F20570C3
:101670000E4908600A480830006820F00300084955
:10168000083108600846006840F00200086000BFAA
:1016900003480830006800F00C000828F8D10CBDA1
:1016A000003802400070004008544007003C0240EF
:1016B00000B58FB001218805FFF78CFD1B48FFF7AF
:1016C00093FA00BF1948FFF73BFB0028FAD14FF00F
:1016D0002060009016480190164802900020039068
:1016E0004FF400700490002005904FF48060069045
:1016F00000200790089009904FF440300A90002095
:101700000B9001200C9000200D900E906946074828
:10171000FFF774FB012240210548001F00F09EFAEC
:1017200001210248FFF754FA0FB000BD28640240BF
:10173000041401408813002010B502F009FA03F0E8
:101740001DF802F015FA10BD70B50020002202232A
:1017500000240221274D2D6805F00C0020B104283B
:1017600006D0082834D107E0234D244E356033E0FD
:10177000234D224E35602FE01E4D2D1F2D68C5F3E1
:1017800080541C4D2D1F2D6805F03F0154B11C4D98
:10179000B5FBF1F5174E361F3668C6F3881605FB04
:1017A00006F209E0144DB5FBF1F5124E361F36680E
:1017B000C6F3881605FB06F20E4D2D1F2D68C5F3E6
:1017C00001456D1C6B00B2FBF3F50C4E356003E078
:1017D000094D0A4E356000BF00BF064D2D68C5F3A8
:1017E0000315084E705D054D2D68C540034E3560EC
:1017F00070BD0000083802400024F4000000001012
:1018000000127A000400001010B51548006840F47A
:101810007000134908601348006840F00100114946
:10182000086000200F49083108600E4800680E4922
:1018300008400C4908600D48091D0860081F006831
:1018400020F48020091F0860002006490C31086040
:10185000FFF7B8FE4FF0006001498039086010BD05
:1018600088ED00E000380240FFFFF6FE1030002453
:1018700000B52DED068B85B04148007801287BD15D
:10188000FEF7CEFF3F4890ED020A10EE101A084610
:1018900003F0ACFA41EC180B3A4890ED010A10EE57
:1018A000101A084603F0A2FA41EC190B354890EDE6
:1018B000000A10EE101A084603F098FA41EC1A0BD1
:1018C0008DED028B8DED009B53EC1A2B2EA002F0B8
:1018D000A7F93B4890ED020A10EE101A084603F0F3
:1018E00085FA41EC180B364890ED010A10EE101AFB
:1018F000084603F07BFA41EC190B314890ED000AE1
:1019000010EE101A084603F071FA41EC1A0B8DED37
:10191000028B8DED009B53EC1A2B2AA002F080F96C
:10192000364890ED020A10EE101A084603F05EFAEF
:1019300041EC180B314890ED010A10EE101A0846E0
:1019400003F054FA41EC190B2C4890ED000A10EE0C
:10195000101A084603F04AFA41EC1A0B8DED028B7F
:101960008DED009B53EC1A2B25A002F059F90020B5
:10197000314908800249087005B0BDEC068B00BDF6
:101980000400002054100020414852532061747418
:10199000757469646520646174613A726F6C6C2D52
:1019A0002531302E34662C70697463682D253130F2
:1019B0002E34662C7961772D2531302E34660A005D
:1019C000601000204148525320616E675261746577
:1019D0002020646174613A782D2020202531302E3A
:1019E00034662C792D202020202531302E34662C91
:1019F0007A2D20202531302E34660A006C1000200C
:101A000041485253206163635261746520206461D0
:101A100074613A782D2020202531302E34662C79BF
:101A20002D202020202531302E34662C7A2D2020A8
:101A30002531302E34660A000600002010B502F071
:101A400087F801F087FC01F051FC02F091F810BD1D
:101A500010B588B00446302200212F4802F034FA35
:101A6000302200212D4802F02FFA2D4800F000F915
:101A700001210220FFF7AEFB01211020FFF7DAFB66
:101A8000C020069002208DF81C0000208DF81E005A
:101A900001208DF81F0000208DF81D0006A92148A7
:101AA000FFF7B4FA072206211E48FFF7F7FA0722CC
:101AB00011461C48FFF7F2FA02940020ADF80C0022
:101AC000ADF80E00ADF81000ADF814000C20ADF824
:101AD000120002A9124800F09FF925208DF8040099
:101AE00002208DF8050001208DF806008DF8070012
:101AF00001A8FFF71DFB01228021094800F0AEF884
:101B0000012240F22551064800F061F90121044804
:101B100000F098F808B010BDC80F0020F80F0020A2
:101B2000001001400004024010B5002402F010F83B
:101B300040F22441174800F020F938B315480088D6
:101B40001448001D008800211348FFF741F813498D
:101B50001148FFF723F81048FFF7FCF8C0F1100018
:101B600084B222460E490F4802F070F910210A484B
:101B7000FFF770F901210848FFF72AF80A2C05DB66
:101B800000200949086001200849087001F0F0FFB1
:101B900010BD0000004400408860024000080020A2
:101BA00078100020881000208002414210000020A0
:101BB00010B501F0CDFF40F22551144800F0DDF8DA
:101BC00008B31248001D0088C4B21148008800F410
:101BD0000040C0B90E480088202808DA0C48018867
:101BE0000088401C0A4A10800A4844540BE0084808
:101BF000008840F40040064908800020064908603B
:101C000001200649087001F0B3FF10BD00480040F4
:101C10001A00002098100020A482424218000020E0
:101C200010B501F095FFFFF7B7FC0448FFF780FC03
:101C30000349088001F09CFF10BD000088150020BA
:101C40004E00002021B1828942F40052828104E0DA
:101C500082894DF6FF731A40828170471AB1838AD8
:101C60000B43838202E0838A8B43838270470000A8
:101C700010B504463248844208D101211020FFF7F4
:101C8000E9FA00211020FFF7E5FA57E02D488442D9
:101C900009D101214804FFF7BDFA00214FF40030BB
:101CA000FFF7B8FA4AE02848844209D101218804A4
:101CB000FFF7B0FA00214FF48020FFF7ABFA3DE0C8
:101CC0002248844209D10121C804FFF7A3FA002168
:101CD0004FF40020FFF79EFA30E01D48844209D1FE
:101CE00001210805FFF796FA00214FF48010FFF755
:101CF00091FA23E01748844208D101212020FFF700
:101D0000A9FA00212020FFF7A5FA17E01248844223
:101D100009D101218807FFF77DFA00214FF08040AB
:101D2000FFF778FA0AE00D48844207D10121400507
:101D3000FFF770FA00216005FFF76CFA10BD000094
:101D4000001001400044004000480040004C0040AA
:101D5000005000400014014000780040007C00402A
:101D600002460020B1F5007F00D100BF13880B4070
:101D70000BB1012000E00020704770B5024600243E
:101D800000230025002040F66A16B14200D100BFB2
:101D9000C1F3421501F01F03012606FA03F3012DDA
:101DA00002D19689334006E0022D02D1168A3340D3
:101DB00001E0968A33400C12012606FA04F41688D4
:101DC000344013B10CB1012000E0002070BDF0B52B
:101DD0000346002400260025002040F66A17B94279
:101DE00000D100BF1846C1F3421401F01F060127BD
:101DF00007FA06F5012C01D10C3004E0022C01D1C8
:101E0000103000E014301AB107682F43076002E079
:101E10000768AF430760F0BD2DE9FF4705460E4652
:101E20000024A14600BFA046B08900B100BF2C8AA3
:101E300024F44054F08804432C82AC8941F20C60B5
:101E40008443B08831890843718908430443AC81D5
:101E5000AC8A24F44074B0890443AC826846FFF72E
:101E600009FA2048854202D01F48854202D1DDF898
:101E70000C9001E0DDF80890A88900F4004040B122
:101E800009EBC90000EB091031684900B0FBF1F71C
:101E900007E009EBC90000EB091031688900B0FBCD
:101EA000F1F76420B7FBF0F004012009642101FB85
:101EB0001078A88900F4004040B1322000EBC8003F
:101EC000B0FBF1F000F00700044308E0322000EB23
:101ED00008106421B0FBF1F000F00F0004432C81E6
:101EE000BDE8FF870010014000140140C1F3080263
:101EF0008280704701460122C1F8102300207047FC
:101F000001460022C1F810230020704738B505466D
:101F1000002400200090284600F0DDF8002847D07B
:101F2000284600F0E2F80090009808B9002038BD7B
:101F30000098C0F3C00018B1284601F001F804432E
:101F40000098C0F3001018B1284600F046FF044383
:101F50000098C0F3401018B1284600F080FD0443FB
:101F60000098C0F3806018B1284600F09FFE04433B
:101F70000098C0F3406018B1284600F048F90443C7
:101F80000098C0F3006018B1284600F0FFFD04433C
:101F90000098C0F3407018B1284600F0FFF80443E1
:101FA0000098C0F3405018B1284600F00DF90443E2
:101FB0002046BCE701460020704770B50446002566
:101FC00000BF05E04FF47A7001F048FA681C85B252
:101FD000A542F7D370BD0146C868406900F0010012
:101FE00070471CB50246002000230093009B23F09D
:101FF000004303F1004300930124009B64F3DC439E
:10200000009302F1900353F82130009C1C6102F10F
:10201000900353F821301B680193019B23F0004388
:1020200003F100430193019B23F08043019302F1EC
:10203000900353F82130019C1C601CBD10B586B084
:102040000246002000230393019302F1900353F80A
:1020500021301B680093009B23F0004303F10043F1
:102060000093009B23F0804303F180430093009B87
:10207000C3F3814323B1009BC3F38143022B0BD1F4
:10208000D368DB6A0393039BC3F307437BB9009BCD
:1020900023F0004300930AE053691B690193019BFD
:1020A000C3F307431BB9009B23F00043009302F1E5
:1020B000900353F82130009C1C6006B010BD08B599
:1020C000426912680092009A61F301020092009B3B
:1020D0004269136008BD00B502461046FFF77BFF5A
:1020E000012800D100BD0020FCE701460020CA689D
:1020F0005069CA6892691040704708B50146D1F826
:10210000CC0000680090009820F004000090009837
:1021100020F002000090009820F008000090009845
:1021200020F020000090009808BD014648694069F1
:102130007047F0B503460024D01CC71700EB977713
:10214000BD10D3F8D06000BF03E030680860641CA5
:10215000091DAC42F9D30846F0BD38B50446204607
:10216000FFF7CBFF0090009820F4807000F580709E
:1021700000900099D4F8CC0001600A20FFF71DFF01
:10218000009820F4807000900099D4F8CC00016091
:102190001420FFF712FF012038BD000038B50446B7
:1021A0000020009007480068816820468847009812
:1021B00020F0005000F1005000900098E168486164
:1021C000012038BD600000200CB50146D1F8900018
:1021D00000680090009820F0004000F1004000905E
:1021E000009820F0804000F180400090009AD1F8E3
:1021F0009000026000200190019820F4001000F58A
:10220000001001900198CA68506101200CBD7CB596
:102210000546002400262846FFF787FF019000BFEF
:102220001BE0019880B20121A1400840A0B105F156
:10223000900050F82400006800900098C0F3C0306F
:1022400028B12146284600F00DF8064304E0214657
:10225000284600F01CFA0643641C2878A042E0D807
:1022600030467CBD70B586B005460C4605F1900041
:1022700050F82460B0680590F0680490DDE904101F
:102280000840059005F1900050F824000068039084
:10229000002004900598C0F38000D0B10020019088
:1022A000019820F00400001D01900198B06005F134
:1022B000900050F82400C0680190019820F00200BE
:1022C000801C019005F1900050F824000199C16034
:1022D00073E00598C0F3401048B1002001900198C8
:1022E00020F02000203001900198B06065E0059852
:1022F000C0F3C00078B305F1900050F82400C06826
:102300000190019820F00200801C019005F19000DE
:1023100050F824000199C160052105F5637001554D
:1023200000200190019820F01000103001900198D9
:10233000B06000200190019820F008000830019062
:102340000198B060059820F010000590E1B2284691
:10235000FFF774FE31E0FFE70598C0F3802060B31B
:1023600005F1900050F82400C0680190019820F019
:102370000200801C019005F1900050F824000199A2
:10238000C160E1B22846FFF759FE00200190019894
:1023900020F01000103001900198B060082105F580
:1023A0006370015500200190019820F4806000F5D1
:1023B000806001900198B06000BF0598C0F3402094
:1023C000F8B105F1900050F82400C0680190019820
:1023D00020F00200801C019005F1900050F82400CC
:1023E0000199C160E1B22846FFF728FE0020019064
:1023F000019820F4007000F5007001900198B06021
:1024000042E1059800F00100002871D0E878012829
:1024100012D105F1900050F824000069029005F5F2
:102420006B7000EB441000690299C1F31201411A6C
:1024300005F5547040F82410012105F5637001552D
:102440000021783840F8241000200190019820F0F5
:102450000100401C01900198B0600398C0F38140D6
:1024600020B10398C0F3814002282AD105F19000E1
:1024700050F82400C0680190019820F00200801CF0
:10248000019005F1900050F824000199C160E1B27B
:102490002846FFF7D3FD00200190019820F010009E
:1024A000103001900198B06005F56B7000EB44109E
:1024B000007E80F0010105F56B7000EB44100176A1
:1024C000E2E00398C0F38140032899D1039820F0FB
:1024D000005000F10050039005F1900050F82400E6
:1024E00003990160012105F29B300155CCE0FFE723
:1024F0000598C0F34000002851D005F1900050F835
:102500002400C0680190019820F00200019005F1BC
:10251000900050F824000199C16005F56370005DDA
:10252000012804D1012105F29B3001552DE005F56C
:102530006370005D052804D1042105F29B3001552C
:1025400023E005F56370005D062804D005F563708F
:10255000005D082808D1002105F5457040F82410D9
:1025600003218730015510E00398C0F38140032810
:102570000BD105F56B7000EB4410007E80F001017B
:1025800005F56B7000EB4410017600200190019876
:1025900020F00200801C01900198B06074E0059862
:1025A000C0F3C01040B305F1900050F82400C0689B
:1025B0000190019820F00200801C019005F190002C
:1025C00050F824000199C16005F5457050F82410B9
:1025D000491C40F82410062178300155E1B2284604
:1025E000FFF72CFD00200190019820F08000803042
:1025F00001900198B06047E00598C0F30010E8B37F
:102600000398C0F38140032815D105F1900050F8DC
:102610002400C0680190019820F00200801C019005
:1026200005F1900050F824000199C160E1B22846FC
:10263000FFF704FD18E00398C0F3814020B1039830
:10264000C0F3814002280FD1039820F0004000F130
:1026500000400390039820F08040039005F1900023
:1026600050F8240003990160032105F563700155BA
:1026700000200190019820F0100000E004E01030EC
:1026800001900198B06000BF012006B070BD7FB519
:1026900005460C4605F1900050F82460B0680390A0
:1026A000F0680290DDE902100840039005F1900007
:1026B00050F82400006801900398C0F38000D0B166
:1026C00000200090009820F00400001D0090009869
:1026D000B06005F1900050F82400C06800900098A8
:1026E00020F00200801C009005F1900050F82400BA
:1026F0000099C160B0E10398C0F3401048B10020D8
:102700000090009820F02000203000900098B060E9
:10271000A2E10398C0F34020F8B105F1900050F811
:102720002400C0680090009820F00200801C0090F7
:1027300005F1900050F824000099C160E1B22846EC
:10274000FFF77CFC00200090009820F4007000F55A
:10275000007000900098B0607EE1039800F00100E6
:1027600038B3002105F5457040F8241005F19000BC
:1027700050F82400C0680090009820F00200801CEF
:10278000009005F1900050F824000099C160E1B27A
:102790002846FFF753FC00200090009820F001002D
:1027A000401C00900098B060012105F56370015550
:1027B00052E10398C0F3C00010B3002000900098CD
:1027C00020F00800083000900098B06005F19000FB
:1027D00050F82400C0680090009820F00200801C8F
:1027E000009005F1900050F824000099C160E1B21A
:1027F0002846FFF723FC052105F5637001552BE101
:102800000398C0F3001038B3002105F5457040F877
:10281000241005F1900050F82400C0680090009842
:1028200020F00200801C009005F1900050F8240078
:102830000099C160E1B22846FFF700FC002000903B
:10284000009820F01000103000900098B060032134
:1028500005F563700155FFE00398C0F3C01040B365
:1028600005F1900050F82400C0680090009820F016
:102870000200801C009005F1900050F8240000999F
:10288000C160E1B22846FFF7D9FB05F5457050F865
:102890002410491C40F824100621783001550020EE
:1028A0000090009820F08000803000900098B06088
:1028B000D2E00398C0F3801038B3002105F54570CD
:1028C00040F8241005F1900050F82400C0680090F2
:1028D000009820F00200801C009005F1900050F854
:1028E00024000099C160E1B22846FFF7A7FB002051
:1028F0000090009820F04000403000900098B060B8
:10290000042105F563700155A6E00398C0F380200B
:1029100060B305F1900050F82400C0680090009862
:1029200020F00200801C009005F1900050F8240077
:102930000099C160E1B22846FFF780FB00200090BB
:10294000009820F01000103000900098B06008212E
:1029500005F56370015500200090009820F4806018
:1029600000F5806000900098B06075E00398C0F3B7
:102970004000002870D005F1900050F82400C06895
:102980000090009820F00200009005F1900050F8AF
:1029900024000099C16005F56370005D012815D120
:1029A000012105F29B3001550198C0F381400228B6
:1029B00048D105F56B7000EB4410407E80F00101BA
:1029C00005F56B7000EB441041763BE005F5637054
:1029D000005D032804D1022105F29B30015531E04E
:1029E00005F56370005D04280FD105F56B7000EBF1
:1029F00044100079012803D1E1B22846FFF7F1FA2B
:102A0000022105F29B3001551CE005F56370005D65
:102A1000052804D1042105F29B30015512E005F58B
:102A20006370005D06280DD105F5457050F824004F
:102A3000032807D1032105F29B3001550021873877
:102A400040F8241000200090009820F00200801C24
:102A500000900098B06000BF012004B070BD7FB549
:102A60000446E068C06A00900198C0F3C30104F511
:102A70006B7000EB41100069C01CC0F38F0673E05F
:102A80004FF6FF71009801EA80050198C0F3C30179
:102A900004F56B7000EB41100069A84215D2019853
:102AA000C0F3C30104F56B7000EB4110008A85B2DE
:102AB00000200390039820F0200020300390E0686D
:102AC000806903998843E16888610198C0F3C30174
:102AD00004F56B7000EB41100069C01CC0F38F0659
:102AE0000198C0F3C302C0F3C30304F56B7000EB9D
:102AF00043102B46C168204600F038FA0198C0F315
:102B0000C30104F56B7000EB4110C06841190198D6
:102B1000C0F3C30204F56B7000EB4210C160019872
:102B2000C0F3C30104F56B7000EB41100069411B59
:102B30000198C0F3C30204F56B7000EB4210016111
:102B40000198C0F3C30104F56B7000EB41104069BC
:102B500041190198C0F3C30204F56B7000EB4210F9
:102B60004161E068C06A0090009880B2B0420ADD1E
:102B70000198C0F3C30104F56B7000EB41100069CC
:102B800000287FF47DAF012004B070BDFEB504467F
:102B9000002600250020009002900190D4F8CC007F
:102BA00000680290D4F8CC0000680190019820F0F1
:102BB00004000190019820F002000190019820F09B
:102BC00008000190019820F0200001900298C0F3C5
:102BD000400058B1019820F00200801C019032485A
:102BE000006841682046884745F001050298C0F317
:102BF000C000002842D0019820F008000830019061
:102C00000298C0F38000002838D027480068416847
:102C1000204688470298C0F34140022804D0029819
:102C2000C0F34140012828D16069006800900298F3
:102C3000C0F34140022811D141F2707160694160D6
:102C4000009800F00300022818D0207A022803D14F
:102C500002212046FFF733FA01260FE04BF68031C0
:102C600060694160009800F00300012806D001214E
:102C70002046FFF724FA012600E001260298C0F35F
:102C8000401030B1019820F020002030019045F034
:102C9000010516B12046FFF760FA0199D4F8CC007F
:102CA00001602846FEBD000060000020FEB504461D
:102CB0006069006900900198C0F3C30104F56B706E
:102CC00000EB41100069C01CC0F38F0674E04FF6A2
:102CD000FF71009801EA80050198C0F3C30104F573
:102CE0006B7000EB41100069A84216D20198C0F346
:102CF000C30104F56B7000EB4110008A85B200201F
:102D00000290029820F0806000F180600290E068FC
:102D1000806902998843E16888610198C0F3C30122
:102D200004F56B7000EB41100069C01CC0F38F0606
:102D30000198C0F3C302C0F3C30304F56B7000EB4A
:102D400043102B46C168204600F010F90198C0F3EB
:102D5000C30104F56B7000EB4110C0684119019884
:102D6000C0F3C30204F56B7000EB4210C160019820
:102D7000C0F3C30104F56B7000EB41100069411B07
:102D80000198C0F3C30204F56B7000EB42100161BF
:102D90000198C0F3C30104F56B7000EB411040696A
:102DA00041190198C0F3C30204F56B7000EB4210A7
:102DB0004161606900690090009880B2B0420ADD0C
:102DC0000198C0F3C30104F56B7000EB411000697A
:102DD00000287FF47CAF0120FEBD30B585B00446ED
:102DE000002000900390039820F010001030039012
:102DF000E068806903998843E1688861E068006A57
:102E00000490049800F00F00009004F190009DF8E9
:102E1000001050F82100006801900498C0F343406E
:102E2000022806D0032878D0052877D0072873D148
:102E300075E00498C0F30A10002869DD04F56B7092
:102E40009DF8001000EB4110C068002860D0049885
:102E5000C0F30A1204F56B709DF8003000EB4310CC
:102E6000C1682046FFF765F9049800F00F0104F5EA
:102E70006B7000EB4110C0680499C1F30A11014462
:102E8000049800F00F0204F56B7000EB4210C16073
:102E9000049800F00F0104F56B7000EB41104069DD
:102EA0000499C1F30A110144049800F00F0204F5DB
:102EB0006B7000EB4210416104F56B709DF80010DF
:102EC00000EB4110456904F554709DF8001040F87E
:102ED000215004F190009DF8001050F82100006985
:102EE00002900298C0F3C940002811DD019820F03B
:102EF000004000F100400190019820F080400190D6
:102F000004F190009DF80020019950F82200016022
:102F100006E002E002E0FFE700BF00BF00BF00BF25
:102F200000BF039820F0100010300390E068806923
:102F300003990843E1688861012005B030BD0000B5
:102F400038B5044600200090074800680168204614
:102F50008847009820F00800083000900098E16849
:102F60004861012038BD0000600000202DE9F041DB
:102F700004460026E078B0B900270020DD1C4FEAA7
:102F8000E57805EB98784FEAA80704F1D00555F8E5
:102F900022C000BF04E00D68CCF80050401C091DA1
:102FA000B842F8D300BF3046BDE8F08100BFFEE76D
:102FB000F8B504460D4600200090002644F00606B1
:102FC0006946304600F076F80120A8409DF80020C0
:102FD0001043C1B2304600F09BF80020F8BD00005D
:102FE00010B5044600BF02210A48FEF791FA0028F6
:102FF000F9D021460748FEF797FA00BF012105489E
:10300000FEF786FA0028F9D00248FEF78AFAC0B225
:1030100010BD00000038004038B504460D46694632
:10302000002000F047F855B90120A0409DF800208D
:1030300022EA0001002000F06BF8002038BD012DCD
:103040000AD10120A0409DF800201043C1B2002009
:1030500000F05EF80020F1E70120EFE7F8B5044644
:103060000E4600270020009044F00A0769463846C3
:1030700000F020F844F0CF0700200D4908603846E2
:10308000FFF7AEFF002505E0FF20FFF7A9FF705511
:10309000681CC5B29DF800008542F5DB012004499B
:1030A000086000212046FFF783FF9DF80000F8BD6F
:1030B000B08240427CB504460D4612A000680190E3
:1030C0000020009044F040008DF8000000200E49E0
:1030D00008609DF80400FFF783FF8DF800009DF85D
:1030E0000500FFF77DFF8DF801009DF801002870B5
:1030F00001200649C1F8B002022000F0AFF900201B
:103100007CBD000000FF0000B082404200804042D1
:1031100038B504460D46002000908DF800408DF82B
:1031200001500B4908609DF80000FFF759FF9DF81A
:103130000100FFF755FF022000F090F9012005493A
:10314000C1F8B002022000F089F9002038BD00006B
:10315000B0824042008040420146481EB0F1807F6C
:1031600001D301207047481E4FF0E0225061FF203C
:10317000044A107000204FF0E02290610720106197
:103180000020EFE723ED00E0014609B90020704779
:10319000C8B220B1C8B20E4A105C401CF7E701F477
:1031A0007F4028B10A48C1F30722805C0930EEE76E
:1031B00001F47F0028B10648C1F30742805C11305A
:1031C000E5E7034800EB116000781930DFE7000005
:1031D000D84E000803490868884201D00120704792
:1031E0000020FCE7B000001030380A2801D201208E
:1031F00070470020704700002DE9FC5F04468B46B5
:1032000015461E46DDE90C9ADDE90E7804F114003E
:103210004060006000BF1C346560A660C4F80C907C
:10322000A4F810A0228A2321E06800F04DFEB4F833
:1032300010C0E36863441A1F0E4BD4E9010100F08B
:103240005FFC2060A7766776C4F82880C4F82C80DD
:10325000002060612076E06520661C3C00902346DB
:10326000054A2146019004F14C0001F009FB0020C1
:10327000BDE8FC9FC1440008EF4600082DE9F04777
:1032800004460E4617469846DDF8209084F80990CB
:10329000607A20F001006072E66127620020A0627F
:1032A000C4F82480002506E004F1140101EBC500F8
:1032B00000F0D4FC6D1C012DF6DBBDE8F08710B5E5
:1032C0000246002001460EE002F1140303EBC100A8
:1032D000D0E900436360D0E90034236040600060BF
:1032E00000BF481C01460129EEDB10BD10B540F2BD
:1032F00025511448FEF741FD18B312488088C4B226
:103300001148008800F40040D8B90F4800883028E0
:1033100008DA0D4801880088401C0B4A10800B48D1
:1033200044540EE00848008840F4004006490880F4
:103330000448808920F00400024988810120044962
:10334000087010BD0010014006000020C80F0020CA
:103350000400002010B540F226610748FEF700FD8A
:1033600040B9002240F226610348FEF730FD0020FC
:103370000249087010BD0000001001400500002047
:10338000054800680549B0FBF1F0054908600220D6
:1033900004490860704700000000001040420F0020
:1033A00024000020280000202DE9F04104464FF0C1
:1033B000E02040694FF0E0218969471A0025002686
:1033C0001F48007858B31F480068844228D31D481E
:1033D0000068B4FBF0F085B21A480068B4FBF0F165
:1033E00000FB114418480068B7FBF0F004EB4401FF
:1033F000C1EBC41100EBC1061248006800EB4001AC
:10340000C1EBC010B6EBC00F0FD9681C85B20D48D8
:10341000006800EB4001C1EBC010A6EBC00604E061
:1034200000254FF47A7004FB00F61DB1284601F028
:1034300040F800E000BF304600F010F8BDE8F08131
:103440002C000020280000202400002010B500F0EF
:103450000BFA10BD10B500F017FA10BD2DE9F047BA
:10346000074600264FF0E020D0F81490104800687E
:1034700007FB00F8FFF7EAFF4FF0E020856911E055
:103480004FF0E0208469AC420CD0AC4202D2281B41
:10349000064403E0A9EB04002844064425464645BB
:1034A00000D300E0ECE700BFFFF7D4FFBDE8F087F2
:1034B0002400002007E04FF47A70FFF775FF4FF407
:1034C0007A70FFF771FFF6E715E000240A480288DA
:1034D0000AA11248FCF780FF074801880088401CB9
:1034E000054B18800EA000F09BFBFEF7C1F90A20E7
:1034F000FFF75AFF00BFE8E7000000203132333405
:1035000035363738393071617A7773D5E2CAC7B248
:10351000E2CAD43A253034640D0A0000680900205C
:10352000202025640A0000007FB50024FCF7CEFEB1
:103530000546FDF7D9FD4FF4E130FDF769F90020AC
:103540001D49086003E04FF47A70FFF787FF2046BB
:10355000611C8CB2B0F57A7FF5DB0120164908605A
:1035600016A000F05DFB2846FCF7B4FE14200421F1
:103570000A02144BCDE90032CDE902100023124AB1
:1035800012A1144801F024F8124801F07FF8142029
:1035900005214FF48062104BCDE90032CDE90210D5
:1035A00000230E4A0EA1104801F012F80E4801F057
:1035B0006DF8002004B070BDA402434272657365CB
:1035C00074210A0068010020B53400086C6564307D
:1035D000000000006800002068050020C9340008D1
:1035E0006C65643100000000E800002010B504465E
:1035F00000F02CF9FFF798FF10BD000030B51A4C11
:10360000436824681919884215D04B889BB9174B19
:103610001B6899420FD0164B1B688B4201D1144B8B
:1036200018604B684360104B1B68C31A0E4D4C6802
:103630002D682C44A3600C4C836824681A198242BC
:1036400011D053887BB90A4B1B68834201D1084BC8
:103650001A6043685360044B1B68D31A024D4468D8
:103660002D682C44A36030BD380000103C000010D1
:10367000400000102DE9F04F85B00D469C46DDE975
:103680000F740E9B04F04008B8F1000F02D0DFF871
:10369000688101E0DFF86481CDF8008004F0100853
:1036A000B8F1000F01D024F0010404F00108B8F1D2
:1036B000000F02D04FF0300801E04FF02008C24662
:1036C000002604F00208B8F1000F11D0002A02DA37
:1036D0002D2652420CE004F00408B8F1000F01D08E
:1036E0002B2605E004F00808B8F1000F00D02026D2
:1036F000002142B94FF0300B8846491C0DF10409F6
:1037000009F808B01DE01AE0E146B9F10A0F08D146
:103710004FF00A0BB2FBFBFE0BFB1E28B2FBFBF2C9
:1037200002E002F00F08120900BFDDF8009019F85E
:1037300008B08846491C0DF1040909F808B0002AB0
:10374000E2D1B94200DD0F46DB1B04F01108B8F1ED
:10375000000F10D116B1002B00DD5B1E06E0A84261
:1037600003D84FF0200880F80080401CB3F1000817
:10377000A3F10103F3DC26B1A84201D806705B1E59
:10378000401C04F01008B8F1000F0AD104E0A84270
:1037900001D880F800A0401CB3F10008A3F1010398
:1037A000F5DC06E0A84203D84FF0300880F800802E
:1037B000401CB8467F1E8845F4DC08E0A84205D8C6
:1037C0000DF1040818F8018080F80080401CB1F168
:1037D0000008A1F10101F1DC06E0A84203D84FF096
:1037E000200880F80080401CB3F10008A3F1010319
:1037F000F3DC05B0BDE8F08FE94F0008D84F0008B2
:103800001CB514200A214FF400630022CDE90010FA
:10381000044905A000F025FE0446204600F036FFCE
:103820001CBD0000ED3500086D61696E00000000F0
:1038300010B5044C02E020688047241D02488442F1
:10384000F9D310BD0C5000081050000810B5044CFE
:1038500002E020688047241D02488442F9D310BD4D
:10386000105000081450000810B5FCF72FFD044656
:1038700004480088401C00B2024908802046FCF73A
:1038800029FD10BDA000001010B5FCF71FFD044677
:103890000B480088401E00B2094908800846B0F96C
:1038A0000000002807DC002008802046FCF712FDFD
:1038B00000F09CFB02E02046FCF70CFD10BD000070
:1038C000A000001070B5054605B970BD1648006827
:1038D000854203D315480068854200D3F5E7A5F17A
:1038E0000C044FF0FF31124800F03CFC00206080D7
:1038F0004FF4F55020800F480068844201D20D48F3
:103900000460094960680968611A401A0A4909682F
:10391000081A094908602046FFF770FE044800F0C5
:1039200004FC00BFD1E70000380000103C0000108C
:10393000C40200104000001048000010004870470A
:10394000EC2E002000487047EC4E002070B5FDF7CB
:10395000FBFE114800684FF4FA71B0FBF1F4204609
:10396000FFF7FAFBFFF70CFD01200C4908704FF43C
:10397000A060FDF719FC4FF4E13001F0EFF9FFF71B
:1039800057FFFFF7DFFF0446FFF7D8FF0546214644
:1039900000F09EFC70BD0000000000102C00002014
:1039A00070B50446FCF792FC054619E020780A2819
:1039B0000AD10D210E48FEF799FA00BF80210C486C
:1039C000FEF7CEF90028F9D014F8011B0848FEF7DD
:1039D0008DFA00BF80210648FEF7C2F90028F9D011
:1039E00020780028E2D12846FCF774FC70BD000066
:1039F000004C004070B504461948006838B12046B4
:103A0000174909688847054605B970BD00BF15A06C
:103A1000E16900F005F917A0A16900F001F919A00A
:103A2000616900F0FDF81BA0216900F0F9F81DA004
:103A3000E16800F0F5F81FA0A16800F0F1F821A0FE
:103A4000616800F0EDF823A0216800F0E9F800F0CB
:103A5000F5FD0546294623A000F0E2F800BFFEE789
:103A6000340000107073723A203078253038780AAC
:103A7000000000002070633A203078253038780A42
:103A800000000000206C723A203078253038780A27
:103A9000000000007231323A203078253038780A40
:103AA000000000007230333A203078253038780A30
:103AB000000000007230323A203078253038780A21
:103AC000000000007230313A203078253038780A12
:103AD000000000007230303A203078253038780A03
:103AE0000000000068617264206661756C74206F6C
:103AF0006E207468726561643A2025730A000000C4
:103B0000F0B504460D461646301D20F00700443837
:103B10000146002203E00D4F41F82270521C112A89
:103B2000F9D34D624FF0000CC1F828C0C1F82CC089
:103B3000C1F830C0C1F834C08B63CC634FF0807CD7
:103B4000C1F840C000270F60F0BD0000EFBEADDE41
:103B500010B5FCF7BBFB044604480078401C034941
:103B600008702046FCF7B6FB10BD00006600002080
:103B700010B5FCF7ABFB044604480078401E03492F
:103B800008702046FCF7A6FB10BD00006600002070
:103B900070B504462068A0F11405284600F032FDF7
:103BA000002070BD2DE9F04105460C4690462046A8
:103BB00000F082FDB8F1000F03D0B8F1010F23D15E
:103BC00005E004F11401284600F060F81CE02E68BE
:103BD0000FE0A6F1140794F8350097F835108842E5
:103BE00006DA04F1140107F1140000F04FF802E0C6
:103BF0003668AE42EDD100BFAE4204D104F11401EB
:103C0000284600F043F800BF00BF0020BDE8F08167
:103C100010B5044604F1140000F01AF8002010BD9D
:103C20000FB438B505A800907F210848009B049A7E
:103C300000F0D2FE04467F2C00D97F240348FFF712
:103C4000AFFE0020009038BC5DF814FB4402001069
:103C500040600060704740600060704740600060F6
:103C600070470268516002680A60016048607047EE
:103C70000268516002680A6001604860704702682B
:103C8000516002680A6001604860704742681160D4
:103C900042684A604160086070470146086888428F
:103CA00001D1012070470020FCE7014608688842E6
:103CB00001D1012070470020FCE7D0E900215160CC
:103CC000D0E900121160406000607047D0E9002127
:103CD0005160D0E900121160406000607047000040
:103CE0002DE9F041054615B90020BDE8F081E81C3A
:103CF00020F003054E480068854201D90020F4E712
:103D00000C2D00D20C254FF0FF314A4800F02AFA62
:103D10004948006849490968461A7EE047480068F2
:103D200084196088002874D106F10C006168081AB3
:103D3000A8426ED306F10C006168091A05F118005B
:103D4000814230D306F10C0000EB05083B480068C7
:103D500000EB08074FF4F550388000207880606849
:103D60007860BE60C4F804800120608030487968C3
:103D700000680C30814205D03049786809680844F1
:103D8000C0F808802E48016805F10C0008442C4951
:103D900008602C4800680968884219D228480068E1
:103DA0002849086014E0012060802449606809689F
:103DB000611A401A224909680844214908602148CB
:103DC00000680968884203D21D4800681D490860E0
:103DD0004FF4F550208018480068844212D107E063
:103DE0001548006840681549096808441249086088
:103DF00011480068408828B10F48006812490968D6
:103E00008842EDD10B4800F090F904F10C006CE70A
:103E1000FFE70A4800683044466805480068401BD0
:103E2000B0423FF67BAF034800F07FF900205CE72B
:103E300044000010C40200104000001038000010C0
:103E4000480000104C0000103C0000102DE9F0412B
:103E50000F46164604463D463346102B28D305F040
:103E6000030C04F003084CEA080CBCF1000F1FD14E
:103E700021462A4610E052F804CB41F804CB52F810
:103E800004CB41F804CB52F804CB41F804CB52F8F0
:103E900004CB41F804CB103B102BECD204E052F8D9
:103EA00004CB41F804CB1B1F042BF8D20C4615465B
:103EB00003E015F801CB04F801CB5FEA030CA3F192
:103EC0000103F6D1BDE8F081F0B50C460546E6B237
:103ED000042A15D300F0030797B9014646EA0623E2
:103EE00043EA034304E008C108C108C108C1103A0D
:103EF000102AF8D201E008C1121F042AFBD20D4695
:103F000001E005F8016B1700A2F10102F9D1F0BD43
:103F10002DE9F04105460F460F4800EB0516F06805
:103F2000FFF7DEFE044614B90020BDE8F0812572DB
:103F30000020607208223946204600F0AEF9FCF7F6
:103F4000C5F9804604F10C01301DFFF78AFE40469A
:103F5000FCF7C0F92046E8E75000001070B50446B1
:103F6000FCF7B4F9054604F10C00FFF7A6FE28465D
:103F7000FCF7B0F92046FFF7A5FC70BD70B504460C
:103F8000FCF7A4F9054604F10C00FFF796FE28465D
:103F9000FCF7A0F970BD00002DE9F04104460D4684
:103FA00016460C4800EB051745F0800020720822E9
:103FB0003146204600F071F9FCF788F9804604F19B
:103FC0000C01381DFFF74DFE4046FCF783F9BDE8B4
:103FD000F0810000500000100146087A00F08000D7
:103FE00008B1012070470020FCE700002DE9F041F6
:103FF000FCF76CF907461648008818BB154800689E
:10400000FFF7C2F8461E144850F83600A0F1140419
:1040100012480068844214D011490E700F48056898
:1040200004601048007830B904F11C0105F11C004F
:10403000FCF753F905E004F11C0105F11C00FCF745
:104040004CF900BF3846FCF745F9BDE8F0810000A7
:10405000A0000010AC000010E4020010A40000104A
:10406000A80000106600002070B50446FCF72EF989
:104070000546012084F8340094F835200A4B03EB00
:10408000C20004F114014268116042684A60416054
:10409000086000BF0549A06B096808430349086030
:1040A0002846FCF717F970BDE4020010AC000010C0
:1040B00070B50446FCF70AF9054604F11400D0E98E
:1040C00000215160D0E9001211604060006000BF23
:1040D00094F83510094A02EBC1000168814201D110
:1040E000012100E0002129B10548A16B0068884347
:1040F000034908602846FCF7EDF870BDE4020010A3
:10410000AC0000102DE9F04104460D4616461F464E
:104110002A4601212046FFF73FFF2046FFF778FDA2
:10412000A68367720020BDE8F08170B504460025C3
:10413000FCF7CCF8064604F11400FFF7AEFD28B9F1
:1041400004F11400FFF724FD012502E0A08B401CC0
:10415000A0833046FCF7BEF8012D01D1FFF746FFE2
:10416000002070BD73B50546FCF7B0F80646A88B75
:10417000002806DDA88B401EA8833046FCF7AAF86D
:1041800028E0019828B93046FCF7A4F86FF0010048
:104190007CBD00F053FA0446002020636A7A214671
:1041A00005F11400FFF7FEFC0198002809DD01AAC3
:1041B000002104F14C0000F037FB04F14C0000F04A
:1041C00077FB3046FCF786F8FFF710FF206B08B14D
:1041D000206BDDE70020DBE708B509A0FFF720FD35
:1041E0000AA0FFF71DFD12A000230122022100906A
:1041F00012A0FFF715FD19A0FFF712FD08BD000082
:104200000A205C207C202F0A000000002D20525440
:10421000202D2020202020546872656164204F707A
:1042200065726174696E672053797374656D0A00F5
:10423000536570203132203230313800202F207CFD
:10424000205C202020202025642E25642E2564203B
:104250006275696C642025730A00000020323030DA
:1042600036202D203230313620436F7079726967E5
:1042700068742062792072742D746872656164209C
:104280007465616D0A00000001460A4600E0521C98
:1042900010780028FBD1501A704770B50346A2B1C0
:1042A00018460C4600BF14F8016B00F8016B3EB9CC
:1042B00002E0002500F8015B551E2A00F9D102E05A
:1042C000551E2A00EFD100BF00BF184670BD000088
:1042D0002DE9F04105460E46E81C20F0030726F0C4
:1042E0000308B8F1180F09D9A8F11800B84205D38E
:1042F000A8EB070018381E49086006E03246294638
:104300001CA0FFF78DFCBDE8F08129480760046818
:104310004FF4F5502080164800680C306060002093
:10432000A0606080224960680968084421490860EB
:104330004FF4F5500968088001201E49096848803B
:104340000B4800680C301B49096848600848006841
:104350000C301849096888600023012216A118480A
:10436000FFF7D0FE124800681649086000BFCAE790
:10437000440000106D656D20696E69742C206572B3
:10438000726F7220626567696E2061646472657322
:104390007320307825782C20616E6420656E64204F
:1043A0006164647265737320307825780A000000B8
:1043B000380000103C0000106865617000000000CB
:1043C000C40200104000001010B500200B49088006
:1043D000002405E00A4901EBC400FFF73CFC641C23
:1043E0001E2CF7DB1D2007490870002006490860D5
:1043F000064908600648FFF72EFC10BDA00000101B
:10440000E4020010A8000010A4000010AC0000108E
:10441000B000001070B508480068FEF7B5FE451EF4
:10442000064850F83500A0F114040548046004F172
:104430001C00FBF798FF70BDAC000010E4020010F8
:10444000A400001010B5002405E0044901EBC400ED
:10445000FFF704FC641C002CF7D010BDB80000105E
:1044600070472DE9FF5F06460F4690461D46DDE981
:104470000EAB31460020FFF74BFD8146B9F1000F2E
:1044800003D1002004B0BDE8F09F2846FFF728FCC8
:10449000044624B94846FFF761FD0020F2E7434691
:1044A0003A46314648468DE8300CFEF7A5FE4846B0
:1044B000E8E710B50446204600F0C6F810BD00003D
:1044C00070B512480468FBF701FF05462046FFF768
:1044D000EFFD042084F8340004F14C0000F0C0F932
:1044E0002046FFF779FD012805D1A06F18B92046B5
:1044F000FFF744FD04E004F114010548FFF7B8FBA1
:104500002846FBF7E7FEFFF771FD70BDA400001021
:10451000B000001001E000F001F8FCE770B530E0F9
:10452000FBF7D4FE0546FEF755FEE0B118480068DB
:10453000A0F1140404F11400D0E900215160D0E985
:10454000001211604060006000BFA06F10B12046F3
:10455000A16F88472046FFF73FFD012807D1284675
:10456000FBF7B8FE70BD2846FBF7B4FEFAE7284615
:10457000FBF7B0FEA06AFFF7A5F92046FFF7EEFCB7
:1045800000BFFEF727FE0028CAD100BFEAE70000FF
:10459000B00000101FB520201D21C200074BCDE93F
:1045A0000032CDE902100023054A06A1074800F0B9
:1045B0000FF8064800F06AF81FBD00004401001023
:1045C000154500087469646C65000000C4000010A3
:1045D0002DE9FF5F05460C4616461F46DDE910AB88
:1045E000DDE90E89224600212846FFF7D5FC3B462F
:1045F0003246214628468DE8000FFEF7FDFD04B047
:10460000BDE8F09F70B5044694F83400022802D04B
:104610004FF0FF3070BDFBF759FE054604F1140062
:10462000FFF754FB04F14C0000F0BEF92846FBF7FD
:1046300051FE2046FFF718FD0020EBE70148006817
:1046400070470000A400001031B5FBF73FFE05469F
:104650000D480468204600F02FF86A46002104F156
:104660004C0000F0E1F804F14C0000F021F928467C
:10467000FBF730FEFFF7BAFC206B801C08B9002066
:104680002063002038BD0000A400001010B50446CF
:104690003434A07860706178012088406060022026
:1046A00004F834092046FFF7ADFFFFF7C7FF08B154
:1046B000FFF79CFC002010BD70B5044694F8340050
:1046C000012802D04FF0FF3070BDFBF7FFFD05461B
:1046D000022084F834002046FFF7EAFC04F14C0085
:1046E00000F062F92846FBF7F5FD0020ECE770B515
:1046F000044625466FF00100286305F11400FFF71A
:10470000E5FA2846FFF7B0FCFFF770FC70BD00002B
:1047100070B5FBF7DBFD05461348046894F83400D8
:1047200001281CD1D4E90510814218D004F11400ED
:10473000FFF7CCFA94F835200C4B03EBC20004F1E0
:1047400014014268116042684A604160086000BF1D
:104750002846FBF7BFFDFFF749FC002070BD284647
:10476000FBF7B8FD0020F9E7A4000010E4020010F8
:1047700001480068704700002400001010B50A4886
:104780000068401C08490860FFF758FF0446A06C09
:10479000401EA064A06C18B9606CA064FFF7B8FF5D
:1047A00000F004F810BD00002400001070B5FFF701
:1047B000DFFF0546FBF78AFD064628E0194800683A
:1047C000A0F11404A06A281A6FF0004188421DD29B
:1047D0002046FEF774FDD4E907108847FFF7C8FFAD
:1047E0000546607A00F0020058B1607A00F00100DE
:1047F00038B1607A20F001006072204600F058F86D
:1048000005E0607A20F00100607200E004E00548F5
:10481000FFF74BFA0028D1D000BF3046FBF75AFD16
:1048200070BD0000B8000010034649B1012904D052
:10483000022908D0032910D10AE0586A10600CE060
:104840001068586209E0587A20F00200587204E0BB
:10485000587A40F00200587200BF00BF0020704735
:1048600070B50446FBF732FD05462046FEF727FDEE
:104870002846FBF72FFD2046FFF780FB002070BD88
:104880002DE9F84307460C4615461E46DDE9088922
:10489000224604213846FFF77FFB4346324629462D
:1048A0003846CDF80090FEF7E9FCBDE8F88300003B
:1048B0002DE9F8430546FBF709FD80462846FEF73B
:1048C000FEFC687A20F0010068724046FBF702FDAA
:1048D000FFF74EFF696A0844A862FBF7F7FC8046C1
:1048E0002F4F009700242AE019E05DF8242011687A
:1048F000142202EBC402881A826AAB6AD21A00D16F
:1049000008E0826AAB6AD21A6FF000439A4200D282
:104910000CE000BF5DF8240000684DF824005DF84D
:10492000240007EBC40149688842DED100BF2CB1E6
:104930005DF824000830611C4DF82100641C002C37
:10494000D2D018480068401C16490860084606681E
:1049500005F114010098FFF792F9022412E006F025
:10496000030060B9C4F1010305F1140202EBC301B5
:10497000C4F101025DF82200FFF781F900E003E0D5
:10498000B608641C012CEAD900BF687A40F0010027
:1049900068724046FBF79EFC0020BDE8F8830000EB
:1049A000B8000010C000001070B50446607A00F036
:1049B000010010B94FF0FF3070BDFBF787FC0546D2
:1049C0002046FEF77CFC2846FBF784FC607A20F04A
:1049D000010060720020EFE72DE9FF4F89B08046AB
:1049E00044460A984044461E464504D24FF0FF36DE
:1049F000A6EB08000A906FE10B980078252806D0F6
:104A0000B44202D80B9800782070641C61E1002544
:104A100026E00B98401C0B900B9800782D2802D1B3
:104A200045F010051CE00B9800782B2802D145F0CA
:104A3000040515E00B980078202802D145F0080500
:104A40000EE00B980078232802D145F0200507E0FE
:104A50000B980078302802D145F0010500E000E015
:104A6000D7E700BF4FF0FF370B98007830380A289F
:104A700004D20BA800F05FF907460EE00B9800780F
:104A80002A280AD10B98401C0B900C9880C80C90D7
:104A9000002F02DA7F4245F010054FF0FF390B98E6
:104AA00000782E281CD10B98401C0B900B98007896
:104AB00030380A2804D20BA800F03DF981460AE0FC
:104AC0000B9800782A2806D10B98401C0B900C9864
:104AD00050F8049B0C90B9F1000F01DA4FF0000977
:104AE000002004900B980078682803D00B98007879
:104AF0006C2805D10B98007804900B98401C0B9003
:104B00000A2005900B9800786F2875D00CDC63287C
:104B100013D004DC252870D058286FD18DE064288C
:104B20006DD06928F9D18FE070286AD0732825D01C
:104B3000752878D07828F0D182E005F0100040B9CF
:104B400004E0B44201D820202070641C781E071EA7
:104B5000F7DC0C9810F8041B0C90C8B20790B44214
:104B600001D807982070641C04E0B44201D82020CA
:104B70002070641C781E071EF7DCAAE00C98006801
:104B800006900C98001D0C90069808B95AA0069043
:104B90000698FFF779FB8346B9F1000F02DDCB459C
:104BA00000DDCB4605F0100048B904E0B44201D85E
:104BB00020202070641C38467F1E5845F6DC0020FB
:104BC00008900BE0B44202D8069800782070641C6C
:104BD0000698401C06900898401C08900898584574
:104BE000F0DB04E0B44201D820202070641C384679
:104BF0007F1E5845F6DC6CE01CE015E028E022E062
:104C0000FFE7781C10B9082745F00105CDE90079C8
:104C100002950C9804C8102331460C902046FEF7EC
:104C200029FD044655E012E0B44201D82520207049
:104C3000641C4EE0082005901DE045F0400500BFD3
:104C40001020059017E000BF45F0020500BF12E0FC
:104C5000B44201D825202070641C0B98007830B134
:104C6000B44202D80B9800782070641C02E00B98C4
:104C7000401E0B902DE000BF04986C2807D10C98C3
:104C800050F804AB0C9005F00200B8B116E004989F
:104C900068280BD10C9830F8041B1FFA81FA0C908D
:104CA00005F0020050B10FFA8AFA07E00C9850F8AC
:104CB00004AB0C9005F0020000B100BFCDE9007913
:104CC0000295524631462046059BFEF7D3FC04462A
:104CD00000BF0B98401C0B900B98007800287FF4C5
:104CE0008BAEB44201D8207001E000203070A4EBFC
:104CF00008000DB0BDE8F08F284E554C4C2900003F
:104D000000207047002070470020704710B5FBF767
:104D1000DDFAFEF71BFEFFF75FFAFFF793FBFFF7E5
:104D200053FBFEF76DFDFFF79BFBFFF733FCFFF72F
:104D300071FB002010BD0146002009E00B685A1CE1
:104D40000A601A7800EB800302EB4302A2F1300004
:104D50000A681278303A0A2AF0D3704710B586B044
:104D6000044601210846FCF735FA0121C804FCF786
:104D700041FA0320049002208DF8140000208DF8E1
:104D800015008DF8160001208DF8170004A91248AF
:104D9000FCF73CF9082200210F48FCF77FF90822B4
:104DA00001210D48FCF77AF900940020ADF80400C9
:104DB000ADF80600ADF80800ADF80C000C20ADF819
:104DC0000A0069460548FDF727F801210348FCF76A
:104DD00039FF06B010BD000000000240004C00404A
:104DE0000808A0F500114FEA3101704743004FEA6F
:104DF000D30C4FEA3C0C43401FBF40070CF16051FD
:104E000013F0FE4F70471CF0006F03D100200CF030
:104E1000004170470CF0004343EA507010B540EA7F
:104E2000CC0000F00EF800BF000000924FEA000135
:104E3000FFF7D6BF4FF000414FF00000A1F5002171
:104E400070470EF1020E2EF0030E5EF8044B244262
:104E500004D44FEA4102B2F17F4F11D84FEA400328
:104E6000B3F17F4F0CD80ED14FEAD07CB2F17F4F17
:104E70000CEB4C0C0CF1020C08BF4CEBD17C04E0A9
:104E80004FF0080C01E04FEAD17C0CEB4C0324FA04
:104E900003F404F00704B4F1040C06D20EEB840C06
:104EA000BDE810404CF0010C6047DFE80CF007084B
:104EB00002024FF00040A0F5800010BD08464200FD
:104EC00018BFD2F1807288BF00F0004010BD4FF0D3
:104ED0004070E1EE100A704700000100020001007E
:104EE00003000100020001000400010002000100B3
:104EF00003000100020001000500010002000100A2
:104F00000300010002000100040001000200010092
:104F10000300010002000100060001000200010080
:104F20000300010002000100040001000200010072
:104F30000300010002000100050001000200010061
:104F40000300010002000100040001000200010052
:104F5000030001000200010007000100020001003F
:104F60000300010002000100040001000200010032
:104F70000300010002000100050001000200010021
:104F80000300010002000100040001000200010012
:104F90000300010002000100060001000200010000
:104FA00003000100020001000400010002000100F2
:104FB00003000100020001000500010002000100E1
:104FC00003000100020001000400010002000100D2
:104FD000030001000200010030313233343536372E
:104FE0003839616263646566003031323334353696
:104FF0003738394142434445460004000008000068
:10500000000000000002000100001000054D000833
:10501000014D0008094D000858500008000000200C
:105020006800000020020008C050000800000010C6
:10503000C400000020020008C050000868000020E2
:10504000E85400003C02000884510008C40000102D
:10505000100300003C0200080000000000000000F7
:105060000000000000000000000000000000000040
:105070000000000000000000000000000000000030
:105080000000000000000000000000000000000020
:10509000010000000000000000000000000000000F
:1050A000000000000000000000000000B51F000824
:1050B000F51E0008011F0008540000200000000039
:1050C000007A030A0000000000000000010203044F
:1050D000060708090000000001020304010203049E
:1050E00006070809000000000000000000000000A2
:1050F00000000000000000000000000000000000B0
:10510000000000000000000000000000000000009F
:105110000000000054000010540000108000000047
:105120000100000064000010640000102000000076
:105130000200000074000010740000102000000045
:105140000300000084000010840000103000000004
:105150000400000094000010940000102C000000D7
:10516000000000000000000000000000000000003F
:10517000000000000000000000000000000000002F
:04518000000000002B
:040000050800018965
:00000001FF
